{
    "contractName": "Dbay",
    "abi": [
        {
            "inputs": [],
            "name": "accept",
            "outputs": [],
            "stateMutability": "payable",
            "type": "function"
        },
        {
            "inputs": [
                {
                    "internalType": "uint32",
                    "name": "goodId",
                    "type": "uint32"
                }
            ],
            "name": "buyItem",
            "outputs": [],
            "stateMutability": "payable",
            "type": "function"
        },
        {
            "inputs": [
                {
                    "internalType": "bytes32",
                    "name": "username",
                    "type": "bytes32"
                },
                {
                    "internalType": "bytes32",
                    "name": "shippingAddr",
                    "type": "bytes32"
                }
            ],
            "name": "createAccount",
            "outputs": [],
            "stateMutability": "nonpayable",
            "type": "function"
        },
        {
            "inputs": [],
            "name": "getAccount",
            "outputs": [
                {
                    "components": [
                        {
                            "internalType": "bytes32",
                            "name": "username",
                            "type": "bytes32"
                        },
                        {
                            "internalType": "uint256",
                            "name": "buyerRep",
                            "type": "uint256"
                        },
                        {
                            "internalType": "uint256",
                            "name": "sellerRep",
                            "type": "uint256"
                        },
                        {
                            "internalType": "address",
                            "name": "wallet",
                            "type": "address"
                        },
                        {
                            "internalType": "bytes32",
                            "name": "shippingAddr",
                            "type": "bytes32"
                        }
                    ],
                    "internalType": "struct Dbay.User",
                    "name": "",
                    "type": "tuple"
                }
            ],
            "stateMutability": "view",
            "type": "function"
        },
        {
            "inputs": [],
            "name": "getOwnItems",
            "outputs": [
                {
                    "components": [
                        {
                            "internalType": "uint32",
                            "name": "price",
                            "type": "uint32"
                        },
                        {
                            "internalType": "bytes32",
                            "name": "name",
                            "type": "bytes32"
                        },
                        {
                            "internalType": "uint256",
                            "name": "quantity",
                            "type": "uint256"
                        },
                        {
                            "internalType": "uint32",
                            "name": "id",
                            "type": "uint32"
                        },
                        {
                            "internalType": "address",
                            "name": "owner",
                            "type": "address"
                        }
                    ],
                    "internalType": "struct Good[]",
                    "name": "",
                    "type": "tuple[]"
                }
            ],
            "stateMutability": "view",
            "type": "function"
        },
        {
            "inputs": [],
            "name": "getSoldItems",
            "outputs": [
                {
                    "internalType": "contract Transaction[]",
                    "name": "r",
                    "type": "address[]"
                }
            ],
            "stateMutability": "view",
            "type": "function"
        },
        {
            "inputs": [
                {
                    "internalType": "uint32",
                    "name": "price",
                    "type": "uint32"
                },
                {
                    "internalType": "bytes32",
                    "name": "name",
                    "type": "bytes32"
                },
                {
                    "internalType": "uint256",
                    "name": "quantity",
                    "type": "uint256"
                },
                {
                    "internalType": "uint32",
                    "name": "id",
                    "type": "uint32"
                },
                {
                    "internalType": "address",
                    "name": "owner",
                    "type": "address"
                }
            ],
            "name": "listItem",
            "outputs": [],
            "stateMutability": "nonpayable",
            "type": "function"
        }
    ],
    "bytecode": "608060405234801561001057600080fd5b50611260806100206000396000f3fe6080604052600436106100705760003560e01c80632852b71c1161004e5780632852b71c1461009557806343f9024a146100d55780638f1ac7ed146100f7578063db613e811461011757600080fd5b8063183815c81461007557806318ad151b14610097578063212acf9b146100c2575b600080fd5b34801561008157600080fd5b50610095610090366004610903565b610172565b005b3480156100a357600080fd5b506100ac610243565b6040516100b99190610925565b60405180910390f35b6100956100d036600461098b565b61030d565b3480156100e157600080fd5b506100ea61041f565b6040516100b991906109ad565b34801561010357600080fd5b50610095610112366004610a2f565b610688565b34801561012357600080fd5b5061012c610819565b6040516100b991908151815260208083015190820152604080830151908201526060808301516001600160a01b0316908201526080918201519181019190915260a00190565b33600090815260016020526040902054158015906101aa5750336000908152600160205260409020600301546001600160a01b031615155b80156101c757503360009081526001602052604090206004015415155b6101d057600080fd5b6040805160a0810182529283526000602080850182815285840183815233606088018181526080890197885290855260019384905294909320955186555190850155516002840155516003830180546001600160a01b0319166001600160a01b0390921691909117905551600490910155565b336000908152600160205260409020546060901580159061027e5750336000908152600160205260409020600301546001600160a01b031615155b801561029b57503360009081526001602052604090206004015415155b6102a457600080fd5b336000908152600260209081526040918290208054835181840281018401909452808452909183018282801561030357602002820191906000526020600020905b81546001600160a01b031681526001909101906020018083116102e5575b5050505050905090565b33600090815260016020526040902054158015906103455750336000908152600160205260409020600301546001600160a01b031615155b801561036257503360009081526001602052604090206004015415155b61036b57600080fd5b60008160405161037a906108f6565b63ffffffff9091168152602001604051809103906000f0801580156103a3573d6000803e3d6000fd5b5090506000808363ffffffff16815481106103c0576103c0610a96565b600091825260208083206004929092029091016003015464010000000090046001600160a01b03908116835260028252604083208054600181018255908452919092200180546001600160a01b03191693909116929092179091555050565b336000908152600160205260409020546060901580159061045a5750336000908152600160205260409020600301546001600160a01b031615155b801561047757503360009081526001602052604090206004015415155b61048057600080fd5b6000805b6000548110156105345760008082815481106104a2576104a2610a96565b60009182526020918290206040805160a081018252600493909302909101805463ffffffff90811684526001820154948401949094526002810154918301919091526003015491821660608201526401000000009091046001600160a01b031660808201819052909150339003610521578261051d81610aac565b9350505b508061052c81610aac565b915050610484565b5060008167ffffffffffffffff81111561055057610550610ad3565b6040519080825280602002602001820160405280156105a957816020015b6040805160a08101825260008082526020808301829052928201819052606082018190526080820152825260001990920191018161056e5790505b5090506000805b60005481101561067f5760008082815481106105ce576105ce610a96565b60009182526020918290206040805160a081018252600493909302909101805463ffffffff90811684526001820154948401949094526002810154918301919091526003015491821660608201526401000000009091046001600160a01b03166080820181905290915033900361066c578084848151811061065257610652610a96565b6020026020010181905250828061066890610aac565b9350505b508061067781610aac565b9150506105b0565b50909250505090565b33600090815260016020526040902054158015906106c05750336000908152600160205260409020600301546001600160a01b031615155b80156106dd57503360009081526001602052604090206004015415155b6106e657600080fd5b60008563ffffffff16116106f957600080fd5b6040805160a08101825263ffffffff968716815260208101958652908101938452918516606083019081526001600160a01b039182166080840190815260008054600181018255908052935160049094027f290decd9548b62a8d60345a988386fc84ba6bc95484008f6362f93160ef3e5638101805495891663ffffffff199096169590951790945594517f290decd9548b62a8d60345a988386fc84ba6bc95484008f6362f93160ef3e56484015592517f290decd9548b62a8d60345a988386fc84ba6bc95484008f6362f93160ef3e56583015591517f290decd9548b62a8d60345a988386fc84ba6bc95484008f6362f93160ef3e56690910180549351909216640100000000026001600160c01b0319909316931692909217179055565b6040805160a081018252600080825260208083018290528284018290526060830182905260808301829052338252600190529190912054158015906108785750336000908152600160205260409020600301546001600160a01b031615155b801561089557503360009081526001602052604090206004015415155b61089e57600080fd5b5033600090815260016020818152604092839020835160a08101855281548152928101549183019190915260028101549282019290925260038201546001600160a01b03166060820152600490910154608082015290565b61074180610aea83390190565b6000806040838503121561091657600080fd5b50508035926020909101359150565b6020808252825182820181905260009190848201906040850190845b818110156109665783516001600160a01b031683529284019291840191600101610941565b50909695505050505050565b803563ffffffff8116811461098657600080fd5b919050565b60006020828403121561099d57600080fd5b6109a682610972565b9392505050565b602080825282518282018190526000919060409081850190868401855b82811015610a22578151805163ffffffff908116865287820151888701528682015187870152606080830151909116908601526080908101516001600160a01b03169085015260a090930192908501906001016109ca565b5091979650505050505050565b600080600080600060a08688031215610a4757600080fd5b610a5086610972565b94506020860135935060408601359250610a6c60608701610972565b915060808601356001600160a01b0381168114610a8857600080fd5b809150509295509295909350565b634e487b7160e01b600052603260045260246000fd5b600060018201610acc57634e487b7160e01b600052601160045260246000fd5b5060010190565b634e487b7160e01b600052604160045260246000fdfe60806040526040516107413803806107418339810160408190526100229161008b565b6001805463ffffffff831663ffffffff19909116179055600280546001600160a01b0319163317815561005590346100b8565b600081905534906100679060026100da565b1461008557604051635f1f262160e11b815260040160405180910390fd5b50610107565b60006020828403121561009d57600080fd5b815163ffffffff811681146100b157600080fd5b9392505050565b6000826100d557634e487b7160e01b600052601260045260246000fd5b500490565b600081600019048311821515161561010257634e487b7160e01b600052601160045260246000fd5b500290565b61062b806101166000396000f3fe6080604052600436106100915760003560e01c80637150d8ae116100595780637150d8ae1461014a57806373fac6f01461016a5780637e2f42e71461017f578063c19d93fb1461019c578063c7981b1b146101ca57600080fd5b806308551a53146100965780631f7b8884146100db57806335a063b4146100e55780633bef0768146100fa5780633fa4f24514610126575b600080fd5b3480156100a257600080fd5b506001546100be9064010000000090046001600160a01b031681565b6040516001600160a01b0390911681526020015b60405180910390f35b6100e36101df565b005b3480156100f157600080fd5b506100e36102cb565b34801561010657600080fd5b5060015463ffffffff165b60405163ffffffff90911681526020016100d2565b34801561013257600080fd5b5061013c60005481565b6040519081526020016100d2565b34801561015657600080fd5b506002546100be906001600160a01b031681565b34801561017657600080fd5b506100e36103ad565b34801561018b57600080fd5b506001546101119063ffffffff1681565b3480156101a857600080fd5b506002546101bd90600160a01b900460ff1681565b6040516100d291906105a0565b3480156101d657600080fd5b506100e361048c565b600080600254600160a01b900460ff1660038111156102005761020061058a565b1461021e5760405163baf3f0f760e01b815260040160405180910390fd5b60015464010000000090046001600160a01b03163314610251576040516342e8fb9360e11b815260040160405180910390fd5b60005461025f9060026105c8565b34148061026b57600080fd5b6040517fd38d6799315b613e5721313e07e327b0e8a305fcc442174a6c3bb26fb6463fb690600090a160018054640100000000600160c01b03191633640100000000021781556002805460ff60a01b1916600160a01b8302179055505050565b6002546001600160a01b031633146102f6576040516386efbb5560e01b815260040160405180910390fd5b600080600254600160a01b900460ff1660038111156103175761031761058a565b146103355760405163baf3f0f760e01b815260040160405180910390fd5b6040517f72c874aeff0b183a56e2b79c71b46e1aed4dee5e09862134b8821ba2fddbf8bf90600090a16002805460ff60a01b198116600360a01b179091556040516001600160a01b03909116904780156108fc02916000818181858888f193505050501580156103a9573d6000803e3d6000fd5b5050565b6002546001600160a01b031633146103d8576040516386efbb5560e01b815260040160405180910390fd5b600180600254600160a01b900460ff1660038111156103f9576103f961058a565b146104175760405163baf3f0f760e01b815260040160405180910390fd5b6040517fe89152acd703c9d8c7d28829d443260b411454d45394e7995815140c8cbcbcf790600090a160028054600160a11b60ff60a01b19821617909155600080546040516001600160a01b03909316926108fc82150292818181858888f193505050501580156103a9573d6000803e3d6000fd5b60015464010000000090046001600160a01b031633146104bf576040516342e8fb9360e11b815260040160405180910390fd5b600280600254600160a01b900460ff1660038111156104e0576104e061058a565b146104fe5760405163baf3f0f760e01b815260040160405180910390fd5b6040517ffda69c32bcfdba840a167777906b173b607eb8b4d8853b97a80d26e613d858db90600090a16002805460ff60a01b1916600360a01b1790556001546000546401000000009091046001600160a01b0316906108fc906105629060036105c8565b6040518115909202916000818181858888f193505050501580156103a9573d6000803e3d6000fd5b634e487b7160e01b600052602160045260246000fd5b60208101600483106105c257634e487b7160e01b600052602160045260246000fd5b91905290565b60008160001904831182151516156105f057634e487b7160e01b600052601160045260246000fd5b50029056fea2646970667358221220e274b9e1b603023b7c88901fa9973b42ea9420ce7bc91738dc41d5e3c6c0b23e64736f6c634300080d0033a264697066735822122029f286bdab60eca33491607cfa9824c90ec1af0be96685fd69fa6c6e2c7c899064736f6c634300080d0033",
    "sourcePath": "/Users/edwardcox/crypto/dbay/contracts/Dbay.sol",
    "compiler": {
        "name": "solc",
        "version": "0.8.13+commit.abaa5c0e"
    },
    "functionHashes": {
        "accept()": "2852b71c",
        "buyItem(uint32)": "212acf9b",
        "createAccount(bytes32,bytes32)": "183815c8",
        "getAccount()": "db613e81",
        "getOwnItems()": "43f9024a",
        "getSoldItems()": "18ad151b",
        "listItem(uint32,bytes32,uint256,uint32,address)": "8f1ac7ed"
    },
    "gasEstimates": {
        "creation": {
            "codeDepositCost": "940800",
            "executionCost": "975",
            "totalCost": "941775"
        },
        "external": {
            "accept()": "96",
            "buyItem(uint32)": "infinite",
            "createAccount(bytes32,bytes32)": "85593",
            "getAccount()": "17924",
            "getOwnItems()": "infinite",
            "getSoldItems()": "infinite",
            "listItem(uint32,bytes32,uint256,uint32,address)": "infinite"
        },
        "internal": {
            "findGoodById(uint32)": "infinite",
            "findSold()": "infinite",
            "findTransactions()": "infinite"
        }
    }
}