{
  "contractName": "Dbay",
  "abi": [
    {
      "anonymous": false,
      "inputs": [
        {
          "indexed": false,
          "internalType": "string",
          "name": "username",
          "type": "string"
        },
        {
          "indexed": false,
          "internalType": "string",
          "name": "shippingAddr",
          "type": "string"
        },
        {
          "indexed": false,
          "internalType": "address",
          "name": "wallet",
          "type": "address"
        }
      ],
      "name": "NewUser",
      "type": "event"
    },
    {
      "anonymous": false,
      "inputs": [
        {
          "indexed": false,
          "internalType": "uint256",
          "name": "count",
          "type": "uint256"
        }
      ],
      "name": "PurchaseCount",
      "type": "event"
    },
    {
      "anonymous": false,
      "inputs": [
        {
          "indexed": false,
          "internalType": "uint256",
          "name": "count",
          "type": "uint256"
        }
      ],
      "name": "SoldCount",
      "type": "event"
    },
    {
      "inputs": [],
      "name": "GoodState",
      "outputs": [
        {
          "internalType": "enum Dbay.State",
          "name": "",
          "type": "uint8"
        }
      ],
      "stateMutability": "view",
      "type": "function",
      "constant": true
    },
    {
      "inputs": [],
      "name": "getListedItems",
      "outputs": [
        {
          "components": [
            {
              "internalType": "uint32",
              "name": "price",
              "type": "uint32"
            },
            {
              "internalType": "string",
              "name": "name",
              "type": "string"
            },
            {
              "internalType": "uint256",
              "name": "quantity",
              "type": "uint256"
            },
            {
              "internalType": "uint32",
              "name": "id",
              "type": "uint32"
            },
            {
              "internalType": "address",
              "name": "owner",
              "type": "address"
            },
            {
              "internalType": "enum Dbay.State",
              "name": "state",
              "type": "uint8"
            }
          ],
          "internalType": "struct Dbay.Good[]",
          "name": "",
          "type": "tuple[]"
        }
      ],
      "stateMutability": "view",
      "type": "function",
      "constant": true
    },
    {
      "inputs": [],
      "name": "getSoldItems",
      "outputs": [
        {
          "components": [
            {
              "internalType": "uint32",
              "name": "price",
              "type": "uint32"
            },
            {
              "internalType": "string",
              "name": "name",
              "type": "string"
            },
            {
              "internalType": "uint256",
              "name": "quantity",
              "type": "uint256"
            },
            {
              "internalType": "uint32",
              "name": "id",
              "type": "uint32"
            },
            {
              "internalType": "address",
              "name": "owner",
              "type": "address"
            },
            {
              "internalType": "enum Dbay.State",
              "name": "state",
              "type": "uint8"
            }
          ],
          "internalType": "struct Dbay.Good[]",
          "name": "",
          "type": "tuple[]"
        }
      ],
      "stateMutability": "view",
      "type": "function",
      "constant": true
    },
    {
      "inputs": [
        {
          "internalType": "address",
          "name": "addr",
          "type": "address"
        }
      ],
      "name": "getUser",
      "outputs": [
        {
          "components": [
            {
              "internalType": "string",
              "name": "username",
              "type": "string"
            },
            {
              "internalType": "uint256",
              "name": "buyerRep",
              "type": "uint256"
            },
            {
              "internalType": "uint256",
              "name": "sellerRep",
              "type": "uint256"
            },
            {
              "internalType": "address",
              "name": "wallet",
              "type": "address"
            },
            {
              "internalType": "string",
              "name": "shippingAddr",
              "type": "string"
            }
          ],
          "internalType": "struct Dbay.User",
          "name": "",
          "type": "tuple"
        }
      ],
      "stateMutability": "view",
      "type": "function",
      "constant": true
    },
    {
      "inputs": [
        {
          "internalType": "string",
          "name": "username",
          "type": "string"
        },
        {
          "internalType": "string",
          "name": "shippingAddr",
          "type": "string"
        }
      ],
      "name": "createProfile",
      "outputs": [],
      "stateMutability": "nonpayable",
      "type": "function"
    },
    {
      "inputs": [],
      "name": "getAccount",
      "outputs": [
        {
          "components": [
            {
              "internalType": "string",
              "name": "username",
              "type": "string"
            },
            {
              "internalType": "uint256",
              "name": "buyerRep",
              "type": "uint256"
            },
            {
              "internalType": "uint256",
              "name": "sellerRep",
              "type": "uint256"
            },
            {
              "internalType": "address",
              "name": "wallet",
              "type": "address"
            },
            {
              "internalType": "string",
              "name": "shippingAddr",
              "type": "string"
            }
          ],
          "internalType": "struct Dbay.User",
          "name": "user",
          "type": "tuple"
        }
      ],
      "stateMutability": "view",
      "type": "function",
      "constant": true
    },
    {
      "inputs": [
        {
          "internalType": "uint32",
          "name": "_goodId",
          "type": "uint32"
        }
      ],
      "name": "buyItem",
      "outputs": [],
      "stateMutability": "payable",
      "type": "function",
      "payable": true
    },
    {
      "inputs": [
        {
          "internalType": "uint256",
          "name": "id",
          "type": "uint256"
        }
      ],
      "name": "getItemById",
      "outputs": [
        {
          "components": [
            {
              "internalType": "uint32",
              "name": "price",
              "type": "uint32"
            },
            {
              "internalType": "string",
              "name": "name",
              "type": "string"
            },
            {
              "internalType": "uint256",
              "name": "quantity",
              "type": "uint256"
            },
            {
              "internalType": "uint32",
              "name": "id",
              "type": "uint32"
            },
            {
              "internalType": "address",
              "name": "owner",
              "type": "address"
            },
            {
              "internalType": "enum Dbay.State",
              "name": "state",
              "type": "uint8"
            }
          ],
          "internalType": "struct Dbay.Good",
          "name": "good",
          "type": "tuple"
        }
      ],
      "stateMutability": "view",
      "type": "function",
      "constant": true
    },
    {
      "inputs": [],
      "name": "getPurchasesLength",
      "outputs": [
        {
          "internalType": "uint256",
          "name": "",
          "type": "uint256"
        }
      ],
      "stateMutability": "view",
      "type": "function",
      "constant": true
    },
    {
      "inputs": [],
      "name": "getSoldLength",
      "outputs": [
        {
          "internalType": "uint256",
          "name": "",
          "type": "uint256"
        }
      ],
      "stateMutability": "view",
      "type": "function",
      "constant": true
    },
    {
      "inputs": [],
      "name": "getSoldArr",
      "outputs": [
        {
          "internalType": "contract Transaction[]",
          "name": "",
          "type": "address[]"
        }
      ],
      "stateMutability": "view",
      "type": "function",
      "constant": true
    },
    {
      "inputs": [
        {
          "internalType": "uint32",
          "name": "_goodId",
          "type": "uint32"
        }
      ],
      "name": "findGoodById",
      "outputs": [
        {
          "components": [
            {
              "internalType": "uint32",
              "name": "price",
              "type": "uint32"
            },
            {
              "internalType": "string",
              "name": "name",
              "type": "string"
            },
            {
              "internalType": "uint256",
              "name": "quantity",
              "type": "uint256"
            },
            {
              "internalType": "uint32",
              "name": "id",
              "type": "uint32"
            },
            {
              "internalType": "address",
              "name": "owner",
              "type": "address"
            },
            {
              "internalType": "enum Dbay.State",
              "name": "state",
              "type": "uint8"
            }
          ],
          "internalType": "struct Dbay.Good",
          "name": "",
          "type": "tuple"
        }
      ],
      "stateMutability": "view",
      "type": "function",
      "constant": true
    },
    {
      "inputs": [],
      "name": "getOwnItems",
      "outputs": [
        {
          "components": [
            {
              "internalType": "uint32",
              "name": "price",
              "type": "uint32"
            },
            {
              "internalType": "string",
              "name": "name",
              "type": "string"
            },
            {
              "internalType": "uint256",
              "name": "quantity",
              "type": "uint256"
            },
            {
              "internalType": "uint32",
              "name": "id",
              "type": "uint32"
            },
            {
              "internalType": "address",
              "name": "owner",
              "type": "address"
            },
            {
              "internalType": "enum Dbay.State",
              "name": "state",
              "type": "uint8"
            }
          ],
          "internalType": "struct Dbay.Good[]",
          "name": "",
          "type": "tuple[]"
        }
      ],
      "stateMutability": "view",
      "type": "function",
      "constant": true
    },
    {
      "inputs": [
        {
          "internalType": "uint32",
          "name": "price",
          "type": "uint32"
        },
        {
          "internalType": "string",
          "name": "name",
          "type": "string"
        },
        {
          "internalType": "uint32",
          "name": "quantity",
          "type": "uint32"
        }
      ],
      "name": "listItem",
      "outputs": [],
      "stateMutability": "nonpayable",
      "type": "function"
    },
    {
      "inputs": [],
      "name": "accept",
      "outputs": [],
      "stateMutability": "payable",
      "type": "function",
      "payable": true
    }
  ],
  "bytecode": "0x608060405260008060006101000a81548163ffffffff021916908363ffffffff16021790555034801561003157600080fd5b50614b83806100416000396000f3fe608060405260043610620000fe5760003560e01c806384b41be11162000097578063caf506901162000061578063caf506901462000303578063cd2f07101462000333578063db613e811462000377578063ff3c0c9814620003a757620000fe565b806384b41be114620002335780639201578214620002615780639747ea2b1462000291578063ba1feb8a14620002d557620000fe565b806343f9024a11620000d957806343f9024a146200015f5780635fa435d8146200018f5780636f77926b14620001bf57806379986063146200020357620000fe565b806318ad151b1462000103578063212acf9b14620001335780632852b71c1462000153575b600080fd5b3480156200011057600080fd5b506200011b620003d7565b6040516200012a9190620031e0565b60405180910390f35b6200015160048036038101906200014b919062003249565b620003ea565b005b6200015d62000766565b005b3480156200016c57600080fd5b506200017762000768565b604051620001869190620031e0565b60405180910390f35b3480156200019c57600080fd5b50620001a762000ae4565b604051620001b691906200328c565b60405180910390f35b348015620001cc57600080fd5b50620001eb6004803603810190620001e59190620032da565b62000af7565b604051620001fa919062003393565b60405180910390f35b3480156200021057600080fd5b506200021b62000cf0565b6040516200022a9190620034df565b60405180910390f35b3480156200024057600080fd5b506200025f600480360381019062000259919062003654565b62000e5e565b005b3480156200026e57600080fd5b50620002796200132d565b604051620002889190620036e0565b60405180910390f35b3480156200029e57600080fd5b50620002bd6004803603810190620002b7919062003249565b6200149b565b604051620002cc919062003792565b60405180910390f35b348015620002e257600080fd5b50620003016004803603810190620002fb9190620037b6565b62001649565b005b3480156200031057600080fd5b506200031b620019e6565b6040516200032a9190620031e0565b60405180910390f35b3480156200034057600080fd5b506200035f60048036038101906200035991906200386c565b620019f9565b6040516200036e919062003792565b60405180910390f35b3480156200038457600080fd5b506200038f62001b5f565b6040516200039e919062003393565b60405180910390f35b348015620003b457600080fd5b50620003bf62001d5c565b604051620003ce9190620036e0565b60405180910390f35b6060620003e5600262001eca565b905090565b6000600260003373ffffffffffffffffffffffffffffffffffffffff1673ffffffffffffffffffffffffffffffffffffffff16815260200190815260200160002060000180546200043b90620038cd565b9050118015620004da5750600073ffffffffffffffffffffffffffffffffffffffff16600260003373ffffffffffffffffffffffffffffffffffffffff1673ffffffffffffffffffffffffffffffffffffffff16815260200190815260200160002060030160009054906101000a900473ffffffffffffffffffffffffffffffffffffffff1673ffffffffffffffffffffffffffffffffffffffff1614155b80156200053757506000600260003373ffffffffffffffffffffffffffffffffffffffff1673ffffffffffffffffffffffffffffffffffffffff16815260200190815260200160002060040180546200053390620038cd565b9050115b6200054157600080fd5b60006200054e826200239e565b905060028160030160186101000a81548160ff021916908360028111156200057b576200057a62003027565b5b0217905550600082348360000160009054906101000a900463ffffffff168460030160049054906101000a900473ffffffffffffffffffffffffffffffffffffffff1633604051620005cd9062002d66565b620005dd9594939291906200395d565b604051809103906000f080158015620005fa573d6000803e3d6000fd5b509050600360008360030160049054906101000a900473ffffffffffffffffffffffffffffffffffffffff1673ffffffffffffffffffffffffffffffffffffffff1673ffffffffffffffffffffffffffffffffffffffff168152602001908152602001600020819080600181540180825580915050600190039060005260206000200160009091909190916101000a81548173ffffffffffffffffffffffffffffffffffffffff021916908373ffffffffffffffffffffffffffffffffffffffff160217905550600360003373ffffffffffffffffffffffffffffffffffffffff1673ffffffffffffffffffffffffffffffffffffffff168152602001908152602001600020819080600181540180825580915050600190039060005260206000200160009091909190916101000a81548173ffffffffffffffffffffffffffffffffffffffff021916908373ffffffffffffffffffffffffffffffffffffffff160217905550505050565b565b60606000600260003373ffffffffffffffffffffffffffffffffffffffff1673ffffffffffffffffffffffffffffffffffffffff1681526020019081526020016000206000018054620007bb90620038cd565b90501180156200085a5750600073ffffffffffffffffffffffffffffffffffffffff16600260003373ffffffffffffffffffffffffffffffffffffffff1673ffffffffffffffffffffffffffffffffffffffff16815260200190815260200160002060030160009054906101000a900473ffffffffffffffffffffffffffffffffffffffff1673ffffffffffffffffffffffffffffffffffffffff1614155b8015620008b757506000600260003373ffffffffffffffffffffffffffffffffffffffff1673ffffffffffffffffffffffffffffffffffffffff1681526020019081526020016000206004018054620008b390620038cd565b9050115b620008c157600080fd5b600460003373ffffffffffffffffffffffffffffffffffffffff1673ffffffffffffffffffffffffffffffffffffffff168152602001908152602001600020805480602002602001604051908101604052809291908181526020016000905b8282101562000adb57838290600052602060002090600402016040518060c00160405290816000820160009054906101000a900463ffffffff1663ffffffff1663ffffffff1681526020016001820180546200097c90620038cd565b80601f0160208091040260200160405190810160405280929190818152602001828054620009aa90620038cd565b8015620009fb5780601f10620009cf57610100808354040283529160200191620009fb565b820191906000526020600020905b815481529060010190602001808311620009dd57829003601f168201915b50505050508152602001600282015481526020016003820160009054906101000a900463ffffffff1663ffffffff1663ffffffff1681526020016003820160049054906101000a900473ffffffffffffffffffffffffffffffffffffffff1673ffffffffffffffffffffffffffffffffffffffff1673ffffffffffffffffffffffffffffffffffffffff1681526020016003820160189054906101000a900460ff16600281111562000ab25762000ab162003027565b5b600281111562000ac75762000ac662003027565b5b815250508152602001906001019062000920565b50505050905090565b600060049054906101000a900460ff1681565b62000b0162002d74565b600260008373ffffffffffffffffffffffffffffffffffffffff1673ffffffffffffffffffffffffffffffffffffffff1681526020019081526020016000206040518060a001604052908160008201805462000b5d90620038cd565b80601f016020809104026020016040519081016040528092919081815260200182805462000b8b90620038cd565b801562000bdc5780601f1062000bb05761010080835404028352916020019162000bdc565b820191906000526020600020905b81548152906001019060200180831162000bbe57829003601f168201915b5050505050815260200160018201548152602001600282015481526020016003820160009054906101000a900473ffffffffffffffffffffffffffffffffffffffff1673ffffffffffffffffffffffffffffffffffffffff1673ffffffffffffffffffffffffffffffffffffffff16815260200160048201805462000c6190620038cd565b80601f016020809104026020016040519081016040528092919081815260200182805462000c8f90620038cd565b801562000ce05780601f1062000cb45761010080835404028352916020019162000ce0565b820191906000526020600020905b81548152906001019060200180831162000cc257829003601f168201915b5050505050815250509050919050565b60606000600260003373ffffffffffffffffffffffffffffffffffffffff1673ffffffffffffffffffffffffffffffffffffffff168152602001908152602001600020600001805462000d4390620038cd565b905011801562000de25750600073ffffffffffffffffffffffffffffffffffffffff16600260003373ffffffffffffffffffffffffffffffffffffffff1673ffffffffffffffffffffffffffffffffffffffff16815260200190815260200160002060030160009054906101000a900473ffffffffffffffffffffffffffffffffffffffff1673ffffffffffffffffffffffffffffffffffffffff1614155b801562000e3f57506000600260003373ffffffffffffffffffffffffffffffffffffffff1673ffffffffffffffffffffffffffffffffffffffff168152602001908152602001600020600401805462000e3b90620038cd565b9050115b62000e4957600080fd5b600062000e556200246a565b90508091505090565b6000600260003373ffffffffffffffffffffffffffffffffffffffff1673ffffffffffffffffffffffffffffffffffffffff168152602001908152602001600020600001805462000eaf90620038cd565b905011801562000f4e5750600073ffffffffffffffffffffffffffffffffffffffff16600260003373ffffffffffffffffffffffffffffffffffffffff1673ffffffffffffffffffffffffffffffffffffffff16815260200190815260200160002060030160009054906101000a900473ffffffffffffffffffffffffffffffffffffffff1673ffffffffffffffffffffffffffffffffffffffff1614155b801562000fab57506000600260003373ffffffffffffffffffffffffffffffffffffffff1673ffffffffffffffffffffffffffffffffffffffff168152602001908152602001600020600401805462000fa790620038cd565b9050115b62000fb557600080fd5b60008363ffffffff161162000fc957600080fd5b60008163ffffffff161162000fdd57600080fd5b600082511162000fec57600080fd5b60006040518060c001604052808563ffffffff1681526020018481526020018363ffffffff16815260200160008054906101000a900463ffffffff1663ffffffff1681526020013373ffffffffffffffffffffffffffffffffffffffff1681526020016001600281111562001066576200106562003027565b5b8152509050600460003373ffffffffffffffffffffffffffffffffffffffff1673ffffffffffffffffffffffffffffffffffffffff16815260200190815260200160002081908060018154018082558091505060019003906000526020600020906004020160009091909190915060008201518160000160006101000a81548163ffffffff021916908363ffffffff16021790555060208201518160010190805190602001906200111992919062002db9565b506040820151816002015560608201518160030160006101000a81548163ffffffff021916908363ffffffff16021790555060808201518160030160046101000a81548173ffffffffffffffffffffffffffffffffffffffff021916908373ffffffffffffffffffffffffffffffffffffffff16021790555060a08201518160030160186101000a81548160ff02191690836002811115620011c057620011bf62003027565b5b02179055505050600181908060018154018082558091505060019003906000526020600020906004020160009091909190915060008201518160000160006101000a81548163ffffffff021916908363ffffffff16021790555060208201518160010190805190602001906200123892919062002db9565b506040820151816002015560608201518160030160006101000a81548163ffffffff021916908363ffffffff16021790555060808201518160030160046101000a81548173ffffffffffffffffffffffffffffffffffffffff021916908373ffffffffffffffffffffffffffffffffffffffff16021790555060a08201518160030160186101000a81548160ff02191690836002811115620012df57620012de62003027565b5b0217905550505060016000808282829054906101000a900463ffffffff16620013099190620039e9565b92506101000a81548163ffffffff021916908363ffffffff16021790555050505050565b600080600260003373ffffffffffffffffffffffffffffffffffffffff1673ffffffffffffffffffffffffffffffffffffffff16815260200190815260200160002060000180546200137f90620038cd565b90501180156200141e5750600073ffffffffffffffffffffffffffffffffffffffff16600260003373ffffffffffffffffffffffffffffffffffffffff1673ffffffffffffffffffffffffffffffffffffffff16815260200190815260200160002060030160009054906101000a900473ffffffffffffffffffffffffffffffffffffffff1673ffffffffffffffffffffffffffffffffffffffff1614155b80156200147b57506000600260003373ffffffffffffffffffffffffffffffffffffffff1673ffffffffffffffffffffffffffffffffffffffff16815260200190815260200160002060040180546200147790620038cd565b9050115b6200148557600080fd5b6000620014916200246a565b9050805191505090565b620014a562002e4a565b620014b0826200239e565b6040518060c00160405290816000820160009054906101000a900463ffffffff1663ffffffff1663ffffffff168152602001600182018054620014f390620038cd565b80601f01602080910402602001604051908101604052809291908181526020018280546200152190620038cd565b8015620015725780601f10620015465761010080835404028352916020019162001572565b820191906000526020600020905b8154815290600101906020018083116200155457829003601f168201915b50505050508152602001600282015481526020016003820160009054906101000a900463ffffffff1663ffffffff1663ffffffff1681526020016003820160049054906101000a900473ffffffffffffffffffffffffffffffffffffffff1673ffffffffffffffffffffffffffffffffffffffff1673ffffffffffffffffffffffffffffffffffffffff1681526020016003820160189054906101000a900460ff16600281111562001629576200162862003027565b5b60028111156200163e576200163d62003027565b5b815250509050919050565b6000600260003373ffffffffffffffffffffffffffffffffffffffff1673ffffffffffffffffffffffffffffffffffffffff16815260200190815260200160002060000180546200169a90620038cd565b905014620016a757600080fd5b6000600260003373ffffffffffffffffffffffffffffffffffffffff1673ffffffffffffffffffffffffffffffffffffffff1681526020019081526020016000206004018054620016f890620038cd565b9050146200170557600080fd5b600073ffffffffffffffffffffffffffffffffffffffff16600260003373ffffffffffffffffffffffffffffffffffffffff1673ffffffffffffffffffffffffffffffffffffffff16815260200190815260200160002060030160009054906101000a900473ffffffffffffffffffffffffffffffffffffffff1673ffffffffffffffffffffffffffffffffffffffff1614620017a157600080fd5b60006040518060a0016040528084815260200160008152602001600081526020013373ffffffffffffffffffffffffffffffffffffffff16815260200183815250905080600260003373ffffffffffffffffffffffffffffffffffffffff1673ffffffffffffffffffffffffffffffffffffffff16815260200190815260200160002060008201518160000190805190602001906200184292919062002db9565b50602082015181600101556040820151816002015560608201518160030160006101000a81548173ffffffffffffffffffffffffffffffffffffffff021916908373ffffffffffffffffffffffffffffffffffffffff1602179055506080820151816004019080519060200190620018bc92919062002db9565b509050507ff1a7d83728a3b9e98b78339e6bb93974d080b9c65813f14b34e2fbf3c14823fd600260003373ffffffffffffffffffffffffffffffffffffffff1673ffffffffffffffffffffffffffffffffffffffff168152602001908152602001600020600001600260003373ffffffffffffffffffffffffffffffffffffffff1673ffffffffffffffffffffffffffffffffffffffff168152602001908152602001600020600401600260003373ffffffffffffffffffffffffffffffffffffffff1673ffffffffffffffffffffffffffffffffffffffff16815260200190815260200160002060030160009054906101000a900473ffffffffffffffffffffffffffffffffffffffff16604051620019d99392919062003adc565b60405180910390a1505050565b6060620019f4600162001eca565b905090565b62001a0362002e4a565b6000600260003373ffffffffffffffffffffffffffffffffffffffff1673ffffffffffffffffffffffffffffffffffffffff168152602001908152602001600020600001805462001a5490620038cd565b905011801562001af35750600073ffffffffffffffffffffffffffffffffffffffff16600260003373ffffffffffffffffffffffffffffffffffffffff1673ffffffffffffffffffffffffffffffffffffffff16815260200190815260200160002060030160009054906101000a900473ffffffffffffffffffffffffffffffffffffffff1673ffffffffffffffffffffffffffffffffffffffff1614155b801562001b5057506000600260003373ffffffffffffffffffffffffffffffffffffffff1673ffffffffffffffffffffffffffffffffffffffff168152602001908152602001600020600401805462001b4c90620038cd565b9050115b62001b5a57600080fd5b919050565b62001b6962002d74565b6000600260003373ffffffffffffffffffffffffffffffffffffffff1673ffffffffffffffffffffffffffffffffffffffff1681526020019081526020016000206040518060a001604052908160008201805462001bc790620038cd565b80601f016020809104026020016040519081016040528092919081815260200182805462001bf590620038cd565b801562001c465780601f1062001c1a5761010080835404028352916020019162001c46565b820191906000526020600020905b81548152906001019060200180831162001c2857829003601f168201915b5050505050815260200160018201548152602001600282015481526020016003820160009054906101000a900473ffffffffffffffffffffffffffffffffffffffff1673ffffffffffffffffffffffffffffffffffffffff1673ffffffffffffffffffffffffffffffffffffffff16815260200160048201805462001ccb90620038cd565b80601f016020809104026020016040519081016040528092919081815260200182805462001cf990620038cd565b801562001d4a5780601f1062001d1e5761010080835404028352916020019162001d4a565b820191906000526020600020905b81548152906001019060200180831162001d2c57829003601f168201915b50505050508152505090508091505090565b600080600260003373ffffffffffffffffffffffffffffffffffffffff1673ffffffffffffffffffffffffffffffffffffffff168152602001908152602001600020600001805462001dae90620038cd565b905011801562001e4d5750600073ffffffffffffffffffffffffffffffffffffffff16600260003373ffffffffffffffffffffffffffffffffffffffff1673ffffffffffffffffffffffffffffffffffffffff16815260200190815260200160002060030160009054906101000a900473ffffffffffffffffffffffffffffffffffffffff1673ffffffffffffffffffffffffffffffffffffffff1614155b801562001eaa57506000600260003373ffffffffffffffffffffffffffffffffffffffff1673ffffffffffffffffffffffffffffffffffffffff168152602001908152602001600020600401805462001ea690620038cd565b9050115b62001eb457600080fd5b600062001ec0620028e8565b9050805191505090565b60606000805b600180549050811015620020f75760006001828154811062001ef75762001ef662003b27565b5b90600052602060002090600402016040518060c00160405290816000820160009054906101000a900463ffffffff1663ffffffff1663ffffffff16815260200160018201805462001f4890620038cd565b80601f016020809104026020016040519081016040528092919081815260200182805462001f7690620038cd565b801562001fc75780601f1062001f9b5761010080835404028352916020019162001fc7565b820191906000526020600020905b81548152906001019060200180831162001fa957829003601f168201915b50505050508152602001600282015481526020016003820160009054906101000a900463ffffffff1663ffffffff1663ffffffff1681526020016003820160049054906101000a900473ffffffffffffffffffffffffffffffffffffffff1673ffffffffffffffffffffffffffffffffffffffff1673ffffffffffffffffffffffffffffffffffffffff1681526020016003820160189054906101000a900460ff1660028111156200207e576200207d62003027565b5b600281111562002093576200209262003027565b5b815250509050846002811115620020af57620020ae62003027565b5b8160a001516002811115620020c957620020c862003027565b5b03620020e0578280620020dc9062003b56565b9350505b508080620020ee9062003b56565b91505062001ed0565b5060008167ffffffffffffffff8111156200211757620021166200350d565b5b6040519080825280602002602001820160405280156200215457816020015b6200214062002e4a565b815260200190600190039081620021365790505b50905060005b600180549050811015620023935760006001828154811062002181576200218062003b27565b5b90600052602060002090600402016040518060c00160405290816000820160009054906101000a900463ffffffff1663ffffffff1663ffffffff168152602001600182018054620021d290620038cd565b80601f01602080910402602001604051908101604052809291908181526020018280546200220090620038cd565b8015620022515780601f10620022255761010080835404028352916020019162002251565b820191906000526020600020905b8154815290600101906020018083116200223357829003601f168201915b50505050508152602001600282015481526020016003820160009054906101000a900463ffffffff1663ffffffff1663ffffffff1681526020016003820160049054906101000a900473ffffffffffffffffffffffffffffffffffffffff1673ffffffffffffffffffffffffffffffffffffffff1673ffffffffffffffffffffffffffffffffffffffff1681526020016003820160189054906101000a900460ff16600281111562002308576200230762003027565b5b60028111156200231d576200231c62003027565b5b81525050905085600281111562002339576200233862003027565b5b8160a00151600281111562002353576200235262003027565b5b036200237c578083838151811062002370576200236f62003b27565b5b60200260200101819052505b5080806200238a9062003b56565b9150506200215a565b508092505050919050565b600080600090505b6001805490508110156200242757600060018281548110620023cd57620023cc62003b27565b5b906000526020600020906004020190508363ffffffff168160030160009054906101000a900463ffffffff1663ffffffff16036200241057809250505062002465565b5080806200241e9062003b56565b915050620023a6565b506040517f08c379a00000000000000000000000000000000000000000000000000000000081526004016200245c9062003bf3565b60405180910390fd5b919050565b60606000600260003373ffffffffffffffffffffffffffffffffffffffff1673ffffffffffffffffffffffffffffffffffffffff1681526020019081526020016000206000018054620024bd90620038cd565b90501180156200255c5750600073ffffffffffffffffffffffffffffffffffffffff16600260003373ffffffffffffffffffffffffffffffffffffffff1673ffffffffffffffffffffffffffffffffffffffff16815260200190815260200160002060030160009054906101000a900473ffffffffffffffffffffffffffffffffffffffff1673ffffffffffffffffffffffffffffffffffffffff1614155b8015620025b957506000600260003373ffffffffffffffffffffffffffffffffffffffff1673ffffffffffffffffffffffffffffffffffffffff1681526020019081526020016000206004018054620025b590620038cd565b9050115b620025c357600080fd5b6000600360003373ffffffffffffffffffffffffffffffffffffffff1673ffffffffffffffffffffffffffffffffffffffff16815260200190815260200160002090506000805b8280549050811015620027295760008382815481106200262f576200262e62003b27565b5b9060005260206000200160009054906101000a900473ffffffffffffffffffffffffffffffffffffffff1690508073ffffffffffffffffffffffffffffffffffffffff166308551a536040518163ffffffff1660e01b8152600401602060405180830381865afa158015620026a8573d6000803e3d6000fd5b505050506040513d601f19601f82011682018060405250810190620026ce919062003c5a565b73ffffffffffffffffffffffffffffffffffffffff163373ffffffffffffffffffffffffffffffffffffffff1603620027125782806200270e9062003b56565b9350505b508080620027209062003b56565b9150506200260a565b5060008167ffffffffffffffff8111156200274957620027486200350d565b5b604051908082528060200260200182016040528015620027785781602001602082028036833780820191505090505b50905060005b8380549050811015620028de576000848281548110620027a357620027a262003b27565b5b9060005260206000200160009054906101000a900473ffffffffffffffffffffffffffffffffffffffff1690508073ffffffffffffffffffffffffffffffffffffffff166308551a536040518163ffffffff1660e01b8152600401602060405180830381865afa1580156200281c573d6000803e3d6000fd5b505050506040513d601f19601f8201168201806040525081019062002842919062003c5a565b73ffffffffffffffffffffffffffffffffffffffff163373ffffffffffffffffffffffffffffffffffffffff1603620028c757808383815181106200288c576200288b62003b27565b5b602002602001019073ffffffffffffffffffffffffffffffffffffffff16908173ffffffffffffffffffffffffffffffffffffffff16815250505b508080620028d59062003b56565b9150506200277e565b5080935050505090565b60606000600260003373ffffffffffffffffffffffffffffffffffffffff1673ffffffffffffffffffffffffffffffffffffffff16815260200190815260200160002060000180546200293b90620038cd565b9050118015620029da5750600073ffffffffffffffffffffffffffffffffffffffff16600260003373ffffffffffffffffffffffffffffffffffffffff1673ffffffffffffffffffffffffffffffffffffffff16815260200190815260200160002060030160009054906101000a900473ffffffffffffffffffffffffffffffffffffffff1673ffffffffffffffffffffffffffffffffffffffff1614155b801562002a3757506000600260003373ffffffffffffffffffffffffffffffffffffffff1673ffffffffffffffffffffffffffffffffffffffff168152602001908152602001600020600401805462002a3390620038cd565b9050115b62002a4157600080fd5b6000600360003373ffffffffffffffffffffffffffffffffffffffff1673ffffffffffffffffffffffffffffffffffffffff16815260200190815260200160002090506000805b828054905081101562002ba757600083828154811062002aad5762002aac62003b27565b5b9060005260206000200160009054906101000a900473ffffffffffffffffffffffffffffffffffffffff1690508073ffffffffffffffffffffffffffffffffffffffff16637150d8ae6040518163ffffffff1660e01b8152600401602060405180830381865afa15801562002b26573d6000803e3d6000fd5b505050506040513d601f19601f8201168201806040525081019062002b4c919062003c5a565b73ffffffffffffffffffffffffffffffffffffffff163373ffffffffffffffffffffffffffffffffffffffff160362002b9057828062002b8c9062003b56565b9350505b50808062002b9e9062003b56565b91505062002a88565b5060008167ffffffffffffffff81111562002bc75762002bc66200350d565b5b60405190808252806020026020018201604052801562002bf65781602001602082028036833780820191505090505b50905060005b838054905081101562002d5c57600084828154811062002c215762002c2062003b27565b5b9060005260206000200160009054906101000a900473ffffffffffffffffffffffffffffffffffffffff1690508073ffffffffffffffffffffffffffffffffffffffff16637150d8ae6040518163ffffffff1660e01b8152600401602060405180830381865afa15801562002c9a573d6000803e3d6000fd5b505050506040513d601f19601f8201168201806040525081019062002cc0919062003c5a565b73ffffffffffffffffffffffffffffffffffffffff163373ffffffffffffffffffffffffffffffffffffffff160362002d45578083838151811062002d0a5762002d0962003b27565b5b602002602001019073ffffffffffffffffffffffffffffffffffffffff16908173ffffffffffffffffffffffffffffffffffffffff16815250505b50808062002d539062003b56565b91505062002bfc565b5080935050505090565b610ec18062003c8d83390190565b6040518060a00160405280606081526020016000815260200160008152602001600073ffffffffffffffffffffffffffffffffffffffff168152602001606081525090565b82805462002dc790620038cd565b90600052602060002090601f01602090048101928262002deb576000855562002e37565b82601f1062002e0657805160ff191683800117855562002e37565b8280016001018555821562002e37579182015b8281111562002e3657825182559160200191906001019062002e19565b5b50905062002e46919062002eb7565b5090565b6040518060c00160405280600063ffffffff1681526020016060815260200160008152602001600063ffffffff168152602001600073ffffffffffffffffffffffffffffffffffffffff1681526020016000600281111562002eb15762002eb062003027565b5b81525090565b5b8082111562002ed257600081600090555060010162002eb8565b5090565b600081519050919050565b600082825260208201905092915050565b6000819050602082019050919050565b600063ffffffff82169050919050565b62002f1d8162002f02565b82525050565b600081519050919050565b600082825260208201905092915050565b60005b8381101562002f5f57808201518184015260208101905062002f42565b8381111562002f6f576000848401525b50505050565b6000601f19601f8301169050919050565b600062002f938262002f23565b62002f9f818562002f2e565b935062002fb181856020860162002f3f565b62002fbc8162002f75565b840191505092915050565b6000819050919050565b62002fdc8162002fc7565b82525050565b600073ffffffffffffffffffffffffffffffffffffffff82169050919050565b60006200300f8262002fe2565b9050919050565b620030218162003002565b82525050565b7f4e487b7100000000000000000000000000000000000000000000000000000000600052602160045260246000fd5b600381106200306a576200306962003027565b5b50565b60008190506200307d8262003056565b919050565b60006200308f826200306d565b9050919050565b620030a18162003082565b82525050565b600060c083016000830151620030c1600086018262002f12565b5060208301518482036020860152620030db828262002f86565b9150506040830151620030f2604086018262002fd1565b50606083015162003107606086018262002f12565b5060808301516200311c608086018262003016565b5060a08301516200313160a086018262003096565b508091505092915050565b60006200314a8383620030a7565b905092915050565b6000602082019050919050565b60006200316c8262002ed6565b62003178818562002ee1565b9350836020820285016200318c8562002ef2565b8060005b85811015620031ce5784840389528151620031ac85826200313c565b9450620031b98362003152565b925060208a0199505060018101905062003190565b50829750879550505050505092915050565b60006020820190508181036000830152620031fc81846200315f565b905092915050565b6000604051905090565b600080fd5b600080fd5b620032238162002f02565b81146200322f57600080fd5b50565b600081359050620032438162003218565b92915050565b6000602082840312156200326257620032616200320e565b5b6000620032728482850162003232565b91505092915050565b620032868162003082565b82525050565b6000602082019050620032a360008301846200327b565b92915050565b620032b48162003002565b8114620032c057600080fd5b50565b600081359050620032d481620032a9565b92915050565b600060208284031215620032f357620032f26200320e565b5b60006200330384828501620032c3565b91505092915050565b600060a08301600083015184820360008601526200332b828262002f86565b915050602083015162003342602086018262002fd1565b50604083015162003357604086018262002fd1565b5060608301516200336c606086018262003016565b506080830151848203608086015262003386828262002f86565b9150508091505092915050565b60006020820190508181036000830152620033af81846200330c565b905092915050565b600081519050919050565b600082825260208201905092915050565b6000819050602082019050919050565b6000819050919050565b60006200340e62003408620034028462002fe2565b620033e3565b62002fe2565b9050919050565b60006200342282620033ed565b9050919050565b6000620034368262003415565b9050919050565b620034488162003429565b82525050565b60006200345c83836200343d565b60208301905092915050565b6000602082019050919050565b60006200348282620033b7565b6200348e8185620033c2565b93506200349b83620033d3565b8060005b83811015620034d2578151620034b688826200344e565b9750620034c38362003468565b9250506001810190506200349f565b5085935050505092915050565b60006020820190508181036000830152620034fb818462003475565b905092915050565b600080fd5b600080fd5b7f4e487b7100000000000000000000000000000000000000000000000000000000600052604160045260246000fd5b620035478262002f75565b810181811067ffffffffffffffff821117156200356957620035686200350d565b5b80604052505050565b60006200357e62003204565b90506200358c82826200353c565b919050565b600067ffffffffffffffff821115620035af57620035ae6200350d565b5b620035ba8262002f75565b9050602081019050919050565b82818337600083830152505050565b6000620035ed620035e78462003591565b62003572565b9050828152602081018484840111156200360c576200360b62003508565b5b62003619848285620035c7565b509392505050565b600082601f83011262003639576200363862003503565b5b81356200364b848260208601620035d6565b91505092915050565b60008060006060848603121562003670576200366f6200320e565b5b6000620036808682870162003232565b935050602084013567ffffffffffffffff811115620036a457620036a362003213565b5b620036b28682870162003621565b9250506040620036c58682870162003232565b9150509250925092565b620036da8162002fc7565b82525050565b6000602082019050620036f76000830184620036cf565b92915050565b600060c08301600083015162003717600086018262002f12565b506020830151848203602086015262003731828262002f86565b915050604083015162003748604086018262002fd1565b5060608301516200375d606086018262002f12565b50608083015162003772608086018262003016565b5060a08301516200378760a086018262003096565b508091505092915050565b60006020820190508181036000830152620037ae8184620036fd565b905092915050565b60008060408385031215620037d057620037cf6200320e565b5b600083013567ffffffffffffffff811115620037f157620037f062003213565b5b620037ff8582860162003621565b925050602083013567ffffffffffffffff81111562003823576200382262003213565b5b620038318582860162003621565b9150509250929050565b620038468162002fc7565b81146200385257600080fd5b50565b60008135905062003866816200383b565b92915050565b6000602082840312156200388557620038846200320e565b5b6000620038958482850162003855565b91505092915050565b7f4e487b7100000000000000000000000000000000000000000000000000000000600052602260045260246000fd5b60006002820490506001821680620038e657607f821691505b602082108103620038fc57620038fb6200389e565b5b50919050565b6200390d8162002f02565b82525050565b6000620039346200392e620039288462002f02565b620033e3565b62002fc7565b9050919050565b620039468162003913565b82525050565b620039578162003002565b82525050565b600060a08201905062003974600083018862003902565b620039836020830187620036cf565b6200399260408301866200393b565b620039a160608301856200394c565b620039b060808301846200394c565b9695505050505050565b7f4e487b7100000000000000000000000000000000000000000000000000000000600052601160045260246000fd5b6000620039f68262002f02565b915062003a038362002f02565b92508263ffffffff0382111562003a1f5762003a1e620039ba565b5b828201905092915050565b600082825260208201905092915050565b60008190508160005260206000209050919050565b6000815462003a5f81620038cd565b62003a6b818662003a2a565b9450600182166000811462003a89576001811462003a9c5762003ad3565b60ff198316865260208601935062003ad3565b62003aa78562003a3b565b60005b8381101562003acb5781548189015260018201915060208101905062003aaa565b808801955050505b50505092915050565b6000606082019050818103600083015262003af8818662003a50565b9050818103602083015262003b0e818562003a50565b905062003b1f60408301846200394c565b949350505050565b7f4e487b7100000000000000000000000000000000000000000000000000000000600052603260045260246000fd5b600062003b638262002fc7565b91507fffffffffffffffffffffffffffffffffffffffffffffffffffffffffffffffff820362003b985762003b97620039ba565b5b600182019050919050565b7f4974656d206e6f7420666f756e64000000000000000000000000000000000000600082015250565b600062003bdb600e8362003a2a565b915062003be88262003ba3565b602082019050919050565b6000602082019050818103600083015262003c0e8162003bcc565b9050919050565b600062003c228262002fe2565b9050919050565b62003c348162003c15565b811462003c4057600080fd5b50565b60008151905062003c548162003c29565b92915050565b60006020828403121562003c735762003c726200320e565b5b600062003c838482850162003c43565b9150509291505056fe60806040523480156200001157600080fd5b5060405162000ec138038062000ec1833981810160405281019062000037919062000213565b84600160006101000a81548163ffffffff021916908363ffffffff16021790555080600260006101000a81548173ffffffffffffffffffffffffffffffffffffffff021916908373ffffffffffffffffffffffffffffffffffffffff16021790555081600160046101000a81548173ffffffffffffffffffffffffffffffffffffffff021916908373ffffffffffffffffffffffffffffffffffffffff160217905550826002620000e99190620002ca565b841462000122576040517f53d1399200000000000000000000000000000000000000000000000000000000815260040160405180910390fd5b50505050506200032b565b600080fd5b600063ffffffff82169050919050565b6200014d8162000132565b81146200015957600080fd5b50565b6000815190506200016d8162000142565b92915050565b6000819050919050565b620001888162000173565b81146200019457600080fd5b50565b600081519050620001a8816200017d565b92915050565b600073ffffffffffffffffffffffffffffffffffffffff82169050919050565b6000620001db82620001ae565b9050919050565b620001ed81620001ce565b8114620001f957600080fd5b50565b6000815190506200020d81620001e2565b92915050565b600080600080600060a086880312156200023257620002316200012d565b5b600062000242888289016200015c565b9550506020620002558882890162000197565b9450506040620002688882890162000197565b93505060606200027b88828901620001fc565b92505060806200028e88828901620001fc565b9150509295509295909350565b7f4e487b7100000000000000000000000000000000000000000000000000000000600052601160045260246000fd5b6000620002d78262000173565b9150620002e48362000173565b9250817fffffffffffffffffffffffffffffffffffffffffffffffffffffffffffffffff048311821515161562000320576200031f6200029b565b5b828202905092915050565b610b86806200033b6000396000f3fe60806040526004361061009c5760003560e01c80635a43c66e116100645780635a43c66e146101435780637150d8ae1461016e57806373fac6f0146101995780637e2f42e7146101b0578063c19d93fb146101db578063c7981b1b146102065761009c565b806308551a53146100a15780631f7b8884146100cc57806332d414dc146100d657806335a063b4146101015780633fa4f24514610118575b600080fd5b3480156100ad57600080fd5b506100b661021d565b6040516100c391906109ac565b60405180910390f35b6100d4610243565b005b3480156100e257600080fd5b506100eb6103ae565b6040516100f891906109e6565b60405180910390f35b34801561010d57600080fd5b506101166103c8565b005b34801561012457600080fd5b5061012d610580565b60405161013a9190610a1a565b60405180910390f35b34801561014f57600080fd5b50610158610586565b6040516101659190610aac565b60405180910390f35b34801561017a57600080fd5b5061018361059d565b60405161019091906109ac565b60405180910390f35b3480156101a557600080fd5b506101ae6105c3565b005b3480156101bc57600080fd5b506101c561077c565b6040516101d291906109e6565b60405180910390f35b3480156101e757600080fd5b506101f0610792565b6040516101fd9190610aac565b60405180910390f35b34801561021257600080fd5b5061021b6107a5565b005b600160049054906101000a900473ffffffffffffffffffffffffffffffffffffffff1681565b600080600381111561025857610257610a35565b5b600260149054906101000a900460ff16600381111561027a57610279610a35565b5b146102b1576040517fbaf3f0f700000000000000000000000000000000000000000000000000000000815260040160405180910390fd5b600160049054906101000a900473ffffffffffffffffffffffffffffffffffffffff1673ffffffffffffffffffffffffffffffffffffffff163373ffffffffffffffffffffffffffffffffffffffff1614610338576040517f85d1f72600000000000000000000000000000000000000000000000000000000815260040160405180910390fd5b60005460026103479190610af6565b34148061035357600080fd5b7fd38d6799315b613e5721313e07e327b0e8a305fcc442174a6c3bb26fb6463fb660405160405180910390a16001600260146101000a81548160ff021916908360038111156103a5576103a4610a35565b5b02179055505050565b6000600160009054906101000a900463ffffffff16905090565b600260009054906101000a900473ffffffffffffffffffffffffffffffffffffffff1673ffffffffffffffffffffffffffffffffffffffff163373ffffffffffffffffffffffffffffffffffffffff161461044f576040517f86efbb5500000000000000000000000000000000000000000000000000000000815260040160405180910390fd5b600080600381111561046457610463610a35565b5b600260149054906101000a900460ff16600381111561048657610485610a35565b5b146104bd576040517fbaf3f0f700000000000000000000000000000000000000000000000000000000815260040160405180910390fd5b7f72c874aeff0b183a56e2b79c71b46e1aed4dee5e09862134b8821ba2fddbf8bf60405160405180910390a16003600260146101000a81548160ff0219169083600381111561050f5761050e610a35565b5b0217905550600260009054906101000a900473ffffffffffffffffffffffffffffffffffffffff1673ffffffffffffffffffffffffffffffffffffffff166108fc479081150290604051600060405180830381858888f1935050505015801561057c573d6000803e3d6000fd5b5050565b60005481565b6000600260149054906101000a900460ff16905090565b600260009054906101000a900473ffffffffffffffffffffffffffffffffffffffff1681565b600260009054906101000a900473ffffffffffffffffffffffffffffffffffffffff1673ffffffffffffffffffffffffffffffffffffffff163373ffffffffffffffffffffffffffffffffffffffff161461064a576040517f86efbb5500000000000000000000000000000000000000000000000000000000815260040160405180910390fd5b600180600381111561065f5761065e610a35565b5b600260149054906101000a900460ff16600381111561068157610680610a35565b5b146106b8576040517fbaf3f0f700000000000000000000000000000000000000000000000000000000815260040160405180910390fd5b7fe89152acd703c9d8c7d28829d443260b411454d45394e7995815140c8cbcbcf760405160405180910390a160028060146101000a81548160ff0219169083600381111561070957610708610a35565b5b0217905550600260009054906101000a900473ffffffffffffffffffffffffffffffffffffffff1673ffffffffffffffffffffffffffffffffffffffff166108fc6000549081150290604051600060405180830381858888f19350505050158015610778573d6000803e3d6000fd5b5050565b600160009054906101000a900463ffffffff1681565b600260149054906101000a900460ff1681565b600160049054906101000a900473ffffffffffffffffffffffffffffffffffffffff1673ffffffffffffffffffffffffffffffffffffffff163373ffffffffffffffffffffffffffffffffffffffff161461082c576040517f85d1f72600000000000000000000000000000000000000000000000000000000815260040160405180910390fd5b600280600381111561084157610840610a35565b5b600260149054906101000a900460ff16600381111561086357610862610a35565b5b1461089a576040517fbaf3f0f700000000000000000000000000000000000000000000000000000000815260040160405180910390fd5b7ffda69c32bcfdba840a167777906b173b607eb8b4d8853b97a80d26e613d858db60405160405180910390a16003600260146101000a81548160ff021916908360038111156108ec576108eb610a35565b5b0217905550600160049054906101000a900473ffffffffffffffffffffffffffffffffffffffff1673ffffffffffffffffffffffffffffffffffffffff166108fc600054600361093c9190610af6565b9081150290604051600060405180830381858888f19350505050158015610967573d6000803e3d6000fd5b5050565b600073ffffffffffffffffffffffffffffffffffffffff82169050919050565b60006109968261096b565b9050919050565b6109a68161098b565b82525050565b60006020820190506109c1600083018461099d565b92915050565b600063ffffffff82169050919050565b6109e0816109c7565b82525050565b60006020820190506109fb60008301846109d7565b92915050565b6000819050919050565b610a1481610a01565b82525050565b6000602082019050610a2f6000830184610a0b565b92915050565b7f4e487b7100000000000000000000000000000000000000000000000000000000600052602160045260246000fd5b60048110610a7557610a74610a35565b5b50565b6000819050610a8682610a64565b919050565b6000610a9682610a78565b9050919050565b610aa681610a8b565b82525050565b6000602082019050610ac16000830184610a9d565b92915050565b7f4e487b7100000000000000000000000000000000000000000000000000000000600052601160045260246000fd5b6000610b0182610a01565b9150610b0c83610a01565b9250817fffffffffffffffffffffffffffffffffffffffffffffffffffffffffffffffff0483118215151615610b4557610b44610ac7565b5b82820290509291505056fea2646970667358221220cd57eb56e71dabe3f799154ec20f3a76c7b32dff3b7fd7e751e77a5621f3eff264736f6c634300080d0033a26469706673582212204bd40859a4e6580d06b9242b7fd09e4abea9f2a35e73d9f1cb47836700a39a9464736f6c634300080d0033",
  "immutableReferences": {},
  "source": "// SPDX-License-Identifier: GPL-3.0\npragma solidity >=0.7.0 <0.9.0;\nimport {Transaction} from \"./Transaction.sol\";\n\ncontract Dbay {\n    uint32 goodId = 0;\n\n    enum State { Unlisted, Listed, Sold } // Complete State means funds have been unlocked and the transaction successful\n    State public GoodState;\n\n    struct Good {\n        uint32 price;\n        string name;\n        uint quantity;\n        uint32 id; // aka the listing id, which is unique even if the same good is listed more than once\n        address owner;\n        State state;\n    }\n\n    struct User {\n        string username;\n        uint buyerRep;\n        uint sellerRep;\n        address wallet;\n        string shippingAddr;\n    }\n\n    event NewUser(string username, string shippingAddr, address wallet);\n    event PurchaseCount(uint count);\n    event SoldCount(uint count);\n\n    Good[] private Store; // contains all goods\n    mapping(address => User) private Users;\n    mapping(address => Transaction[]) private Transactions; // <user address, list of purchases>\n    mapping(address => Good[]) private Goods;// <user address, list of Owned by user>\n\n    function getItemsByState(State _state) internal view returns(Good[] memory){\n        uint listingCounter = 0;\n        for (uint i=0;i<Store.length;i++)\n        {\n            Good memory good = Store[i];\n            if (good.state == _state){\n                listingCounter++;\n            }\n        }\n        Good[] memory Listings = new Good[](listingCounter);\n        for (uint i=0;i<Store.length;i++){\n            Good memory good = Store[i];\n            if (good.state == _state){\n                Listings[i] = good;\n            }            \n        }\n        return Listings;\n    }\n\n    function getListedItems() external view returns(Good[] memory){\n        return getItemsByState(State.Listed);\n    }\n\n    function getSoldItems() external view returns(Good[] memory){\n        return getItemsByState(State.Sold);\n    }\n\n    function getUser(address addr) public view returns(User memory){\n        return Users[addr];\n    }\n\n    function createProfile(string memory username, string memory shippingAddr) external{\n        require(bytes(Users[msg.sender].username).length == 0);\n        require(bytes(Users[msg.sender].shippingAddr).length == 0);\n        require(Users[msg.sender].wallet == address(0));\n        \n        User memory user = User(username, 0, 0, msg.sender, shippingAddr);\n        Users[msg.sender] = user;\n        emit NewUser(Users[msg.sender].username, Users[msg.sender].shippingAddr, Users[msg.sender].wallet);\n    }\n\n    function getAccount() external view returns (User memory user) {\n        User memory existUser = Users[msg.sender];\n        return existUser;\n    }\n\n    modifier isUser(){\n        require(bytes(Users[msg.sender].username).length > 0 && Users[msg.sender].wallet != address(0) && bytes(Users[msg.sender].shippingAddr).length > 0);\n        _;\n    }\n\n    function buyItem(uint32 _goodId) external payable isUser{\n        Good storage good = findGoodByIdInternal(_goodId);\n        good.state = State.Sold;\n        Transaction transaction = new Transaction(_goodId, msg.value, good.price, good.owner, msg.sender);\n        Transactions[good.owner].push(transaction);\n        Transactions[msg.sender].push(transaction);\n    }\n\n    function getTransactions(address addr) internal view returns(Transaction[] memory){\n        return Transactions[addr];\n    }\n\n    function getItemById(uint id) external view isUser returns (Good memory good) {\n        \n    }\n\n    // Get items the user sold and bought\n    function getAllItems() internal view isUser returns (Transaction[] memory r) {\n        return Transactions[msg.sender];\n    }\n    \n    // returns the list of transactions where the user is the buyer\n    function getPurchases() internal view isUser returns (Transaction[] memory) {\n        Transaction[] storage TransactionArr = Transactions[msg.sender];\n        uint purchaseCount = 0;\n        for (uint i=0;i<TransactionArr.length;i++){\n            Transaction curPurchase = TransactionArr[i];\n            if (msg.sender == curPurchase.buyer()){\n                purchaseCount++;\n            }\n        }\n        Transaction[] memory purchases = new Transaction[](purchaseCount);\n        for (uint i=0;i<TransactionArr.length;i++){\n            Transaction curPurchase = TransactionArr[i];\n            if (msg.sender == curPurchase.buyer()){\n                purchases[i] = curPurchase;\n            }\n        }\n        return purchases;\n    }\n\n    function getPurchasesLength() external view isUser returns (uint) {\n        Transaction[] memory PurchaseArr = getPurchases();\n        return PurchaseArr.length;\n    }\n\n    // returns a list of transactions where the user is the selelr\n    function getSold() internal view isUser returns (Transaction[] memory) {\n        Transaction[] storage TransactionArr = Transactions[msg.sender];\n\n        uint soldCount = 0;\n        for (uint i=0;i<TransactionArr.length;i++){\n            Transaction curPurchase = TransactionArr[i];\n            if (msg.sender == curPurchase.seller()){\n                soldCount++;\n            }\n        }\n        Transaction[] memory sold = new Transaction[](soldCount);\n        for (uint i=0;i<TransactionArr.length;i++){\n            Transaction curPurchase = TransactionArr[i];\n            if (msg.sender == curPurchase.seller()){\n                sold[i] = curPurchase;\n            }\n        }\n        return sold;\n    }    \n\n    function getSoldLength() external view isUser returns (uint) {\n        Transaction[] memory SoldArr = getSold();\n        return SoldArr.length;\n    }\n\n    function getSoldArr() external view isUser returns (Transaction[] memory) {\n        Transaction[] memory SoldArr = getSold();\n        return SoldArr;\n    }    \n\n    // called internally to modify the Good object\n    function findGoodByIdInternal(uint32 _goodId) internal view returns (Good storage) {\n        for (uint i=0;i<Store.length;i++){\n            Good storage good = Store[i];\n            if (good.id == _goodId)\n            {\n                return good;\n            }\n        }\n        revert(\"Item not found\");\n    }\n\n    function findGoodById(uint32 _goodId) public view returns (Good memory) {\n        return findGoodByIdInternal(_goodId);\n    }    \n\n    // does not cost an Gas because is external view\n    function getOwnItems() external view isUser returns (Good[] memory) {\n        return Goods[msg.sender];\n    }\n\n    function listItem(uint32 price, string memory name, uint32 quantity) public isUser {\n        require(price > 0);\n        require(quantity > 0);\n        require(bytes(name).length > 0);\n\n        Good memory good = Good(price, name, quantity, goodId, msg.sender, State.Listed);\n        Goods[msg.sender].push(good);\n        Store.push(good);\n        goodId += 1;\n    }\n\n    function accept() payable public {}\n}",
  "sourcePath": "/Users/edwardcox/crypto/dbay/contracts/Dbay.sol",
  "compiler": {
    "name": "solc",
    "version": "0.8.13+commit.abaa5c0e.Emscripten.clang"
  },
  "schemaVersion": "3.4.7",
  "updatedAt": "2022-06-12T05:46:04.667Z",
  "networkType": "ethereum",
  "devdoc": {
    "kind": "dev",
    "methods": {},
    "version": 1
  },
  "userdoc": {
    "kind": "user",
    "methods": {},
    "version": 1
  }
}