{
  "contractName": "Dbay",
  "abi": [
    {
      "anonymous": false,
      "inputs": [
        {
          "indexed": false,
          "internalType": "string",
          "name": "username",
          "type": "string"
        },
        {
          "indexed": false,
          "internalType": "string",
          "name": "shippingAddr",
          "type": "string"
        },
        {
          "indexed": false,
          "internalType": "address",
          "name": "wallet",
          "type": "address"
        }
      ],
      "name": "NewUser",
      "type": "event"
    },
    {
      "anonymous": false,
      "inputs": [
        {
          "indexed": false,
          "internalType": "uint256",
          "name": "count",
          "type": "uint256"
        }
      ],
      "name": "PurchaseCount",
      "type": "event"
    },
    {
      "anonymous": false,
      "inputs": [
        {
          "indexed": false,
          "internalType": "uint256",
          "name": "count",
          "type": "uint256"
        }
      ],
      "name": "SoldCount",
      "type": "event"
    },
    {
      "anonymous": false,
      "inputs": [
        {
          "indexed": true,
          "internalType": "address",
          "name": "_from",
          "type": "address"
        },
        {
          "indexed": false,
          "internalType": "string",
          "name": "itemName",
          "type": "string"
        },
        {
          "indexed": false,
          "internalType": "uint32",
          "name": "itemPrice",
          "type": "uint32"
        },
        {
          "indexed": false,
          "internalType": "uint32",
          "name": "itemQuantity",
          "type": "uint32"
        },
        {
          "indexed": false,
          "internalType": "string",
          "name": "sellerName",
          "type": "string"
        },
        {
          "indexed": false,
          "internalType": "uint256",
          "name": "sellerRep",
          "type": "uint256"
        }
      ],
      "name": "UpdateListings",
      "type": "event"
    },
    {
      "inputs": [],
      "name": "GoodState",
      "outputs": [
        {
          "internalType": "enum Dbay.State",
          "name": "",
          "type": "uint8"
        }
      ],
      "stateMutability": "view",
      "type": "function",
      "constant": true
    },
    {
      "inputs": [],
      "name": "getListedItems",
      "outputs": [
        {
          "components": [
            {
              "internalType": "uint32",
              "name": "price",
              "type": "uint32"
            },
            {
              "internalType": "string",
              "name": "name",
              "type": "string"
            },
            {
              "internalType": "uint256",
              "name": "quantity",
              "type": "uint256"
            },
            {
              "internalType": "uint32",
              "name": "id",
              "type": "uint32"
            },
            {
              "internalType": "address",
              "name": "owner",
              "type": "address"
            },
            {
              "internalType": "enum Dbay.State",
              "name": "state",
              "type": "uint8"
            }
          ],
          "internalType": "struct Dbay.Good[]",
          "name": "",
          "type": "tuple[]"
        }
      ],
      "stateMutability": "view",
      "type": "function",
      "constant": true
    },
    {
      "inputs": [],
      "name": "getSoldItems",
      "outputs": [
        {
          "components": [
            {
              "internalType": "uint32",
              "name": "price",
              "type": "uint32"
            },
            {
              "internalType": "string",
              "name": "name",
              "type": "string"
            },
            {
              "internalType": "uint256",
              "name": "quantity",
              "type": "uint256"
            },
            {
              "internalType": "uint32",
              "name": "id",
              "type": "uint32"
            },
            {
              "internalType": "address",
              "name": "owner",
              "type": "address"
            },
            {
              "internalType": "enum Dbay.State",
              "name": "state",
              "type": "uint8"
            }
          ],
          "internalType": "struct Dbay.Good[]",
          "name": "",
          "type": "tuple[]"
        }
      ],
      "stateMutability": "view",
      "type": "function",
      "constant": true
    },
    {
      "inputs": [
        {
          "internalType": "address",
          "name": "addr",
          "type": "address"
        }
      ],
      "name": "getUser",
      "outputs": [
        {
          "components": [
            {
              "internalType": "string",
              "name": "username",
              "type": "string"
            },
            {
              "internalType": "uint256",
              "name": "buyerRep",
              "type": "uint256"
            },
            {
              "internalType": "uint256",
              "name": "sellerRep",
              "type": "uint256"
            },
            {
              "internalType": "address",
              "name": "wallet",
              "type": "address"
            },
            {
              "internalType": "string",
              "name": "shippingAddr",
              "type": "string"
            }
          ],
          "internalType": "struct Dbay.User",
          "name": "",
          "type": "tuple"
        }
      ],
      "stateMutability": "view",
      "type": "function",
      "constant": true
    },
    {
      "inputs": [
        {
          "internalType": "string",
          "name": "username",
          "type": "string"
        },
        {
          "internalType": "string",
          "name": "shippingAddr",
          "type": "string"
        }
      ],
      "name": "createProfile",
      "outputs": [],
      "stateMutability": "nonpayable",
      "type": "function"
    },
    {
      "inputs": [],
      "name": "getAccount",
      "outputs": [
        {
          "components": [
            {
              "internalType": "string",
              "name": "username",
              "type": "string"
            },
            {
              "internalType": "uint256",
              "name": "buyerRep",
              "type": "uint256"
            },
            {
              "internalType": "uint256",
              "name": "sellerRep",
              "type": "uint256"
            },
            {
              "internalType": "address",
              "name": "wallet",
              "type": "address"
            },
            {
              "internalType": "string",
              "name": "shippingAddr",
              "type": "string"
            }
          ],
          "internalType": "struct Dbay.User",
          "name": "user",
          "type": "tuple"
        }
      ],
      "stateMutability": "view",
      "type": "function",
      "constant": true
    },
    {
      "inputs": [
        {
          "internalType": "uint32",
          "name": "_goodId",
          "type": "uint32"
        }
      ],
      "name": "buyItem",
      "outputs": [],
      "stateMutability": "payable",
      "type": "function",
      "payable": true
    },
    {
      "inputs": [
        {
          "internalType": "uint256",
          "name": "id",
          "type": "uint256"
        }
      ],
      "name": "getItemById",
      "outputs": [
        {
          "components": [
            {
              "internalType": "uint32",
              "name": "price",
              "type": "uint32"
            },
            {
              "internalType": "string",
              "name": "name",
              "type": "string"
            },
            {
              "internalType": "uint256",
              "name": "quantity",
              "type": "uint256"
            },
            {
              "internalType": "uint32",
              "name": "id",
              "type": "uint32"
            },
            {
              "internalType": "address",
              "name": "owner",
              "type": "address"
            },
            {
              "internalType": "enum Dbay.State",
              "name": "state",
              "type": "uint8"
            }
          ],
          "internalType": "struct Dbay.Good",
          "name": "good",
          "type": "tuple"
        }
      ],
      "stateMutability": "view",
      "type": "function",
      "constant": true
    },
    {
      "inputs": [],
      "name": "getPurchasesLength",
      "outputs": [
        {
          "internalType": "uint256",
          "name": "",
          "type": "uint256"
        }
      ],
      "stateMutability": "view",
      "type": "function",
      "constant": true
    },
    {
      "inputs": [],
      "name": "getSoldLength",
      "outputs": [
        {
          "internalType": "uint256",
          "name": "",
          "type": "uint256"
        }
      ],
      "stateMutability": "view",
      "type": "function",
      "constant": true
    },
    {
      "inputs": [],
      "name": "getSoldArr",
      "outputs": [
        {
          "internalType": "contract Transaction[]",
          "name": "",
          "type": "address[]"
        }
      ],
      "stateMutability": "view",
      "type": "function",
      "constant": true
    },
    {
      "inputs": [
        {
          "internalType": "uint32",
          "name": "_goodId",
          "type": "uint32"
        }
      ],
      "name": "findGoodById",
      "outputs": [
        {
          "components": [
            {
              "internalType": "uint32",
              "name": "price",
              "type": "uint32"
            },
            {
              "internalType": "string",
              "name": "name",
              "type": "string"
            },
            {
              "internalType": "uint256",
              "name": "quantity",
              "type": "uint256"
            },
            {
              "internalType": "uint32",
              "name": "id",
              "type": "uint32"
            },
            {
              "internalType": "address",
              "name": "owner",
              "type": "address"
            },
            {
              "internalType": "enum Dbay.State",
              "name": "state",
              "type": "uint8"
            }
          ],
          "internalType": "struct Dbay.Good",
          "name": "",
          "type": "tuple"
        }
      ],
      "stateMutability": "view",
      "type": "function",
      "constant": true
    },
    {
      "inputs": [],
      "name": "getOwnItems",
      "outputs": [
        {
          "components": [
            {
              "internalType": "uint32",
              "name": "price",
              "type": "uint32"
            },
            {
              "internalType": "string",
              "name": "name",
              "type": "string"
            },
            {
              "internalType": "uint256",
              "name": "quantity",
              "type": "uint256"
            },
            {
              "internalType": "uint32",
              "name": "id",
              "type": "uint32"
            },
            {
              "internalType": "address",
              "name": "owner",
              "type": "address"
            },
            {
              "internalType": "enum Dbay.State",
              "name": "state",
              "type": "uint8"
            }
          ],
          "internalType": "struct Dbay.Good[]",
          "name": "",
          "type": "tuple[]"
        }
      ],
      "stateMutability": "view",
      "type": "function",
      "constant": true
    },
    {
      "inputs": [
        {
          "internalType": "uint32",
          "name": "price",
          "type": "uint32"
        },
        {
          "internalType": "string",
          "name": "name",
          "type": "string"
        },
        {
          "internalType": "uint32",
          "name": "quantity",
          "type": "uint32"
        }
      ],
      "name": "listItem",
      "outputs": [],
      "stateMutability": "nonpayable",
      "type": "function"
    },
    {
      "inputs": [],
      "name": "accept",
      "outputs": [],
      "stateMutability": "payable",
      "type": "function",
      "payable": true
    }
  ],
  "bytecode": "0x608060405260008060006101000a81548163ffffffff021916908363ffffffff16021790555034801561003157600080fd5b50614e7c806100416000396000f3fe608060405260043610620000fe5760003560e01c806384b41be11162000097578063caf506901162000061578063caf506901462000303578063cd2f07101462000333578063db613e811462000377578063ff3c0c9814620003a757620000fe565b806384b41be114620002335780639201578214620002615780639747ea2b1462000291578063ba1feb8a14620002d557620000fe565b806343f9024a11620000d957806343f9024a146200015f5780635fa435d8146200018f5780636f77926b14620001bf57806379986063146200020357620000fe565b806318ad151b1462000103578063212acf9b14620001335780632852b71c1462000153575b600080fd5b3480156200011057600080fd5b506200011b620003d7565b6040516200012a91906200342d565b60405180910390f35b6200015160048036038101906200014b919062003496565b620003ea565b005b6200015d62000766565b005b3480156200016c57600080fd5b506200017762000768565b6040516200018691906200342d565b60405180910390f35b3480156200019c57600080fd5b50620001a762000ae4565b604051620001b69190620034d9565b60405180910390f35b348015620001cc57600080fd5b50620001eb6004803603810190620001e5919062003527565b62000af7565b604051620001fa9190620035e0565b60405180910390f35b3480156200021057600080fd5b506200021b62000cf0565b6040516200022a91906200372c565b60405180910390f35b3480156200024057600080fd5b506200025f6004803603810190620002599190620038a1565b62000e5e565b005b3480156200026e57600080fd5b50620002796200157a565b6040516200028891906200392d565b60405180910390f35b3480156200029e57600080fd5b50620002bd6004803603810190620002b7919062003496565b620016e8565b604051620002cc9190620039df565b60405180910390f35b348015620002e257600080fd5b50620003016004803603810190620002fb919062003a03565b62001896565b005b3480156200031057600080fd5b506200031b62001c33565b6040516200032a91906200342d565b60405180910390f35b3480156200034057600080fd5b506200035f600480360381019062000359919062003ab9565b62001c46565b6040516200036e9190620039df565b60405180910390f35b3480156200038457600080fd5b506200038f62001dac565b6040516200039e9190620035e0565b60405180910390f35b348015620003b457600080fd5b50620003bf62001fa9565b604051620003ce91906200392d565b60405180910390f35b6060620003e5600262002117565b905090565b6000600260003373ffffffffffffffffffffffffffffffffffffffff1673ffffffffffffffffffffffffffffffffffffffff16815260200190815260200160002060000180546200043b9062003b1a565b9050118015620004da5750600073ffffffffffffffffffffffffffffffffffffffff16600260003373ffffffffffffffffffffffffffffffffffffffff1673ffffffffffffffffffffffffffffffffffffffff16815260200190815260200160002060030160009054906101000a900473ffffffffffffffffffffffffffffffffffffffff1673ffffffffffffffffffffffffffffffffffffffff1614155b80156200053757506000600260003373ffffffffffffffffffffffffffffffffffffffff1673ffffffffffffffffffffffffffffffffffffffff1681526020019081526020016000206004018054620005339062003b1a565b9050115b6200054157600080fd5b60006200054e82620025eb565b905060028160030160186101000a81548160ff021916908360028111156200057b576200057a62003274565b5b0217905550600082348360000160009054906101000a900463ffffffff168460030160049054906101000a900473ffffffffffffffffffffffffffffffffffffffff1633604051620005cd9062002fb3565b620005dd95949392919062003baa565b604051809103906000f080158015620005fa573d6000803e3d6000fd5b509050600360008360030160049054906101000a900473ffffffffffffffffffffffffffffffffffffffff1673ffffffffffffffffffffffffffffffffffffffff1673ffffffffffffffffffffffffffffffffffffffff168152602001908152602001600020819080600181540180825580915050600190039060005260206000200160009091909190916101000a81548173ffffffffffffffffffffffffffffffffffffffff021916908373ffffffffffffffffffffffffffffffffffffffff160217905550600360003373ffffffffffffffffffffffffffffffffffffffff1673ffffffffffffffffffffffffffffffffffffffff168152602001908152602001600020819080600181540180825580915050600190039060005260206000200160009091909190916101000a81548173ffffffffffffffffffffffffffffffffffffffff021916908373ffffffffffffffffffffffffffffffffffffffff160217905550505050565b565b60606000600260003373ffffffffffffffffffffffffffffffffffffffff1673ffffffffffffffffffffffffffffffffffffffff1681526020019081526020016000206000018054620007bb9062003b1a565b90501180156200085a5750600073ffffffffffffffffffffffffffffffffffffffff16600260003373ffffffffffffffffffffffffffffffffffffffff1673ffffffffffffffffffffffffffffffffffffffff16815260200190815260200160002060030160009054906101000a900473ffffffffffffffffffffffffffffffffffffffff1673ffffffffffffffffffffffffffffffffffffffff1614155b8015620008b757506000600260003373ffffffffffffffffffffffffffffffffffffffff1673ffffffffffffffffffffffffffffffffffffffff1681526020019081526020016000206004018054620008b39062003b1a565b9050115b620008c157600080fd5b600460003373ffffffffffffffffffffffffffffffffffffffff1673ffffffffffffffffffffffffffffffffffffffff168152602001908152602001600020805480602002602001604051908101604052809291908181526020016000905b8282101562000adb57838290600052602060002090600402016040518060c00160405290816000820160009054906101000a900463ffffffff1663ffffffff1663ffffffff1681526020016001820180546200097c9062003b1a565b80601f0160208091040260200160405190810160405280929190818152602001828054620009aa9062003b1a565b8015620009fb5780601f10620009cf57610100808354040283529160200191620009fb565b820191906000526020600020905b815481529060010190602001808311620009dd57829003601f168201915b50505050508152602001600282015481526020016003820160009054906101000a900463ffffffff1663ffffffff1663ffffffff1681526020016003820160049054906101000a900473ffffffffffffffffffffffffffffffffffffffff1673ffffffffffffffffffffffffffffffffffffffff1673ffffffffffffffffffffffffffffffffffffffff1681526020016003820160189054906101000a900460ff16600281111562000ab25762000ab162003274565b5b600281111562000ac75762000ac662003274565b5b815250508152602001906001019062000920565b50505050905090565b600060049054906101000a900460ff1681565b62000b0162002fc1565b600260008373ffffffffffffffffffffffffffffffffffffffff1673ffffffffffffffffffffffffffffffffffffffff1681526020019081526020016000206040518060a001604052908160008201805462000b5d9062003b1a565b80601f016020809104026020016040519081016040528092919081815260200182805462000b8b9062003b1a565b801562000bdc5780601f1062000bb05761010080835404028352916020019162000bdc565b820191906000526020600020905b81548152906001019060200180831162000bbe57829003601f168201915b5050505050815260200160018201548152602001600282015481526020016003820160009054906101000a900473ffffffffffffffffffffffffffffffffffffffff1673ffffffffffffffffffffffffffffffffffffffff1673ffffffffffffffffffffffffffffffffffffffff16815260200160048201805462000c619062003b1a565b80601f016020809104026020016040519081016040528092919081815260200182805462000c8f9062003b1a565b801562000ce05780601f1062000cb45761010080835404028352916020019162000ce0565b820191906000526020600020905b81548152906001019060200180831162000cc257829003601f168201915b5050505050815250509050919050565b60606000600260003373ffffffffffffffffffffffffffffffffffffffff1673ffffffffffffffffffffffffffffffffffffffff168152602001908152602001600020600001805462000d439062003b1a565b905011801562000de25750600073ffffffffffffffffffffffffffffffffffffffff16600260003373ffffffffffffffffffffffffffffffffffffffff1673ffffffffffffffffffffffffffffffffffffffff16815260200190815260200160002060030160009054906101000a900473ffffffffffffffffffffffffffffffffffffffff1673ffffffffffffffffffffffffffffffffffffffff1614155b801562000e3f57506000600260003373ffffffffffffffffffffffffffffffffffffffff1673ffffffffffffffffffffffffffffffffffffffff168152602001908152602001600020600401805462000e3b9062003b1a565b9050115b62000e4957600080fd5b600062000e55620026b7565b90508091505090565b6000600260003373ffffffffffffffffffffffffffffffffffffffff1673ffffffffffffffffffffffffffffffffffffffff168152602001908152602001600020600001805462000eaf9062003b1a565b905011801562000f4e5750600073ffffffffffffffffffffffffffffffffffffffff16600260003373ffffffffffffffffffffffffffffffffffffffff1673ffffffffffffffffffffffffffffffffffffffff16815260200190815260200160002060030160009054906101000a900473ffffffffffffffffffffffffffffffffffffffff1673ffffffffffffffffffffffffffffffffffffffff1614155b801562000fab57506000600260003373ffffffffffffffffffffffffffffffffffffffff1673ffffffffffffffffffffffffffffffffffffffff168152602001908152602001600020600401805462000fa79062003b1a565b9050115b62000fb557600080fd5b60008363ffffffff161162000fc957600080fd5b60008163ffffffff161162000fdd57600080fd5b600082511162000fec57600080fd5b6000600260003373ffffffffffffffffffffffffffffffffffffffff1673ffffffffffffffffffffffffffffffffffffffff1681526020019081526020016000206040518060a00160405290816000820180546200104a9062003b1a565b80601f0160208091040260200160405190810160405280929190818152602001828054620010789062003b1a565b8015620010c95780601f106200109d57610100808354040283529160200191620010c9565b820191906000526020600020905b815481529060010190602001808311620010ab57829003601f168201915b5050505050815260200160018201548152602001600282015481526020016003820160009054906101000a900473ffffffffffffffffffffffffffffffffffffffff1673ffffffffffffffffffffffffffffffffffffffff1673ffffffffffffffffffffffffffffffffffffffff1681526020016004820180546200114e9062003b1a565b80601f01602080910402602001604051908101604052809291908181526020018280546200117c9062003b1a565b8015620011cd5780601f10620011a157610100808354040283529160200191620011cd565b820191906000526020600020905b815481529060010190602001808311620011af57829003601f168201915b505050505081525050905060006040518060c001604052808663ffffffff1681526020018581526020018463ffffffff16815260200160008054906101000a900463ffffffff1663ffffffff1681526020013373ffffffffffffffffffffffffffffffffffffffff1681526020016001600281111562001252576200125162003274565b5b8152509050600460003373ffffffffffffffffffffffffffffffffffffffff1673ffffffffffffffffffffffffffffffffffffffff16815260200190815260200160002081908060018154018082558091505060019003906000526020600020906004020160009091909190915060008201518160000160006101000a81548163ffffffff021916908363ffffffff16021790555060208201518160010190805190602001906200130592919062003006565b506040820151816002015560608201518160030160006101000a81548163ffffffff021916908363ffffffff16021790555060808201518160030160046101000a81548173ffffffffffffffffffffffffffffffffffffffff021916908373ffffffffffffffffffffffffffffffffffffffff16021790555060a08201518160030160186101000a81548160ff02191690836002811115620013ac57620013ab62003274565b5b02179055505050600181908060018154018082558091505060019003906000526020600020906004020160009091909190915060008201518160000160006101000a81548163ffffffff021916908363ffffffff16021790555060208201518160010190805190602001906200142492919062003006565b506040820151816002015560608201518160030160006101000a81548163ffffffff021916908363ffffffff16021790555060808201518160030160046101000a81548173ffffffffffffffffffffffffffffffffffffffff021916908373ffffffffffffffffffffffffffffffffffffffff16021790555060a08201518160030160186101000a81548160ff02191690836002811115620014cb57620014ca62003274565b5b0217905550505060016000808282829054906101000a900463ffffffff16620014f5919062003c36565b92506101000a81548163ffffffff021916908363ffffffff1602179055503373ffffffffffffffffffffffffffffffffffffffff167f556f6cffac859de508c06264c63b805c9340e54957842d26137289e40c7983b5858786866000015187604001516040516200156b95949392919062003cc9565b60405180910390a25050505050565b600080600260003373ffffffffffffffffffffffffffffffffffffffff1673ffffffffffffffffffffffffffffffffffffffff1681526020019081526020016000206000018054620015cc9062003b1a565b90501180156200166b5750600073ffffffffffffffffffffffffffffffffffffffff16600260003373ffffffffffffffffffffffffffffffffffffffff1673ffffffffffffffffffffffffffffffffffffffff16815260200190815260200160002060030160009054906101000a900473ffffffffffffffffffffffffffffffffffffffff1673ffffffffffffffffffffffffffffffffffffffff1614155b8015620016c857506000600260003373ffffffffffffffffffffffffffffffffffffffff1673ffffffffffffffffffffffffffffffffffffffff1681526020019081526020016000206004018054620016c49062003b1a565b9050115b620016d257600080fd5b6000620016de620026b7565b9050805191505090565b620016f262003097565b620016fd82620025eb565b6040518060c00160405290816000820160009054906101000a900463ffffffff1663ffffffff1663ffffffff168152602001600182018054620017409062003b1a565b80601f01602080910402602001604051908101604052809291908181526020018280546200176e9062003b1a565b8015620017bf5780601f106200179357610100808354040283529160200191620017bf565b820191906000526020600020905b815481529060010190602001808311620017a157829003601f168201915b50505050508152602001600282015481526020016003820160009054906101000a900463ffffffff1663ffffffff1663ffffffff1681526020016003820160049054906101000a900473ffffffffffffffffffffffffffffffffffffffff1673ffffffffffffffffffffffffffffffffffffffff1673ffffffffffffffffffffffffffffffffffffffff1681526020016003820160189054906101000a900460ff16600281111562001876576200187562003274565b5b60028111156200188b576200188a62003274565b5b815250509050919050565b6000600260003373ffffffffffffffffffffffffffffffffffffffff1673ffffffffffffffffffffffffffffffffffffffff1681526020019081526020016000206000018054620018e79062003b1a565b905014620018f457600080fd5b6000600260003373ffffffffffffffffffffffffffffffffffffffff1673ffffffffffffffffffffffffffffffffffffffff1681526020019081526020016000206004018054620019459062003b1a565b9050146200195257600080fd5b600073ffffffffffffffffffffffffffffffffffffffff16600260003373ffffffffffffffffffffffffffffffffffffffff1673ffffffffffffffffffffffffffffffffffffffff16815260200190815260200160002060030160009054906101000a900473ffffffffffffffffffffffffffffffffffffffff1673ffffffffffffffffffffffffffffffffffffffff1614620019ee57600080fd5b60006040518060a0016040528084815260200160008152602001600081526020013373ffffffffffffffffffffffffffffffffffffffff16815260200183815250905080600260003373ffffffffffffffffffffffffffffffffffffffff1673ffffffffffffffffffffffffffffffffffffffff168152602001908152602001600020600082015181600001908051906020019062001a8f92919062003006565b50602082015181600101556040820151816002015560608201518160030160006101000a81548173ffffffffffffffffffffffffffffffffffffffff021916908373ffffffffffffffffffffffffffffffffffffffff160217905550608082015181600401908051906020019062001b0992919062003006565b509050507ff1a7d83728a3b9e98b78339e6bb93974d080b9c65813f14b34e2fbf3c14823fd600260003373ffffffffffffffffffffffffffffffffffffffff1673ffffffffffffffffffffffffffffffffffffffff168152602001908152602001600020600001600260003373ffffffffffffffffffffffffffffffffffffffff1673ffffffffffffffffffffffffffffffffffffffff168152602001908152602001600020600401600260003373ffffffffffffffffffffffffffffffffffffffff1673ffffffffffffffffffffffffffffffffffffffff16815260200190815260200160002060030160009054906101000a900473ffffffffffffffffffffffffffffffffffffffff1660405162001c269392919062003dd5565b60405180910390a1505050565b606062001c41600162002117565b905090565b62001c5062003097565b6000600260003373ffffffffffffffffffffffffffffffffffffffff1673ffffffffffffffffffffffffffffffffffffffff168152602001908152602001600020600001805462001ca19062003b1a565b905011801562001d405750600073ffffffffffffffffffffffffffffffffffffffff16600260003373ffffffffffffffffffffffffffffffffffffffff1673ffffffffffffffffffffffffffffffffffffffff16815260200190815260200160002060030160009054906101000a900473ffffffffffffffffffffffffffffffffffffffff1673ffffffffffffffffffffffffffffffffffffffff1614155b801562001d9d57506000600260003373ffffffffffffffffffffffffffffffffffffffff1673ffffffffffffffffffffffffffffffffffffffff168152602001908152602001600020600401805462001d999062003b1a565b9050115b62001da757600080fd5b919050565b62001db662002fc1565b6000600260003373ffffffffffffffffffffffffffffffffffffffff1673ffffffffffffffffffffffffffffffffffffffff1681526020019081526020016000206040518060a001604052908160008201805462001e149062003b1a565b80601f016020809104026020016040519081016040528092919081815260200182805462001e429062003b1a565b801562001e935780601f1062001e675761010080835404028352916020019162001e93565b820191906000526020600020905b81548152906001019060200180831162001e7557829003601f168201915b5050505050815260200160018201548152602001600282015481526020016003820160009054906101000a900473ffffffffffffffffffffffffffffffffffffffff1673ffffffffffffffffffffffffffffffffffffffff1673ffffffffffffffffffffffffffffffffffffffff16815260200160048201805462001f189062003b1a565b80601f016020809104026020016040519081016040528092919081815260200182805462001f469062003b1a565b801562001f975780601f1062001f6b5761010080835404028352916020019162001f97565b820191906000526020600020905b81548152906001019060200180831162001f7957829003601f168201915b50505050508152505090508091505090565b600080600260003373ffffffffffffffffffffffffffffffffffffffff1673ffffffffffffffffffffffffffffffffffffffff168152602001908152602001600020600001805462001ffb9062003b1a565b90501180156200209a5750600073ffffffffffffffffffffffffffffffffffffffff16600260003373ffffffffffffffffffffffffffffffffffffffff1673ffffffffffffffffffffffffffffffffffffffff16815260200190815260200160002060030160009054906101000a900473ffffffffffffffffffffffffffffffffffffffff1673ffffffffffffffffffffffffffffffffffffffff1614155b8015620020f757506000600260003373ffffffffffffffffffffffffffffffffffffffff1673ffffffffffffffffffffffffffffffffffffffff1681526020019081526020016000206004018054620020f39062003b1a565b9050115b6200210157600080fd5b60006200210d62002b35565b9050805191505090565b60606000805b600180549050811015620023445760006001828154811062002144576200214362003e20565b5b90600052602060002090600402016040518060c00160405290816000820160009054906101000a900463ffffffff1663ffffffff1663ffffffff168152602001600182018054620021959062003b1a565b80601f0160208091040260200160405190810160405280929190818152602001828054620021c39062003b1a565b8015620022145780601f10620021e85761010080835404028352916020019162002214565b820191906000526020600020905b815481529060010190602001808311620021f657829003601f168201915b50505050508152602001600282015481526020016003820160009054906101000a900463ffffffff1663ffffffff1663ffffffff1681526020016003820160049054906101000a900473ffffffffffffffffffffffffffffffffffffffff1673ffffffffffffffffffffffffffffffffffffffff1673ffffffffffffffffffffffffffffffffffffffff1681526020016003820160189054906101000a900460ff166002811115620022cb57620022ca62003274565b5b6002811115620022e057620022df62003274565b5b815250509050846002811115620022fc57620022fb62003274565b5b8160a00151600281111562002316576200231562003274565b5b036200232d578280620023299062003e4f565b9350505b5080806200233b9062003e4f565b9150506200211d565b5060008167ffffffffffffffff8111156200236457620023636200375a565b5b604051908082528060200260200182016040528015620023a157816020015b6200238d62003097565b815260200190600190039081620023835790505b50905060005b600180549050811015620025e057600060018281548110620023ce57620023cd62003e20565b5b90600052602060002090600402016040518060c00160405290816000820160009054906101000a900463ffffffff1663ffffffff1663ffffffff1681526020016001820180546200241f9062003b1a565b80601f01602080910402602001604051908101604052809291908181526020018280546200244d9062003b1a565b80156200249e5780601f1062002472576101008083540402835291602001916200249e565b820191906000526020600020905b8154815290600101906020018083116200248057829003601f168201915b50505050508152602001600282015481526020016003820160009054906101000a900463ffffffff1663ffffffff1663ffffffff1681526020016003820160049054906101000a900473ffffffffffffffffffffffffffffffffffffffff1673ffffffffffffffffffffffffffffffffffffffff1673ffffffffffffffffffffffffffffffffffffffff1681526020016003820160189054906101000a900460ff16600281111562002555576200255462003274565b5b60028111156200256a576200256962003274565b5b81525050905085600281111562002586576200258562003274565b5b8160a001516002811115620025a0576200259f62003274565b5b03620025c95780838381518110620025bd57620025bc62003e20565b5b60200260200101819052505b508080620025d79062003e4f565b915050620023a7565b508092505050919050565b600080600090505b60018054905081101562002674576000600182815481106200261a576200261962003e20565b5b906000526020600020906004020190508363ffffffff168160030160009054906101000a900463ffffffff1663ffffffff16036200265d578092505050620026b2565b5080806200266b9062003e4f565b915050620025f3565b506040517f08c379a0000000000000000000000000000000000000000000000000000000008152600401620026a99062003eec565b60405180910390fd5b919050565b60606000600260003373ffffffffffffffffffffffffffffffffffffffff1673ffffffffffffffffffffffffffffffffffffffff16815260200190815260200160002060000180546200270a9062003b1a565b9050118015620027a95750600073ffffffffffffffffffffffffffffffffffffffff16600260003373ffffffffffffffffffffffffffffffffffffffff1673ffffffffffffffffffffffffffffffffffffffff16815260200190815260200160002060030160009054906101000a900473ffffffffffffffffffffffffffffffffffffffff1673ffffffffffffffffffffffffffffffffffffffff1614155b80156200280657506000600260003373ffffffffffffffffffffffffffffffffffffffff1673ffffffffffffffffffffffffffffffffffffffff1681526020019081526020016000206004018054620028029062003b1a565b9050115b6200281057600080fd5b6000600360003373ffffffffffffffffffffffffffffffffffffffff1673ffffffffffffffffffffffffffffffffffffffff16815260200190815260200160002090506000805b8280549050811015620029765760008382815481106200287c576200287b62003e20565b5b9060005260206000200160009054906101000a900473ffffffffffffffffffffffffffffffffffffffff1690508073ffffffffffffffffffffffffffffffffffffffff166308551a536040518163ffffffff1660e01b8152600401602060405180830381865afa158015620028f5573d6000803e3d6000fd5b505050506040513d601f19601f820116820180604052508101906200291b919062003f53565b73ffffffffffffffffffffffffffffffffffffffff163373ffffffffffffffffffffffffffffffffffffffff16036200295f5782806200295b9062003e4f565b9350505b5080806200296d9062003e4f565b91505062002857565b5060008167ffffffffffffffff8111156200299657620029956200375a565b5b604051908082528060200260200182016040528015620029c55781602001602082028036833780820191505090505b50905060005b838054905081101562002b2b576000848281548110620029f057620029ef62003e20565b5b9060005260206000200160009054906101000a900473ffffffffffffffffffffffffffffffffffffffff1690508073ffffffffffffffffffffffffffffffffffffffff166308551a536040518163ffffffff1660e01b8152600401602060405180830381865afa15801562002a69573d6000803e3d6000fd5b505050506040513d601f19601f8201168201806040525081019062002a8f919062003f53565b73ffffffffffffffffffffffffffffffffffffffff163373ffffffffffffffffffffffffffffffffffffffff160362002b14578083838151811062002ad95762002ad862003e20565b5b602002602001019073ffffffffffffffffffffffffffffffffffffffff16908173ffffffffffffffffffffffffffffffffffffffff16815250505b50808062002b229062003e4f565b915050620029cb565b5080935050505090565b60606000600260003373ffffffffffffffffffffffffffffffffffffffff1673ffffffffffffffffffffffffffffffffffffffff168152602001908152602001600020600001805462002b889062003b1a565b905011801562002c275750600073ffffffffffffffffffffffffffffffffffffffff16600260003373ffffffffffffffffffffffffffffffffffffffff1673ffffffffffffffffffffffffffffffffffffffff16815260200190815260200160002060030160009054906101000a900473ffffffffffffffffffffffffffffffffffffffff1673ffffffffffffffffffffffffffffffffffffffff1614155b801562002c8457506000600260003373ffffffffffffffffffffffffffffffffffffffff1673ffffffffffffffffffffffffffffffffffffffff168152602001908152602001600020600401805462002c809062003b1a565b9050115b62002c8e57600080fd5b6000600360003373ffffffffffffffffffffffffffffffffffffffff1673ffffffffffffffffffffffffffffffffffffffff16815260200190815260200160002090506000805b828054905081101562002df457600083828154811062002cfa5762002cf962003e20565b5b9060005260206000200160009054906101000a900473ffffffffffffffffffffffffffffffffffffffff1690508073ffffffffffffffffffffffffffffffffffffffff16637150d8ae6040518163ffffffff1660e01b8152600401602060405180830381865afa15801562002d73573d6000803e3d6000fd5b505050506040513d601f19601f8201168201806040525081019062002d99919062003f53565b73ffffffffffffffffffffffffffffffffffffffff163373ffffffffffffffffffffffffffffffffffffffff160362002ddd57828062002dd99062003e4f565b9350505b50808062002deb9062003e4f565b91505062002cd5565b5060008167ffffffffffffffff81111562002e145762002e136200375a565b5b60405190808252806020026020018201604052801562002e435781602001602082028036833780820191505090505b50905060005b838054905081101562002fa957600084828154811062002e6e5762002e6d62003e20565b5b9060005260206000200160009054906101000a900473ffffffffffffffffffffffffffffffffffffffff1690508073ffffffffffffffffffffffffffffffffffffffff16637150d8ae6040518163ffffffff1660e01b8152600401602060405180830381865afa15801562002ee7573d6000803e3d6000fd5b505050506040513d601f19601f8201168201806040525081019062002f0d919062003f53565b73ffffffffffffffffffffffffffffffffffffffff163373ffffffffffffffffffffffffffffffffffffffff160362002f92578083838151811062002f575762002f5662003e20565b5b602002602001019073ffffffffffffffffffffffffffffffffffffffff16908173ffffffffffffffffffffffffffffffffffffffff16815250505b50808062002fa09062003e4f565b91505062002e49565b5080935050505090565b610ec18062003f8683390190565b6040518060a00160405280606081526020016000815260200160008152602001600073ffffffffffffffffffffffffffffffffffffffff168152602001606081525090565b828054620030149062003b1a565b90600052602060002090601f01602090048101928262003038576000855562003084565b82601f106200305357805160ff191683800117855562003084565b8280016001018555821562003084579182015b828111156200308357825182559160200191906001019062003066565b5b50905062003093919062003104565b5090565b6040518060c00160405280600063ffffffff1681526020016060815260200160008152602001600063ffffffff168152602001600073ffffffffffffffffffffffffffffffffffffffff16815260200160006002811115620030fe57620030fd62003274565b5b81525090565b5b808211156200311f57600081600090555060010162003105565b5090565b600081519050919050565b600082825260208201905092915050565b6000819050602082019050919050565b600063ffffffff82169050919050565b6200316a816200314f565b82525050565b600081519050919050565b600082825260208201905092915050565b60005b83811015620031ac5780820151818401526020810190506200318f565b83811115620031bc576000848401525b50505050565b6000601f19601f8301169050919050565b6000620031e08262003170565b620031ec81856200317b565b9350620031fe8185602086016200318c565b6200320981620031c2565b840191505092915050565b6000819050919050565b620032298162003214565b82525050565b600073ffffffffffffffffffffffffffffffffffffffff82169050919050565b60006200325c826200322f565b9050919050565b6200326e816200324f565b82525050565b7f4e487b7100000000000000000000000000000000000000000000000000000000600052602160045260246000fd5b60038110620032b757620032b662003274565b5b50565b6000819050620032ca82620032a3565b919050565b6000620032dc82620032ba565b9050919050565b620032ee81620032cf565b82525050565b600060c0830160008301516200330e60008601826200315f565b5060208301518482036020860152620033288282620031d3565b91505060408301516200333f60408601826200321e565b5060608301516200335460608601826200315f565b50608083015162003369608086018262003263565b5060a08301516200337e60a0860182620032e3565b508091505092915050565b6000620033978383620032f4565b905092915050565b6000602082019050919050565b6000620033b98262003123565b620033c581856200312e565b935083602082028501620033d9856200313f565b8060005b858110156200341b5784840389528151620033f9858262003389565b945062003406836200339f565b925060208a01995050600181019050620033dd565b50829750879550505050505092915050565b60006020820190508181036000830152620034498184620033ac565b905092915050565b6000604051905090565b600080fd5b600080fd5b62003470816200314f565b81146200347c57600080fd5b50565b600081359050620034908162003465565b92915050565b600060208284031215620034af57620034ae6200345b565b5b6000620034bf848285016200347f565b91505092915050565b620034d381620032cf565b82525050565b6000602082019050620034f06000830184620034c8565b92915050565b62003501816200324f565b81146200350d57600080fd5b50565b6000813590506200352181620034f6565b92915050565b60006020828403121562003540576200353f6200345b565b5b6000620035508482850162003510565b91505092915050565b600060a0830160008301518482036000860152620035788282620031d3565b91505060208301516200358f60208601826200321e565b506040830151620035a460408601826200321e565b506060830151620035b9606086018262003263565b5060808301518482036080860152620035d38282620031d3565b9150508091505092915050565b60006020820190508181036000830152620035fc818462003559565b905092915050565b600081519050919050565b600082825260208201905092915050565b6000819050602082019050919050565b6000819050919050565b60006200365b620036556200364f846200322f565b62003630565b6200322f565b9050919050565b60006200366f826200363a565b9050919050565b6000620036838262003662565b9050919050565b620036958162003676565b82525050565b6000620036a983836200368a565b60208301905092915050565b6000602082019050919050565b6000620036cf8262003604565b620036db81856200360f565b9350620036e88362003620565b8060005b838110156200371f5781516200370388826200369b565b97506200371083620036b5565b925050600181019050620036ec565b5085935050505092915050565b60006020820190508181036000830152620037488184620036c2565b905092915050565b600080fd5b600080fd5b7f4e487b7100000000000000000000000000000000000000000000000000000000600052604160045260246000fd5b6200379482620031c2565b810181811067ffffffffffffffff82111715620037b657620037b56200375a565b5b80604052505050565b6000620037cb62003451565b9050620037d9828262003789565b919050565b600067ffffffffffffffff821115620037fc57620037fb6200375a565b5b6200380782620031c2565b9050602081019050919050565b82818337600083830152505050565b60006200383a6200383484620037de565b620037bf565b90508281526020810184848401111562003859576200385862003755565b5b6200386684828562003814565b509392505050565b600082601f83011262003886576200388562003750565b5b81356200389884826020860162003823565b91505092915050565b600080600060608486031215620038bd57620038bc6200345b565b5b6000620038cd868287016200347f565b935050602084013567ffffffffffffffff811115620038f157620038f062003460565b5b620038ff868287016200386e565b925050604062003912868287016200347f565b9150509250925092565b620039278162003214565b82525050565b60006020820190506200394460008301846200391c565b92915050565b600060c0830160008301516200396460008601826200315f565b50602083015184820360208601526200397e8282620031d3565b91505060408301516200399560408601826200321e565b506060830151620039aa60608601826200315f565b506080830151620039bf608086018262003263565b5060a0830151620039d460a0860182620032e3565b508091505092915050565b60006020820190508181036000830152620039fb81846200394a565b905092915050565b6000806040838503121562003a1d5762003a1c6200345b565b5b600083013567ffffffffffffffff81111562003a3e5762003a3d62003460565b5b62003a4c858286016200386e565b925050602083013567ffffffffffffffff81111562003a705762003a6f62003460565b5b62003a7e858286016200386e565b9150509250929050565b62003a938162003214565b811462003a9f57600080fd5b50565b60008135905062003ab38162003a88565b92915050565b60006020828403121562003ad25762003ad16200345b565b5b600062003ae28482850162003aa2565b91505092915050565b7f4e487b7100000000000000000000000000000000000000000000000000000000600052602260045260246000fd5b6000600282049050600182168062003b3357607f821691505b60208210810362003b495762003b4862003aeb565b5b50919050565b62003b5a816200314f565b82525050565b600062003b8162003b7b62003b75846200314f565b62003630565b62003214565b9050919050565b62003b938162003b60565b82525050565b62003ba4816200324f565b82525050565b600060a08201905062003bc1600083018862003b4f565b62003bd060208301876200391c565b62003bdf604083018662003b88565b62003bee606083018562003b99565b62003bfd608083018462003b99565b9695505050505050565b7f4e487b7100000000000000000000000000000000000000000000000000000000600052601160045260246000fd5b600062003c43826200314f565b915062003c50836200314f565b92508263ffffffff0382111562003c6c5762003c6b62003c07565b5b828201905092915050565b600082825260208201905092915050565b600062003c958262003170565b62003ca1818562003c77565b935062003cb38185602086016200318c565b62003cbe81620031c2565b840191505092915050565b600060a082019050818103600083015262003ce5818862003c88565b905062003cf6602083018762003b4f565b62003d05604083018662003b4f565b818103606083015262003d19818562003c88565b905062003d2a60808301846200391c565b9695505050505050565b60008190508160005260206000209050919050565b6000815462003d588162003b1a565b62003d64818662003c77565b9450600182166000811462003d82576001811462003d955762003dcc565b60ff198316865260208601935062003dcc565b62003da08562003d34565b60005b8381101562003dc45781548189015260018201915060208101905062003da3565b808801955050505b50505092915050565b6000606082019050818103600083015262003df1818662003d49565b9050818103602083015262003e07818562003d49565b905062003e18604083018462003b99565b949350505050565b7f4e487b7100000000000000000000000000000000000000000000000000000000600052603260045260246000fd5b600062003e5c8262003214565b91507fffffffffffffffffffffffffffffffffffffffffffffffffffffffffffffffff820362003e915762003e9062003c07565b5b600182019050919050565b7f4974656d206e6f7420666f756e64000000000000000000000000000000000000600082015250565b600062003ed4600e8362003c77565b915062003ee18262003e9c565b602082019050919050565b6000602082019050818103600083015262003f078162003ec5565b9050919050565b600062003f1b826200322f565b9050919050565b62003f2d8162003f0e565b811462003f3957600080fd5b50565b60008151905062003f4d8162003f22565b92915050565b60006020828403121562003f6c5762003f6b6200345b565b5b600062003f7c8482850162003f3c565b9150509291505056fe60806040523480156200001157600080fd5b5060405162000ec138038062000ec1833981810160405281019062000037919062000213565b84600160006101000a81548163ffffffff021916908363ffffffff16021790555080600260006101000a81548173ffffffffffffffffffffffffffffffffffffffff021916908373ffffffffffffffffffffffffffffffffffffffff16021790555081600160046101000a81548173ffffffffffffffffffffffffffffffffffffffff021916908373ffffffffffffffffffffffffffffffffffffffff160217905550826002620000e99190620002ca565b841462000122576040517f53d1399200000000000000000000000000000000000000000000000000000000815260040160405180910390fd5b50505050506200032b565b600080fd5b600063ffffffff82169050919050565b6200014d8162000132565b81146200015957600080fd5b50565b6000815190506200016d8162000142565b92915050565b6000819050919050565b620001888162000173565b81146200019457600080fd5b50565b600081519050620001a8816200017d565b92915050565b600073ffffffffffffffffffffffffffffffffffffffff82169050919050565b6000620001db82620001ae565b9050919050565b620001ed81620001ce565b8114620001f957600080fd5b50565b6000815190506200020d81620001e2565b92915050565b600080600080600060a086880312156200023257620002316200012d565b5b600062000242888289016200015c565b9550506020620002558882890162000197565b9450506040620002688882890162000197565b93505060606200027b88828901620001fc565b92505060806200028e88828901620001fc565b9150509295509295909350565b7f4e487b7100000000000000000000000000000000000000000000000000000000600052601160045260246000fd5b6000620002d78262000173565b9150620002e48362000173565b9250817fffffffffffffffffffffffffffffffffffffffffffffffffffffffffffffffff048311821515161562000320576200031f6200029b565b5b828202905092915050565b610b86806200033b6000396000f3fe60806040526004361061009c5760003560e01c80635a43c66e116100645780635a43c66e146101435780637150d8ae1461016e57806373fac6f0146101995780637e2f42e7146101b0578063c19d93fb146101db578063c7981b1b146102065761009c565b806308551a53146100a15780631f7b8884146100cc57806332d414dc146100d657806335a063b4146101015780633fa4f24514610118575b600080fd5b3480156100ad57600080fd5b506100b661021d565b6040516100c391906109ac565b60405180910390f35b6100d4610243565b005b3480156100e257600080fd5b506100eb6103ae565b6040516100f891906109e6565b60405180910390f35b34801561010d57600080fd5b506101166103c8565b005b34801561012457600080fd5b5061012d610580565b60405161013a9190610a1a565b60405180910390f35b34801561014f57600080fd5b50610158610586565b6040516101659190610aac565b60405180910390f35b34801561017a57600080fd5b5061018361059d565b60405161019091906109ac565b60405180910390f35b3480156101a557600080fd5b506101ae6105c3565b005b3480156101bc57600080fd5b506101c561077c565b6040516101d291906109e6565b60405180910390f35b3480156101e757600080fd5b506101f0610792565b6040516101fd9190610aac565b60405180910390f35b34801561021257600080fd5b5061021b6107a5565b005b600160049054906101000a900473ffffffffffffffffffffffffffffffffffffffff1681565b600080600381111561025857610257610a35565b5b600260149054906101000a900460ff16600381111561027a57610279610a35565b5b146102b1576040517fbaf3f0f700000000000000000000000000000000000000000000000000000000815260040160405180910390fd5b600160049054906101000a900473ffffffffffffffffffffffffffffffffffffffff1673ffffffffffffffffffffffffffffffffffffffff163373ffffffffffffffffffffffffffffffffffffffff1614610338576040517f85d1f72600000000000000000000000000000000000000000000000000000000815260040160405180910390fd5b60005460026103479190610af6565b34148061035357600080fd5b7fd38d6799315b613e5721313e07e327b0e8a305fcc442174a6c3bb26fb6463fb660405160405180910390a16001600260146101000a81548160ff021916908360038111156103a5576103a4610a35565b5b02179055505050565b6000600160009054906101000a900463ffffffff16905090565b600260009054906101000a900473ffffffffffffffffffffffffffffffffffffffff1673ffffffffffffffffffffffffffffffffffffffff163373ffffffffffffffffffffffffffffffffffffffff161461044f576040517f86efbb5500000000000000000000000000000000000000000000000000000000815260040160405180910390fd5b600080600381111561046457610463610a35565b5b600260149054906101000a900460ff16600381111561048657610485610a35565b5b146104bd576040517fbaf3f0f700000000000000000000000000000000000000000000000000000000815260040160405180910390fd5b7f72c874aeff0b183a56e2b79c71b46e1aed4dee5e09862134b8821ba2fddbf8bf60405160405180910390a16003600260146101000a81548160ff0219169083600381111561050f5761050e610a35565b5b0217905550600260009054906101000a900473ffffffffffffffffffffffffffffffffffffffff1673ffffffffffffffffffffffffffffffffffffffff166108fc479081150290604051600060405180830381858888f1935050505015801561057c573d6000803e3d6000fd5b5050565b60005481565b6000600260149054906101000a900460ff16905090565b600260009054906101000a900473ffffffffffffffffffffffffffffffffffffffff1681565b600260009054906101000a900473ffffffffffffffffffffffffffffffffffffffff1673ffffffffffffffffffffffffffffffffffffffff163373ffffffffffffffffffffffffffffffffffffffff161461064a576040517f86efbb5500000000000000000000000000000000000000000000000000000000815260040160405180910390fd5b600180600381111561065f5761065e610a35565b5b600260149054906101000a900460ff16600381111561068157610680610a35565b5b146106b8576040517fbaf3f0f700000000000000000000000000000000000000000000000000000000815260040160405180910390fd5b7fe89152acd703c9d8c7d28829d443260b411454d45394e7995815140c8cbcbcf760405160405180910390a160028060146101000a81548160ff0219169083600381111561070957610708610a35565b5b0217905550600260009054906101000a900473ffffffffffffffffffffffffffffffffffffffff1673ffffffffffffffffffffffffffffffffffffffff166108fc6000549081150290604051600060405180830381858888f19350505050158015610778573d6000803e3d6000fd5b5050565b600160009054906101000a900463ffffffff1681565b600260149054906101000a900460ff1681565b600160049054906101000a900473ffffffffffffffffffffffffffffffffffffffff1673ffffffffffffffffffffffffffffffffffffffff163373ffffffffffffffffffffffffffffffffffffffff161461082c576040517f85d1f72600000000000000000000000000000000000000000000000000000000815260040160405180910390fd5b600280600381111561084157610840610a35565b5b600260149054906101000a900460ff16600381111561086357610862610a35565b5b1461089a576040517fbaf3f0f700000000000000000000000000000000000000000000000000000000815260040160405180910390fd5b7ffda69c32bcfdba840a167777906b173b607eb8b4d8853b97a80d26e613d858db60405160405180910390a16003600260146101000a81548160ff021916908360038111156108ec576108eb610a35565b5b0217905550600160049054906101000a900473ffffffffffffffffffffffffffffffffffffffff1673ffffffffffffffffffffffffffffffffffffffff166108fc600054600361093c9190610af6565b9081150290604051600060405180830381858888f19350505050158015610967573d6000803e3d6000fd5b5050565b600073ffffffffffffffffffffffffffffffffffffffff82169050919050565b60006109968261096b565b9050919050565b6109a68161098b565b82525050565b60006020820190506109c1600083018461099d565b92915050565b600063ffffffff82169050919050565b6109e0816109c7565b82525050565b60006020820190506109fb60008301846109d7565b92915050565b6000819050919050565b610a1481610a01565b82525050565b6000602082019050610a2f6000830184610a0b565b92915050565b7f4e487b7100000000000000000000000000000000000000000000000000000000600052602160045260246000fd5b60048110610a7557610a74610a35565b5b50565b6000819050610a8682610a64565b919050565b6000610a9682610a78565b9050919050565b610aa681610a8b565b82525050565b6000602082019050610ac16000830184610a9d565b92915050565b7f4e487b7100000000000000000000000000000000000000000000000000000000600052601160045260246000fd5b6000610b0182610a01565b9150610b0c83610a01565b9250817fffffffffffffffffffffffffffffffffffffffffffffffffffffffffffffffff0483118215151615610b4557610b44610ac7565b5b82820290509291505056fea2646970667358221220cd57eb56e71dabe3f799154ec20f3a76c7b32dff3b7fd7e751e77a5621f3eff264736f6c634300080d0033a2646970667358221220cab609c6d32850feb9f4d6c7b8f2626d0e752ceb1cbf0fc59b37ceffca8dc08964736f6c634300080d0033",
  "immutableReferences": {},
  "source": "// SPDX-License-Identifier: GPL-3.0\npragma solidity >=0.7.0 <0.9.0;\nimport {Transaction} from \"./Transaction.sol\";\n\ncontract Dbay {\n    uint32 goodId = 0;\n\n    enum State { Unlisted, Listed, Sold } // Complete State means funds have been unlocked and the transaction successful\n    State public GoodState;\n\n    struct Good {\n        uint32 price;\n        string name;\n        uint quantity;\n        uint32 id; // aka the listing id, which is unique even if the same good is listed more than once\n        address owner;\n        State state;\n    }\n\n    struct User {\n        string username;\n        uint buyerRep;\n        uint sellerRep;\n        address wallet;\n        string shippingAddr;\n    }\n\n    event NewUser(string username, string shippingAddr, address wallet);\n    event PurchaseCount(uint count);\n    event SoldCount(uint count);\n    event UpdateListings(address indexed _from, string itemName, uint32 itemPrice, uint32 itemQuantity, string sellerName, uint sellerRep);\n\n    Good[] private Store; // contains all goods\n    mapping(address => User) private Users;\n    mapping(address => Transaction[]) private Transactions; // <user address, list of purchases>\n    mapping(address => Good[]) private Goods;// <user address, list of Owned by user>\n\n    function getItemsByState(State _state) internal view returns(Good[] memory){\n        uint listingCounter = 0;\n        for (uint i=0;i<Store.length;i++)\n        {\n            Good memory good = Store[i];\n            if (good.state == _state){\n                listingCounter++;\n            }\n        }\n        Good[] memory Listings = new Good[](listingCounter);\n        for (uint i=0;i<Store.length;i++){\n            Good memory good = Store[i];\n            if (good.state == _state){\n                Listings[i] = good;\n            }            \n        }\n        return Listings;\n    }\n\n    function getListedItems() external view returns(Good[] memory){\n        return getItemsByState(State.Listed);\n    }\n\n    function getSoldItems() external view returns(Good[] memory){\n        return getItemsByState(State.Sold);\n    }\n\n    function getUser(address addr) public view returns(User memory){\n        return Users[addr];\n    }\n\n    function createProfile(string memory username, string memory shippingAddr) external{\n        require(bytes(Users[msg.sender].username).length == 0);\n        require(bytes(Users[msg.sender].shippingAddr).length == 0);\n        require(Users[msg.sender].wallet == address(0));\n        \n        User memory user = User(username, 0, 0, msg.sender, shippingAddr);\n        Users[msg.sender] = user;\n        emit NewUser(Users[msg.sender].username, Users[msg.sender].shippingAddr, Users[msg.sender].wallet);\n    }\n\n    function getAccount() external view returns (User memory user) {\n        User memory existUser = Users[msg.sender];\n        return existUser;\n    }\n\n    modifier isUser(){\n        require(bytes(Users[msg.sender].username).length > 0 && Users[msg.sender].wallet != address(0) && bytes(Users[msg.sender].shippingAddr).length > 0);\n        _;\n    }\n\n    function buyItem(uint32 _goodId) external payable isUser{\n        Good storage good = findGoodByIdInternal(_goodId);\n        good.state = State.Sold;\n        Transaction transaction = new Transaction(_goodId, msg.value, good.price, good.owner, msg.sender);\n        Transactions[good.owner].push(transaction);\n        Transactions[msg.sender].push(transaction);\n    }\n\n    function getTransactions(address addr) internal view returns(Transaction[] memory){\n        return Transactions[addr];\n    }\n\n    function getItemById(uint id) external view isUser returns (Good memory good) {\n        \n    }\n\n    // Get items the user sold and bought\n    function getAllItems() internal view isUser returns (Transaction[] memory r) {\n        return Transactions[msg.sender];\n    }\n    \n    // returns the list of transactions where the user is the buyer\n    function getPurchases() internal view isUser returns (Transaction[] memory) {\n        Transaction[] storage TransactionArr = Transactions[msg.sender];\n        uint purchaseCount = 0;\n        for (uint i=0;i<TransactionArr.length;i++){\n            Transaction curPurchase = TransactionArr[i];\n            if (msg.sender == curPurchase.buyer()){\n                purchaseCount++;\n            }\n        }\n        Transaction[] memory purchases = new Transaction[](purchaseCount);\n        for (uint i=0;i<TransactionArr.length;i++){\n            Transaction curPurchase = TransactionArr[i];\n            if (msg.sender == curPurchase.buyer()){\n                purchases[i] = curPurchase;\n            }\n        }\n        return purchases;\n    }\n\n    function getPurchasesLength() external view isUser returns (uint) {\n        Transaction[] memory PurchaseArr = getPurchases();\n        return PurchaseArr.length;\n    }\n\n    // returns a list of transactions where the user is the selelr\n    function getSold() internal view isUser returns (Transaction[] memory) {\n        Transaction[] storage TransactionArr = Transactions[msg.sender];\n\n        uint soldCount = 0;\n        for (uint i=0;i<TransactionArr.length;i++){\n            Transaction curPurchase = TransactionArr[i];\n            if (msg.sender == curPurchase.seller()){\n                soldCount++;\n            }\n        }\n        Transaction[] memory sold = new Transaction[](soldCount);\n        for (uint i=0;i<TransactionArr.length;i++){\n            Transaction curPurchase = TransactionArr[i];\n            if (msg.sender == curPurchase.seller()){\n                sold[i] = curPurchase;\n            }\n        }\n        return sold;\n    }    \n\n    function getSoldLength() external view isUser returns (uint) {\n        Transaction[] memory SoldArr = getSold();\n        return SoldArr.length;\n    }\n\n    function getSoldArr() external view isUser returns (Transaction[] memory) {\n        Transaction[] memory SoldArr = getSold();\n        return SoldArr;\n    }    \n\n    // called internally to modify the Good object\n    function findGoodByIdInternal(uint32 _goodId) internal view returns (Good storage) {\n        for (uint i=0;i<Store.length;i++){\n            Good storage good = Store[i];\n            if (good.id == _goodId)\n            {\n                return good;\n            }\n        }\n        revert(\"Item not found\");\n    }\n\n    function findGoodById(uint32 _goodId) public view returns (Good memory) {\n        return findGoodByIdInternal(_goodId);\n    }    \n\n    // does not cost an Gas because is external view\n    function getOwnItems() external view isUser returns (Good[] memory) {\n        return Goods[msg.sender];\n    }\n\n    function listItem(uint32 price, string memory name, uint32 quantity) public isUser {\n        require(price > 0);\n        require(quantity > 0);\n        require(bytes(name).length > 0);\n        User memory Seller = Users[msg.sender];\n\n        Good memory good = Good(price, name, quantity, goodId, msg.sender, State.Listed);\n        Goods[msg.sender].push(good);\n        Store.push(good);\n        goodId += 1;\n        emit UpdateListings(msg.sender, name, price, quantity, Seller.username, Seller.sellerRep);\n    }\n\n    function accept() payable public {}\n}",
  "sourcePath": "/Users/edwardcox/crypto/dbay/contracts/Dbay.sol",
  "compiler": {
    "name": "solc",
    "version": "0.8.13+commit.abaa5c0e.Emscripten.clang"
  },
  "schemaVersion": "3.4.7",
  "updatedAt": "2022-06-16T04:48:08.903Z",
  "networkType": "ethereum",
  "devdoc": {
    "kind": "dev",
    "methods": {},
    "version": 1
  },
  "userdoc": {
    "kind": "user",
    "methods": {},
    "version": 1
  }
}