{
  "contractName": "ExposedDbay",
  "abi": [
    {
      "anonymous": false,
      "inputs": [
        {
          "indexed": false,
          "internalType": "string",
          "name": "username",
          "type": "string"
        },
        {
          "indexed": false,
          "internalType": "string",
          "name": "shippingAddr",
          "type": "string"
        },
        {
          "indexed": false,
          "internalType": "address",
          "name": "wallet",
          "type": "address"
        }
      ],
      "name": "NewUser",
      "type": "event"
    },
    {
      "anonymous": false,
      "inputs": [
        {
          "indexed": false,
          "internalType": "uint256",
          "name": "count",
          "type": "uint256"
        }
      ],
      "name": "PurchaseCount",
      "type": "event"
    },
    {
      "anonymous": false,
      "inputs": [
        {
          "indexed": false,
          "internalType": "uint256",
          "name": "count",
          "type": "uint256"
        }
      ],
      "name": "SoldCount",
      "type": "event"
    },
    {
      "inputs": [],
      "name": "GoodState",
      "outputs": [
        {
          "internalType": "enum Dbay.State",
          "name": "",
          "type": "uint8"
        }
      ],
      "stateMutability": "view",
      "type": "function"
    },
    {
      "inputs": [],
      "name": "accept",
      "outputs": [],
      "stateMutability": "payable",
      "type": "function"
    },
    {
      "inputs": [
        {
          "internalType": "uint32",
          "name": "_goodId",
          "type": "uint32"
        }
      ],
      "name": "buyItem",
      "outputs": [],
      "stateMutability": "payable",
      "type": "function"
    },
    {
      "inputs": [
        {
          "internalType": "string",
          "name": "username",
          "type": "string"
        },
        {
          "internalType": "string",
          "name": "shippingAddr",
          "type": "string"
        }
      ],
      "name": "createProfile",
      "outputs": [],
      "stateMutability": "nonpayable",
      "type": "function"
    },
    {
      "inputs": [
        {
          "internalType": "uint32",
          "name": "_goodId",
          "type": "uint32"
        }
      ],
      "name": "findGoodById",
      "outputs": [
        {
          "components": [
            {
              "internalType": "uint32",
              "name": "price",
              "type": "uint32"
            },
            {
              "internalType": "string",
              "name": "name",
              "type": "string"
            },
            {
              "internalType": "uint256",
              "name": "quantity",
              "type": "uint256"
            },
            {
              "internalType": "uint32",
              "name": "id",
              "type": "uint32"
            },
            {
              "internalType": "address",
              "name": "owner",
              "type": "address"
            },
            {
              "internalType": "enum Dbay.State",
              "name": "state",
              "type": "uint8"
            }
          ],
          "internalType": "struct Dbay.Good",
          "name": "",
          "type": "tuple"
        }
      ],
      "stateMutability": "view",
      "type": "function"
    },
    {
      "inputs": [],
      "name": "getAccount",
      "outputs": [
        {
          "components": [
            {
              "internalType": "string",
              "name": "username",
              "type": "string"
            },
            {
              "internalType": "uint256",
              "name": "buyerRep",
              "type": "uint256"
            },
            {
              "internalType": "uint256",
              "name": "sellerRep",
              "type": "uint256"
            },
            {
              "internalType": "address",
              "name": "wallet",
              "type": "address"
            },
            {
              "internalType": "string",
              "name": "shippingAddr",
              "type": "string"
            }
          ],
          "internalType": "struct Dbay.User",
          "name": "user",
          "type": "tuple"
        }
      ],
      "stateMutability": "view",
      "type": "function"
    },
    {
      "inputs": [
        {
          "internalType": "uint256",
          "name": "id",
          "type": "uint256"
        }
      ],
      "name": "getItemById",
      "outputs": [
        {
          "components": [
            {
              "internalType": "uint32",
              "name": "price",
              "type": "uint32"
            },
            {
              "internalType": "string",
              "name": "name",
              "type": "string"
            },
            {
              "internalType": "uint256",
              "name": "quantity",
              "type": "uint256"
            },
            {
              "internalType": "uint32",
              "name": "id",
              "type": "uint32"
            },
            {
              "internalType": "address",
              "name": "owner",
              "type": "address"
            },
            {
              "internalType": "enum Dbay.State",
              "name": "state",
              "type": "uint8"
            }
          ],
          "internalType": "struct Dbay.Good",
          "name": "good",
          "type": "tuple"
        }
      ],
      "stateMutability": "view",
      "type": "function"
    },
    {
      "inputs": [],
      "name": "getListedItems",
      "outputs": [
        {
          "components": [
            {
              "internalType": "uint32",
              "name": "price",
              "type": "uint32"
            },
            {
              "internalType": "string",
              "name": "name",
              "type": "string"
            },
            {
              "internalType": "uint256",
              "name": "quantity",
              "type": "uint256"
            },
            {
              "internalType": "uint32",
              "name": "id",
              "type": "uint32"
            },
            {
              "internalType": "address",
              "name": "owner",
              "type": "address"
            },
            {
              "internalType": "enum Dbay.State",
              "name": "state",
              "type": "uint8"
            }
          ],
          "internalType": "struct Dbay.Good[]",
          "name": "",
          "type": "tuple[]"
        }
      ],
      "stateMutability": "view",
      "type": "function"
    },
    {
      "inputs": [],
      "name": "getOwnItems",
      "outputs": [
        {
          "components": [
            {
              "internalType": "uint32",
              "name": "price",
              "type": "uint32"
            },
            {
              "internalType": "string",
              "name": "name",
              "type": "string"
            },
            {
              "internalType": "uint256",
              "name": "quantity",
              "type": "uint256"
            },
            {
              "internalType": "uint32",
              "name": "id",
              "type": "uint32"
            },
            {
              "internalType": "address",
              "name": "owner",
              "type": "address"
            },
            {
              "internalType": "enum Dbay.State",
              "name": "state",
              "type": "uint8"
            }
          ],
          "internalType": "struct Dbay.Good[]",
          "name": "",
          "type": "tuple[]"
        }
      ],
      "stateMutability": "view",
      "type": "function"
    },
    {
      "inputs": [],
      "name": "getPurchasesLength",
      "outputs": [
        {
          "internalType": "uint256",
          "name": "",
          "type": "uint256"
        }
      ],
      "stateMutability": "view",
      "type": "function"
    },
    {
      "inputs": [],
      "name": "getSoldArr",
      "outputs": [
        {
          "internalType": "contract Transaction[]",
          "name": "",
          "type": "address[]"
        }
      ],
      "stateMutability": "view",
      "type": "function"
    },
    {
      "inputs": [],
      "name": "getSoldItems",
      "outputs": [
        {
          "components": [
            {
              "internalType": "uint32",
              "name": "price",
              "type": "uint32"
            },
            {
              "internalType": "string",
              "name": "name",
              "type": "string"
            },
            {
              "internalType": "uint256",
              "name": "quantity",
              "type": "uint256"
            },
            {
              "internalType": "uint32",
              "name": "id",
              "type": "uint32"
            },
            {
              "internalType": "address",
              "name": "owner",
              "type": "address"
            },
            {
              "internalType": "enum Dbay.State",
              "name": "state",
              "type": "uint8"
            }
          ],
          "internalType": "struct Dbay.Good[]",
          "name": "",
          "type": "tuple[]"
        }
      ],
      "stateMutability": "view",
      "type": "function"
    },
    {
      "inputs": [],
      "name": "getSoldLength",
      "outputs": [
        {
          "internalType": "uint256",
          "name": "",
          "type": "uint256"
        }
      ],
      "stateMutability": "view",
      "type": "function"
    },
    {
      "inputs": [
        {
          "internalType": "address",
          "name": "addr",
          "type": "address"
        }
      ],
      "name": "getUser",
      "outputs": [
        {
          "components": [
            {
              "internalType": "string",
              "name": "username",
              "type": "string"
            },
            {
              "internalType": "uint256",
              "name": "buyerRep",
              "type": "uint256"
            },
            {
              "internalType": "uint256",
              "name": "sellerRep",
              "type": "uint256"
            },
            {
              "internalType": "address",
              "name": "wallet",
              "type": "address"
            },
            {
              "internalType": "string",
              "name": "shippingAddr",
              "type": "string"
            }
          ],
          "internalType": "struct Dbay.User",
          "name": "",
          "type": "tuple"
        }
      ],
      "stateMutability": "view",
      "type": "function"
    },
    {
      "inputs": [
        {
          "internalType": "uint32",
          "name": "price",
          "type": "uint32"
        },
        {
          "internalType": "string",
          "name": "name",
          "type": "string"
        },
        {
          "internalType": "uint32",
          "name": "quantity",
          "type": "uint32"
        }
      ],
      "name": "listItem",
      "outputs": [],
      "stateMutability": "nonpayable",
      "type": "function"
    },
    {
      "inputs": [
        {
          "internalType": "uint32",
          "name": "goodId",
          "type": "uint32"
        }
      ],
      "name": "_findGoodById",
      "outputs": [
        {
          "components": [
            {
              "internalType": "uint32",
              "name": "price",
              "type": "uint32"
            },
            {
              "internalType": "string",
              "name": "name",
              "type": "string"
            },
            {
              "internalType": "uint256",
              "name": "quantity",
              "type": "uint256"
            },
            {
              "internalType": "uint32",
              "name": "id",
              "type": "uint32"
            },
            {
              "internalType": "address",
              "name": "owner",
              "type": "address"
            },
            {
              "internalType": "enum Dbay.State",
              "name": "state",
              "type": "uint8"
            }
          ],
          "internalType": "struct Dbay.Good",
          "name": "",
          "type": "tuple"
        }
      ],
      "stateMutability": "view",
      "type": "function"
    }
  ],
  "bytecode": "0x608060405260008060006101000a81548163ffffffff021916908363ffffffff16021790555034801561003157600080fd5b50614d29806100416000396000f3fe6080604052600436106200010a5760003560e01c8063920157821162000097578063caf506901162000061578063caf506901462000353578063cd2f07101462000383578063db613e8114620003c7578063ff3c0c9814620003f7576200010a565b806392015782146200026d5780639747ea2b146200029d578063ba1feb8a14620002e1578063c2b65f7a146200030f576200010a565b80635fa435d811620000d95780635fa435d8146200019b5780636f77926b14620001cb57806379986063146200020f57806384b41be1146200023f576200010a565b806318ad151b146200010f578063212acf9b146200013f5780632852b71c146200015f57806343f9024a146200016b575b600080fd5b3480156200011c57600080fd5b506200012762000427565b60405162000136919062003386565b60405180910390f35b6200015d6004803603810190620001579190620033ef565b6200043a565b005b62000169620007b6565b005b3480156200017857600080fd5b5062000183620007b8565b60405162000192919062003386565b60405180910390f35b348015620001a857600080fd5b50620001b362000b34565b604051620001c2919062003432565b60405180910390f35b348015620001d857600080fd5b50620001f76004803603810190620001f1919062003480565b62000b47565b60405162000206919062003539565b60405180910390f35b3480156200021c57600080fd5b506200022762000d40565b60405162000236919062003685565b60405180910390f35b3480156200024c57600080fd5b506200026b6004803603810190620002659190620037fa565b62000eae565b005b3480156200027a57600080fd5b50620002856200135a565b60405162000294919062003886565b60405180910390f35b348015620002aa57600080fd5b50620002c96004803603810190620002c39190620033ef565b620014c8565b604051620002d8919062003938565b60405180910390f35b348015620002ee57600080fd5b506200030d60048036038101906200030791906200395c565b62001676565b005b3480156200031c57600080fd5b506200033b6004803603810190620003359190620033ef565b62001a13565b6040516200034a919062003938565b60405180910390f35b3480156200036057600080fd5b506200036b62001b8c565b6040516200037a919062003386565b60405180910390f35b3480156200039057600080fd5b50620003af6004803603810190620003a9919062003a12565b62001b9f565b604051620003be919062003938565b60405180910390f35b348015620003d457600080fd5b50620003df62001d05565b604051620003ee919062003539565b60405180910390f35b3480156200040457600080fd5b506200040f62001f02565b6040516200041e919062003886565b60405180910390f35b606062000435600262002070565b905090565b6000600260003373ffffffffffffffffffffffffffffffffffffffff1673ffffffffffffffffffffffffffffffffffffffff16815260200190815260200160002060000180546200048b9062003a73565b90501180156200052a5750600073ffffffffffffffffffffffffffffffffffffffff16600260003373ffffffffffffffffffffffffffffffffffffffff1673ffffffffffffffffffffffffffffffffffffffff16815260200190815260200160002060030160009054906101000a900473ffffffffffffffffffffffffffffffffffffffff1673ffffffffffffffffffffffffffffffffffffffff1614155b80156200058757506000600260003373ffffffffffffffffffffffffffffffffffffffff1673ffffffffffffffffffffffffffffffffffffffff1681526020019081526020016000206004018054620005839062003a73565b9050115b6200059157600080fd5b60006200059e8262002544565b905060028160030160186101000a81548160ff02191690836002811115620005cb57620005ca620031cd565b5b0217905550600082348360000160009054906101000a900463ffffffff168460030160049054906101000a900473ffffffffffffffffffffffffffffffffffffffff16336040516200061d9062002f0c565b6200062d95949392919062003b03565b604051809103906000f0801580156200064a573d6000803e3d6000fd5b509050600360008360030160049054906101000a900473ffffffffffffffffffffffffffffffffffffffff1673ffffffffffffffffffffffffffffffffffffffff1673ffffffffffffffffffffffffffffffffffffffff168152602001908152602001600020819080600181540180825580915050600190039060005260206000200160009091909190916101000a81548173ffffffffffffffffffffffffffffffffffffffff021916908373ffffffffffffffffffffffffffffffffffffffff160217905550600360003373ffffffffffffffffffffffffffffffffffffffff1673ffffffffffffffffffffffffffffffffffffffff168152602001908152602001600020819080600181540180825580915050600190039060005260206000200160009091909190916101000a81548173ffffffffffffffffffffffffffffffffffffffff021916908373ffffffffffffffffffffffffffffffffffffffff160217905550505050565b565b60606000600260003373ffffffffffffffffffffffffffffffffffffffff1673ffffffffffffffffffffffffffffffffffffffff16815260200190815260200160002060000180546200080b9062003a73565b9050118015620008aa5750600073ffffffffffffffffffffffffffffffffffffffff16600260003373ffffffffffffffffffffffffffffffffffffffff1673ffffffffffffffffffffffffffffffffffffffff16815260200190815260200160002060030160009054906101000a900473ffffffffffffffffffffffffffffffffffffffff1673ffffffffffffffffffffffffffffffffffffffff1614155b80156200090757506000600260003373ffffffffffffffffffffffffffffffffffffffff1673ffffffffffffffffffffffffffffffffffffffff1681526020019081526020016000206004018054620009039062003a73565b9050115b6200091157600080fd5b600460003373ffffffffffffffffffffffffffffffffffffffff1673ffffffffffffffffffffffffffffffffffffffff168152602001908152602001600020805480602002602001604051908101604052809291908181526020016000905b8282101562000b2b57838290600052602060002090600402016040518060c00160405290816000820160009054906101000a900463ffffffff1663ffffffff1663ffffffff168152602001600182018054620009cc9062003a73565b80601f0160208091040260200160405190810160405280929190818152602001828054620009fa9062003a73565b801562000a4b5780601f1062000a1f5761010080835404028352916020019162000a4b565b820191906000526020600020905b81548152906001019060200180831162000a2d57829003601f168201915b50505050508152602001600282015481526020016003820160009054906101000a900463ffffffff1663ffffffff1663ffffffff1681526020016003820160049054906101000a900473ffffffffffffffffffffffffffffffffffffffff1673ffffffffffffffffffffffffffffffffffffffff1673ffffffffffffffffffffffffffffffffffffffff1681526020016003820160189054906101000a900460ff16600281111562000b025762000b01620031cd565b5b600281111562000b175762000b16620031cd565b5b815250508152602001906001019062000970565b50505050905090565b600060049054906101000a900460ff1681565b62000b5162002f1a565b600260008373ffffffffffffffffffffffffffffffffffffffff1673ffffffffffffffffffffffffffffffffffffffff1681526020019081526020016000206040518060a001604052908160008201805462000bad9062003a73565b80601f016020809104026020016040519081016040528092919081815260200182805462000bdb9062003a73565b801562000c2c5780601f1062000c005761010080835404028352916020019162000c2c565b820191906000526020600020905b81548152906001019060200180831162000c0e57829003601f168201915b5050505050815260200160018201548152602001600282015481526020016003820160009054906101000a900473ffffffffffffffffffffffffffffffffffffffff1673ffffffffffffffffffffffffffffffffffffffff1673ffffffffffffffffffffffffffffffffffffffff16815260200160048201805462000cb19062003a73565b80601f016020809104026020016040519081016040528092919081815260200182805462000cdf9062003a73565b801562000d305780601f1062000d045761010080835404028352916020019162000d30565b820191906000526020600020905b81548152906001019060200180831162000d1257829003601f168201915b5050505050815250509050919050565b60606000600260003373ffffffffffffffffffffffffffffffffffffffff1673ffffffffffffffffffffffffffffffffffffffff168152602001908152602001600020600001805462000d939062003a73565b905011801562000e325750600073ffffffffffffffffffffffffffffffffffffffff16600260003373ffffffffffffffffffffffffffffffffffffffff1673ffffffffffffffffffffffffffffffffffffffff16815260200190815260200160002060030160009054906101000a900473ffffffffffffffffffffffffffffffffffffffff1673ffffffffffffffffffffffffffffffffffffffff1614155b801562000e8f57506000600260003373ffffffffffffffffffffffffffffffffffffffff1673ffffffffffffffffffffffffffffffffffffffff168152602001908152602001600020600401805462000e8b9062003a73565b9050115b62000e9957600080fd5b600062000ea562002610565b90508091505090565b6000600260003373ffffffffffffffffffffffffffffffffffffffff1673ffffffffffffffffffffffffffffffffffffffff168152602001908152602001600020600001805462000eff9062003a73565b905011801562000f9e5750600073ffffffffffffffffffffffffffffffffffffffff16600260003373ffffffffffffffffffffffffffffffffffffffff1673ffffffffffffffffffffffffffffffffffffffff16815260200190815260200160002060030160009054906101000a900473ffffffffffffffffffffffffffffffffffffffff1673ffffffffffffffffffffffffffffffffffffffff1614155b801562000ffb57506000600260003373ffffffffffffffffffffffffffffffffffffffff1673ffffffffffffffffffffffffffffffffffffffff168152602001908152602001600020600401805462000ff79062003a73565b9050115b6200100557600080fd5b60008363ffffffff16116200101957600080fd5b60006040518060c001604052808563ffffffff1681526020018481526020018363ffffffff16815260200160008054906101000a900463ffffffff1663ffffffff1681526020013373ffffffffffffffffffffffffffffffffffffffff16815260200160016002811115620010935762001092620031cd565b5b8152509050600460003373ffffffffffffffffffffffffffffffffffffffff1673ffffffffffffffffffffffffffffffffffffffff16815260200190815260200160002081908060018154018082558091505060019003906000526020600020906004020160009091909190915060008201518160000160006101000a81548163ffffffff021916908363ffffffff16021790555060208201518160010190805190602001906200114692919062002f5f565b506040820151816002015560608201518160030160006101000a81548163ffffffff021916908363ffffffff16021790555060808201518160030160046101000a81548173ffffffffffffffffffffffffffffffffffffffff021916908373ffffffffffffffffffffffffffffffffffffffff16021790555060a08201518160030160186101000a81548160ff02191690836002811115620011ed57620011ec620031cd565b5b02179055505050600181908060018154018082558091505060019003906000526020600020906004020160009091909190915060008201518160000160006101000a81548163ffffffff021916908363ffffffff16021790555060208201518160010190805190602001906200126592919062002f5f565b506040820151816002015560608201518160030160006101000a81548163ffffffff021916908363ffffffff16021790555060808201518160030160046101000a81548173ffffffffffffffffffffffffffffffffffffffff021916908373ffffffffffffffffffffffffffffffffffffffff16021790555060a08201518160030160186101000a81548160ff021916908360028111156200130c576200130b620031cd565b5b0217905550505060016000808282829054906101000a900463ffffffff1662001336919062003b8f565b92506101000a81548163ffffffff021916908363ffffffff16021790555050505050565b600080600260003373ffffffffffffffffffffffffffffffffffffffff1673ffffffffffffffffffffffffffffffffffffffff1681526020019081526020016000206000018054620013ac9062003a73565b90501180156200144b5750600073ffffffffffffffffffffffffffffffffffffffff16600260003373ffffffffffffffffffffffffffffffffffffffff1673ffffffffffffffffffffffffffffffffffffffff16815260200190815260200160002060030160009054906101000a900473ffffffffffffffffffffffffffffffffffffffff1673ffffffffffffffffffffffffffffffffffffffff1614155b8015620014a857506000600260003373ffffffffffffffffffffffffffffffffffffffff1673ffffffffffffffffffffffffffffffffffffffff1681526020019081526020016000206004018054620014a49062003a73565b9050115b620014b257600080fd5b6000620014be62002610565b9050805191505090565b620014d262002ff0565b620014dd8262002544565b6040518060c00160405290816000820160009054906101000a900463ffffffff1663ffffffff1663ffffffff168152602001600182018054620015209062003a73565b80601f01602080910402602001604051908101604052809291908181526020018280546200154e9062003a73565b80156200159f5780601f1062001573576101008083540402835291602001916200159f565b820191906000526020600020905b8154815290600101906020018083116200158157829003601f168201915b50505050508152602001600282015481526020016003820160009054906101000a900463ffffffff1663ffffffff1663ffffffff1681526020016003820160049054906101000a900473ffffffffffffffffffffffffffffffffffffffff1673ffffffffffffffffffffffffffffffffffffffff1673ffffffffffffffffffffffffffffffffffffffff1681526020016003820160189054906101000a900460ff166002811115620016565762001655620031cd565b5b60028111156200166b576200166a620031cd565b5b815250509050919050565b6000600260003373ffffffffffffffffffffffffffffffffffffffff1673ffffffffffffffffffffffffffffffffffffffff1681526020019081526020016000206000018054620016c79062003a73565b905014620016d457600080fd5b6000600260003373ffffffffffffffffffffffffffffffffffffffff1673ffffffffffffffffffffffffffffffffffffffff1681526020019081526020016000206004018054620017259062003a73565b9050146200173257600080fd5b600073ffffffffffffffffffffffffffffffffffffffff16600260003373ffffffffffffffffffffffffffffffffffffffff1673ffffffffffffffffffffffffffffffffffffffff16815260200190815260200160002060030160009054906101000a900473ffffffffffffffffffffffffffffffffffffffff1673ffffffffffffffffffffffffffffffffffffffff1614620017ce57600080fd5b60006040518060a0016040528084815260200160008152602001600081526020013373ffffffffffffffffffffffffffffffffffffffff16815260200183815250905080600260003373ffffffffffffffffffffffffffffffffffffffff1673ffffffffffffffffffffffffffffffffffffffff16815260200190815260200160002060008201518160000190805190602001906200186f92919062002f5f565b50602082015181600101556040820151816002015560608201518160030160006101000a81548173ffffffffffffffffffffffffffffffffffffffff021916908373ffffffffffffffffffffffffffffffffffffffff1602179055506080820151816004019080519060200190620018e992919062002f5f565b509050507ff1a7d83728a3b9e98b78339e6bb93974d080b9c65813f14b34e2fbf3c14823fd600260003373ffffffffffffffffffffffffffffffffffffffff1673ffffffffffffffffffffffffffffffffffffffff168152602001908152602001600020600001600260003373ffffffffffffffffffffffffffffffffffffffff1673ffffffffffffffffffffffffffffffffffffffff168152602001908152602001600020600401600260003373ffffffffffffffffffffffffffffffffffffffff1673ffffffffffffffffffffffffffffffffffffffff16815260200190815260200160002060030160009054906101000a900473ffffffffffffffffffffffffffffffffffffffff1660405162001a069392919062003c82565b60405180910390a1505050565b62001a1d62002ff0565b6000600260003373ffffffffffffffffffffffffffffffffffffffff1673ffffffffffffffffffffffffffffffffffffffff168152602001908152602001600020600001805462001a6e9062003a73565b905011801562001b0d5750600073ffffffffffffffffffffffffffffffffffffffff16600260003373ffffffffffffffffffffffffffffffffffffffff1673ffffffffffffffffffffffffffffffffffffffff16815260200190815260200160002060030160009054906101000a900473ffffffffffffffffffffffffffffffffffffffff1673ffffffffffffffffffffffffffffffffffffffff1614155b801562001b6a57506000600260003373ffffffffffffffffffffffffffffffffffffffff1673ffffffffffffffffffffffffffffffffffffffff168152602001908152602001600020600401805462001b669062003a73565b9050115b62001b7457600080fd5b600062001b8183620014c8565b905080915050919050565b606062001b9a600162002070565b905090565b62001ba962002ff0565b6000600260003373ffffffffffffffffffffffffffffffffffffffff1673ffffffffffffffffffffffffffffffffffffffff168152602001908152602001600020600001805462001bfa9062003a73565b905011801562001c995750600073ffffffffffffffffffffffffffffffffffffffff16600260003373ffffffffffffffffffffffffffffffffffffffff1673ffffffffffffffffffffffffffffffffffffffff16815260200190815260200160002060030160009054906101000a900473ffffffffffffffffffffffffffffffffffffffff1673ffffffffffffffffffffffffffffffffffffffff1614155b801562001cf657506000600260003373ffffffffffffffffffffffffffffffffffffffff1673ffffffffffffffffffffffffffffffffffffffff168152602001908152602001600020600401805462001cf29062003a73565b9050115b62001d0057600080fd5b919050565b62001d0f62002f1a565b6000600260003373ffffffffffffffffffffffffffffffffffffffff1673ffffffffffffffffffffffffffffffffffffffff1681526020019081526020016000206040518060a001604052908160008201805462001d6d9062003a73565b80601f016020809104026020016040519081016040528092919081815260200182805462001d9b9062003a73565b801562001dec5780601f1062001dc05761010080835404028352916020019162001dec565b820191906000526020600020905b81548152906001019060200180831162001dce57829003601f168201915b5050505050815260200160018201548152602001600282015481526020016003820160009054906101000a900473ffffffffffffffffffffffffffffffffffffffff1673ffffffffffffffffffffffffffffffffffffffff1673ffffffffffffffffffffffffffffffffffffffff16815260200160048201805462001e719062003a73565b80601f016020809104026020016040519081016040528092919081815260200182805462001e9f9062003a73565b801562001ef05780601f1062001ec45761010080835404028352916020019162001ef0565b820191906000526020600020905b81548152906001019060200180831162001ed257829003601f168201915b50505050508152505090508091505090565b600080600260003373ffffffffffffffffffffffffffffffffffffffff1673ffffffffffffffffffffffffffffffffffffffff168152602001908152602001600020600001805462001f549062003a73565b905011801562001ff35750600073ffffffffffffffffffffffffffffffffffffffff16600260003373ffffffffffffffffffffffffffffffffffffffff1673ffffffffffffffffffffffffffffffffffffffff16815260200190815260200160002060030160009054906101000a900473ffffffffffffffffffffffffffffffffffffffff1673ffffffffffffffffffffffffffffffffffffffff1614155b80156200205057506000600260003373ffffffffffffffffffffffffffffffffffffffff1673ffffffffffffffffffffffffffffffffffffffff16815260200190815260200160002060040180546200204c9062003a73565b9050115b6200205a57600080fd5b60006200206662002a8e565b9050805191505090565b60606000805b6001805490508110156200229d576000600182815481106200209d576200209c62003ccd565b5b90600052602060002090600402016040518060c00160405290816000820160009054906101000a900463ffffffff1663ffffffff1663ffffffff168152602001600182018054620020ee9062003a73565b80601f01602080910402602001604051908101604052809291908181526020018280546200211c9062003a73565b80156200216d5780601f1062002141576101008083540402835291602001916200216d565b820191906000526020600020905b8154815290600101906020018083116200214f57829003601f168201915b50505050508152602001600282015481526020016003820160009054906101000a900463ffffffff1663ffffffff1663ffffffff1681526020016003820160049054906101000a900473ffffffffffffffffffffffffffffffffffffffff1673ffffffffffffffffffffffffffffffffffffffff1673ffffffffffffffffffffffffffffffffffffffff1681526020016003820160189054906101000a900460ff166002811115620022245762002223620031cd565b5b6002811115620022395762002238620031cd565b5b815250509050846002811115620022555762002254620031cd565b5b8160a0015160028111156200226f576200226e620031cd565b5b0362002286578280620022829062003cfc565b9350505b508080620022949062003cfc565b91505062002076565b5060008167ffffffffffffffff811115620022bd57620022bc620036b3565b5b604051908082528060200260200182016040528015620022fa57816020015b620022e662002ff0565b815260200190600190039081620022dc5790505b50905060005b600180549050811015620025395760006001828154811062002327576200232662003ccd565b5b90600052602060002090600402016040518060c00160405290816000820160009054906101000a900463ffffffff1663ffffffff1663ffffffff168152602001600182018054620023789062003a73565b80601f0160208091040260200160405190810160405280929190818152602001828054620023a69062003a73565b8015620023f75780601f10620023cb57610100808354040283529160200191620023f7565b820191906000526020600020905b815481529060010190602001808311620023d957829003601f168201915b50505050508152602001600282015481526020016003820160009054906101000a900463ffffffff1663ffffffff1663ffffffff1681526020016003820160049054906101000a900473ffffffffffffffffffffffffffffffffffffffff1673ffffffffffffffffffffffffffffffffffffffff1673ffffffffffffffffffffffffffffffffffffffff1681526020016003820160189054906101000a900460ff166002811115620024ae57620024ad620031cd565b5b6002811115620024c357620024c2620031cd565b5b815250509050856002811115620024df57620024de620031cd565b5b8160a001516002811115620024f957620024f8620031cd565b5b0362002522578083838151811062002516576200251562003ccd565b5b60200260200101819052505b508080620025309062003cfc565b91505062002300565b508092505050919050565b600080600090505b600180549050811015620025cd5760006001828154811062002573576200257262003ccd565b5b906000526020600020906004020190508363ffffffff168160030160009054906101000a900463ffffffff1663ffffffff1603620025b65780925050506200260b565b508080620025c49062003cfc565b9150506200254c565b506040517f08c379a0000000000000000000000000000000000000000000000000000000008152600401620026029062003d99565b60405180910390fd5b919050565b60606000600260003373ffffffffffffffffffffffffffffffffffffffff1673ffffffffffffffffffffffffffffffffffffffff1681526020019081526020016000206000018054620026639062003a73565b9050118015620027025750600073ffffffffffffffffffffffffffffffffffffffff16600260003373ffffffffffffffffffffffffffffffffffffffff1673ffffffffffffffffffffffffffffffffffffffff16815260200190815260200160002060030160009054906101000a900473ffffffffffffffffffffffffffffffffffffffff1673ffffffffffffffffffffffffffffffffffffffff1614155b80156200275f57506000600260003373ffffffffffffffffffffffffffffffffffffffff1673ffffffffffffffffffffffffffffffffffffffff16815260200190815260200160002060040180546200275b9062003a73565b9050115b6200276957600080fd5b6000600360003373ffffffffffffffffffffffffffffffffffffffff1673ffffffffffffffffffffffffffffffffffffffff16815260200190815260200160002090506000805b8280549050811015620028cf576000838281548110620027d557620027d462003ccd565b5b9060005260206000200160009054906101000a900473ffffffffffffffffffffffffffffffffffffffff1690508073ffffffffffffffffffffffffffffffffffffffff166308551a536040518163ffffffff1660e01b8152600401602060405180830381865afa1580156200284e573d6000803e3d6000fd5b505050506040513d601f19601f8201168201806040525081019062002874919062003e00565b73ffffffffffffffffffffffffffffffffffffffff163373ffffffffffffffffffffffffffffffffffffffff1603620028b8578280620028b49062003cfc565b9350505b508080620028c69062003cfc565b915050620027b0565b5060008167ffffffffffffffff811115620028ef57620028ee620036b3565b5b6040519080825280602002602001820160405280156200291e5781602001602082028036833780820191505090505b50905060005b838054905081101562002a8457600084828154811062002949576200294862003ccd565b5b9060005260206000200160009054906101000a900473ffffffffffffffffffffffffffffffffffffffff1690508073ffffffffffffffffffffffffffffffffffffffff166308551a536040518163ffffffff1660e01b8152600401602060405180830381865afa158015620029c2573d6000803e3d6000fd5b505050506040513d601f19601f82011682018060405250810190620029e8919062003e00565b73ffffffffffffffffffffffffffffffffffffffff163373ffffffffffffffffffffffffffffffffffffffff160362002a6d578083838151811062002a325762002a3162003ccd565b5b602002602001019073ffffffffffffffffffffffffffffffffffffffff16908173ffffffffffffffffffffffffffffffffffffffff16815250505b50808062002a7b9062003cfc565b91505062002924565b5080935050505090565b60606000600260003373ffffffffffffffffffffffffffffffffffffffff1673ffffffffffffffffffffffffffffffffffffffff168152602001908152602001600020600001805462002ae19062003a73565b905011801562002b805750600073ffffffffffffffffffffffffffffffffffffffff16600260003373ffffffffffffffffffffffffffffffffffffffff1673ffffffffffffffffffffffffffffffffffffffff16815260200190815260200160002060030160009054906101000a900473ffffffffffffffffffffffffffffffffffffffff1673ffffffffffffffffffffffffffffffffffffffff1614155b801562002bdd57506000600260003373ffffffffffffffffffffffffffffffffffffffff1673ffffffffffffffffffffffffffffffffffffffff168152602001908152602001600020600401805462002bd99062003a73565b9050115b62002be757600080fd5b6000600360003373ffffffffffffffffffffffffffffffffffffffff1673ffffffffffffffffffffffffffffffffffffffff16815260200190815260200160002090506000805b828054905081101562002d4d57600083828154811062002c535762002c5262003ccd565b5b9060005260206000200160009054906101000a900473ffffffffffffffffffffffffffffffffffffffff1690508073ffffffffffffffffffffffffffffffffffffffff16637150d8ae6040518163ffffffff1660e01b8152600401602060405180830381865afa15801562002ccc573d6000803e3d6000fd5b505050506040513d601f19601f8201168201806040525081019062002cf2919062003e00565b73ffffffffffffffffffffffffffffffffffffffff163373ffffffffffffffffffffffffffffffffffffffff160362002d3657828062002d329062003cfc565b9350505b50808062002d449062003cfc565b91505062002c2e565b5060008167ffffffffffffffff81111562002d6d5762002d6c620036b3565b5b60405190808252806020026020018201604052801562002d9c5781602001602082028036833780820191505090505b50905060005b838054905081101562002f0257600084828154811062002dc75762002dc662003ccd565b5b9060005260206000200160009054906101000a900473ffffffffffffffffffffffffffffffffffffffff1690508073ffffffffffffffffffffffffffffffffffffffff16637150d8ae6040518163ffffffff1660e01b8152600401602060405180830381865afa15801562002e40573d6000803e3d6000fd5b505050506040513d601f19601f8201168201806040525081019062002e66919062003e00565b73ffffffffffffffffffffffffffffffffffffffff163373ffffffffffffffffffffffffffffffffffffffff160362002eeb578083838151811062002eb05762002eaf62003ccd565b5b602002602001019073ffffffffffffffffffffffffffffffffffffffff16908173ffffffffffffffffffffffffffffffffffffffff16815250505b50808062002ef99062003cfc565b91505062002da2565b5080935050505090565b610ec18062003e3383390190565b6040518060a00160405280606081526020016000815260200160008152602001600073ffffffffffffffffffffffffffffffffffffffff168152602001606081525090565b82805462002f6d9062003a73565b90600052602060002090601f01602090048101928262002f91576000855562002fdd565b82601f1062002fac57805160ff191683800117855562002fdd565b8280016001018555821562002fdd579182015b8281111562002fdc57825182559160200191906001019062002fbf565b5b50905062002fec91906200305d565b5090565b6040518060c00160405280600063ffffffff1681526020016060815260200160008152602001600063ffffffff168152602001600073ffffffffffffffffffffffffffffffffffffffff16815260200160006002811115620030575762003056620031cd565b5b81525090565b5b80821115620030785760008160009055506001016200305e565b5090565b600081519050919050565b600082825260208201905092915050565b6000819050602082019050919050565b600063ffffffff82169050919050565b620030c381620030a8565b82525050565b600081519050919050565b600082825260208201905092915050565b60005b8381101562003105578082015181840152602081019050620030e8565b8381111562003115576000848401525b50505050565b6000601f19601f8301169050919050565b60006200313982620030c9565b620031458185620030d4565b935062003157818560208601620030e5565b62003162816200311b565b840191505092915050565b6000819050919050565b62003182816200316d565b82525050565b600073ffffffffffffffffffffffffffffffffffffffff82169050919050565b6000620031b58262003188565b9050919050565b620031c781620031a8565b82525050565b7f4e487b7100000000000000000000000000000000000000000000000000000000600052602160045260246000fd5b6003811062003210576200320f620031cd565b5b50565b60008190506200322382620031fc565b919050565b6000620032358262003213565b9050919050565b620032478162003228565b82525050565b600060c083016000830151620032676000860182620030b8565b50602083015184820360208601526200328182826200312c565b915050604083015162003298604086018262003177565b506060830151620032ad6060860182620030b8565b506080830151620032c26080860182620031bc565b5060a0830151620032d760a08601826200323c565b508091505092915050565b6000620032f083836200324d565b905092915050565b6000602082019050919050565b600062003312826200307c565b6200331e818562003087565b935083602082028501620033328562003098565b8060005b85811015620033745784840389528151620033528582620032e2565b94506200335f83620032f8565b925060208a0199505060018101905062003336565b50829750879550505050505092915050565b60006020820190508181036000830152620033a2818462003305565b905092915050565b6000604051905090565b600080fd5b600080fd5b620033c981620030a8565b8114620033d557600080fd5b50565b600081359050620033e981620033be565b92915050565b600060208284031215620034085762003407620033b4565b5b60006200341884828501620033d8565b91505092915050565b6200342c8162003228565b82525050565b600060208201905062003449600083018462003421565b92915050565b6200345a81620031a8565b81146200346657600080fd5b50565b6000813590506200347a816200344f565b92915050565b600060208284031215620034995762003498620033b4565b5b6000620034a98482850162003469565b91505092915050565b600060a0830160008301518482036000860152620034d182826200312c565b9150506020830151620034e8602086018262003177565b506040830151620034fd604086018262003177565b506060830151620035126060860182620031bc565b50608083015184820360808601526200352c82826200312c565b9150508091505092915050565b60006020820190508181036000830152620035558184620034b2565b905092915050565b600081519050919050565b600082825260208201905092915050565b6000819050602082019050919050565b6000819050919050565b6000620035b4620035ae620035a88462003188565b62003589565b62003188565b9050919050565b6000620035c88262003593565b9050919050565b6000620035dc82620035bb565b9050919050565b620035ee81620035cf565b82525050565b6000620036028383620035e3565b60208301905092915050565b6000602082019050919050565b600062003628826200355d565b62003634818562003568565b9350620036418362003579565b8060005b83811015620036785781516200365c8882620035f4565b975062003669836200360e565b92505060018101905062003645565b5085935050505092915050565b60006020820190508181036000830152620036a181846200361b565b905092915050565b600080fd5b600080fd5b7f4e487b7100000000000000000000000000000000000000000000000000000000600052604160045260246000fd5b620036ed826200311b565b810181811067ffffffffffffffff821117156200370f576200370e620036b3565b5b80604052505050565b600062003724620033aa565b9050620037328282620036e2565b919050565b600067ffffffffffffffff821115620037555762003754620036b3565b5b62003760826200311b565b9050602081019050919050565b82818337600083830152505050565b6000620037936200378d8462003737565b62003718565b905082815260208101848484011115620037b257620037b1620036ae565b5b620037bf8482856200376d565b509392505050565b600082601f830112620037df57620037de620036a9565b5b8135620037f18482602086016200377c565b91505092915050565b600080600060608486031215620038165762003815620033b4565b5b60006200382686828701620033d8565b935050602084013567ffffffffffffffff8111156200384a5762003849620033b9565b5b6200385886828701620037c7565b92505060406200386b86828701620033d8565b9150509250925092565b62003880816200316d565b82525050565b60006020820190506200389d600083018462003875565b92915050565b600060c083016000830151620038bd6000860182620030b8565b5060208301518482036020860152620038d782826200312c565b9150506040830151620038ee604086018262003177565b506060830151620039036060860182620030b8565b506080830151620039186080860182620031bc565b5060a08301516200392d60a08601826200323c565b508091505092915050565b60006020820190508181036000830152620039548184620038a3565b905092915050565b60008060408385031215620039765762003975620033b4565b5b600083013567ffffffffffffffff811115620039975762003996620033b9565b5b620039a585828601620037c7565b925050602083013567ffffffffffffffff811115620039c957620039c8620033b9565b5b620039d785828601620037c7565b9150509250929050565b620039ec816200316d565b8114620039f857600080fd5b50565b60008135905062003a0c81620039e1565b92915050565b60006020828403121562003a2b5762003a2a620033b4565b5b600062003a3b84828501620039fb565b91505092915050565b7f4e487b7100000000000000000000000000000000000000000000000000000000600052602260045260246000fd5b6000600282049050600182168062003a8c57607f821691505b60208210810362003aa25762003aa162003a44565b5b50919050565b62003ab381620030a8565b82525050565b600062003ada62003ad462003ace84620030a8565b62003589565b6200316d565b9050919050565b62003aec8162003ab9565b82525050565b62003afd81620031a8565b82525050565b600060a08201905062003b1a600083018862003aa8565b62003b29602083018762003875565b62003b38604083018662003ae1565b62003b47606083018562003af2565b62003b56608083018462003af2565b9695505050505050565b7f4e487b7100000000000000000000000000000000000000000000000000000000600052601160045260246000fd5b600062003b9c82620030a8565b915062003ba983620030a8565b92508263ffffffff0382111562003bc55762003bc462003b60565b5b828201905092915050565b600082825260208201905092915050565b60008190508160005260206000209050919050565b6000815462003c058162003a73565b62003c11818662003bd0565b9450600182166000811462003c2f576001811462003c425762003c79565b60ff198316865260208601935062003c79565b62003c4d8562003be1565b60005b8381101562003c715781548189015260018201915060208101905062003c50565b808801955050505b50505092915050565b6000606082019050818103600083015262003c9e818662003bf6565b9050818103602083015262003cb4818562003bf6565b905062003cc5604083018462003af2565b949350505050565b7f4e487b7100000000000000000000000000000000000000000000000000000000600052603260045260246000fd5b600062003d09826200316d565b91507fffffffffffffffffffffffffffffffffffffffffffffffffffffffffffffffff820362003d3e5762003d3d62003b60565b5b600182019050919050565b7f4974656d206e6f7420666f756e64000000000000000000000000000000000000600082015250565b600062003d81600e8362003bd0565b915062003d8e8262003d49565b602082019050919050565b6000602082019050818103600083015262003db48162003d72565b9050919050565b600062003dc88262003188565b9050919050565b62003dda8162003dbb565b811462003de657600080fd5b50565b60008151905062003dfa8162003dcf565b92915050565b60006020828403121562003e195762003e18620033b4565b5b600062003e298482850162003de9565b9150509291505056fe60806040523480156200001157600080fd5b5060405162000ec138038062000ec1833981810160405281019062000037919062000213565b84600160006101000a81548163ffffffff021916908363ffffffff16021790555080600260006101000a81548173ffffffffffffffffffffffffffffffffffffffff021916908373ffffffffffffffffffffffffffffffffffffffff16021790555081600160046101000a81548173ffffffffffffffffffffffffffffffffffffffff021916908373ffffffffffffffffffffffffffffffffffffffff160217905550826002620000e99190620002ca565b841462000122576040517f53d1399200000000000000000000000000000000000000000000000000000000815260040160405180910390fd5b50505050506200032b565b600080fd5b600063ffffffff82169050919050565b6200014d8162000132565b81146200015957600080fd5b50565b6000815190506200016d8162000142565b92915050565b6000819050919050565b620001888162000173565b81146200019457600080fd5b50565b600081519050620001a8816200017d565b92915050565b600073ffffffffffffffffffffffffffffffffffffffff82169050919050565b6000620001db82620001ae565b9050919050565b620001ed81620001ce565b8114620001f957600080fd5b50565b6000815190506200020d81620001e2565b92915050565b600080600080600060a086880312156200023257620002316200012d565b5b600062000242888289016200015c565b9550506020620002558882890162000197565b9450506040620002688882890162000197565b93505060606200027b88828901620001fc565b92505060806200028e88828901620001fc565b9150509295509295909350565b7f4e487b7100000000000000000000000000000000000000000000000000000000600052601160045260246000fd5b6000620002d78262000173565b9150620002e48362000173565b9250817fffffffffffffffffffffffffffffffffffffffffffffffffffffffffffffffff048311821515161562000320576200031f6200029b565b5b828202905092915050565b610b86806200033b6000396000f3fe60806040526004361061009c5760003560e01c80635a43c66e116100645780635a43c66e146101435780637150d8ae1461016e57806373fac6f0146101995780637e2f42e7146101b0578063c19d93fb146101db578063c7981b1b146102065761009c565b806308551a53146100a15780631f7b8884146100cc57806332d414dc146100d657806335a063b4146101015780633fa4f24514610118575b600080fd5b3480156100ad57600080fd5b506100b661021d565b6040516100c391906109ac565b60405180910390f35b6100d4610243565b005b3480156100e257600080fd5b506100eb6103ae565b6040516100f891906109e6565b60405180910390f35b34801561010d57600080fd5b506101166103c8565b005b34801561012457600080fd5b5061012d610580565b60405161013a9190610a1a565b60405180910390f35b34801561014f57600080fd5b50610158610586565b6040516101659190610aac565b60405180910390f35b34801561017a57600080fd5b5061018361059d565b60405161019091906109ac565b60405180910390f35b3480156101a557600080fd5b506101ae6105c3565b005b3480156101bc57600080fd5b506101c561077c565b6040516101d291906109e6565b60405180910390f35b3480156101e757600080fd5b506101f0610792565b6040516101fd9190610aac565b60405180910390f35b34801561021257600080fd5b5061021b6107a5565b005b600160049054906101000a900473ffffffffffffffffffffffffffffffffffffffff1681565b600080600381111561025857610257610a35565b5b600260149054906101000a900460ff16600381111561027a57610279610a35565b5b146102b1576040517fbaf3f0f700000000000000000000000000000000000000000000000000000000815260040160405180910390fd5b600160049054906101000a900473ffffffffffffffffffffffffffffffffffffffff1673ffffffffffffffffffffffffffffffffffffffff163373ffffffffffffffffffffffffffffffffffffffff1614610338576040517f85d1f72600000000000000000000000000000000000000000000000000000000815260040160405180910390fd5b60005460026103479190610af6565b34148061035357600080fd5b7fd38d6799315b613e5721313e07e327b0e8a305fcc442174a6c3bb26fb6463fb660405160405180910390a16001600260146101000a81548160ff021916908360038111156103a5576103a4610a35565b5b02179055505050565b6000600160009054906101000a900463ffffffff16905090565b600260009054906101000a900473ffffffffffffffffffffffffffffffffffffffff1673ffffffffffffffffffffffffffffffffffffffff163373ffffffffffffffffffffffffffffffffffffffff161461044f576040517f86efbb5500000000000000000000000000000000000000000000000000000000815260040160405180910390fd5b600080600381111561046457610463610a35565b5b600260149054906101000a900460ff16600381111561048657610485610a35565b5b146104bd576040517fbaf3f0f700000000000000000000000000000000000000000000000000000000815260040160405180910390fd5b7f72c874aeff0b183a56e2b79c71b46e1aed4dee5e09862134b8821ba2fddbf8bf60405160405180910390a16003600260146101000a81548160ff0219169083600381111561050f5761050e610a35565b5b0217905550600260009054906101000a900473ffffffffffffffffffffffffffffffffffffffff1673ffffffffffffffffffffffffffffffffffffffff166108fc479081150290604051600060405180830381858888f1935050505015801561057c573d6000803e3d6000fd5b5050565b60005481565b6000600260149054906101000a900460ff16905090565b600260009054906101000a900473ffffffffffffffffffffffffffffffffffffffff1681565b600260009054906101000a900473ffffffffffffffffffffffffffffffffffffffff1673ffffffffffffffffffffffffffffffffffffffff163373ffffffffffffffffffffffffffffffffffffffff161461064a576040517f86efbb5500000000000000000000000000000000000000000000000000000000815260040160405180910390fd5b600180600381111561065f5761065e610a35565b5b600260149054906101000a900460ff16600381111561068157610680610a35565b5b146106b8576040517fbaf3f0f700000000000000000000000000000000000000000000000000000000815260040160405180910390fd5b7fe89152acd703c9d8c7d28829d443260b411454d45394e7995815140c8cbcbcf760405160405180910390a160028060146101000a81548160ff0219169083600381111561070957610708610a35565b5b0217905550600260009054906101000a900473ffffffffffffffffffffffffffffffffffffffff1673ffffffffffffffffffffffffffffffffffffffff166108fc6000549081150290604051600060405180830381858888f19350505050158015610778573d6000803e3d6000fd5b5050565b600160009054906101000a900463ffffffff1681565b600260149054906101000a900460ff1681565b600160049054906101000a900473ffffffffffffffffffffffffffffffffffffffff1673ffffffffffffffffffffffffffffffffffffffff163373ffffffffffffffffffffffffffffffffffffffff161461082c576040517f85d1f72600000000000000000000000000000000000000000000000000000000815260040160405180910390fd5b600280600381111561084157610840610a35565b5b600260149054906101000a900460ff16600381111561086357610862610a35565b5b1461089a576040517fbaf3f0f700000000000000000000000000000000000000000000000000000000815260040160405180910390fd5b7ffda69c32bcfdba840a167777906b173b607eb8b4d8853b97a80d26e613d858db60405160405180910390a16003600260146101000a81548160ff021916908360038111156108ec576108eb610a35565b5b0217905550600160049054906101000a900473ffffffffffffffffffffffffffffffffffffffff1673ffffffffffffffffffffffffffffffffffffffff166108fc600054600361093c9190610af6565b9081150290604051600060405180830381858888f19350505050158015610967573d6000803e3d6000fd5b5050565b600073ffffffffffffffffffffffffffffffffffffffff82169050919050565b60006109968261096b565b9050919050565b6109a68161098b565b82525050565b60006020820190506109c1600083018461099d565b92915050565b600063ffffffff82169050919050565b6109e0816109c7565b82525050565b60006020820190506109fb60008301846109d7565b92915050565b6000819050919050565b610a1481610a01565b82525050565b6000602082019050610a2f6000830184610a0b565b92915050565b7f4e487b7100000000000000000000000000000000000000000000000000000000600052602160045260246000fd5b60048110610a7557610a74610a35565b5b50565b6000819050610a8682610a64565b919050565b6000610a9682610a78565b9050919050565b610aa681610a8b565b82525050565b6000602082019050610ac16000830184610a9d565b92915050565b7f4e487b7100000000000000000000000000000000000000000000000000000000600052601160045260246000fd5b6000610b0182610a01565b9150610b0c83610a01565b9250817fffffffffffffffffffffffffffffffffffffffffffffffffffffffffffffffff0483118215151615610b4557610b44610ac7565b5b82820290509291505056fea2646970667358221220cd57eb56e71dabe3f799154ec20f3a76c7b32dff3b7fd7e751e77a5621f3eff264736f6c634300080d0033a26469706673582212206f40fc9102e86c3d9acb4e651526895874869ed15fd94df3bc96e8adeeb3c4fb64736f6c634300080d0033",
  "immutableReferences": {},
  "source": "// SPDX-License-Identifier: GPL-3.0\npragma solidity >=0.7.0 <0.9.0;\n\nimport {Dbay} from './Dbay.sol';\n\ncontract ExposedDbay is Dbay{\n    function _findGoodById(uint32 goodId) public view isUser returns(Good memory){\n        Good memory good = findGoodById(goodId);\n        return good;\n    }\n}",
  "sourcePath": "/Users/edwardcox/crypto/dbay/contracts/ExposedDbay.sol",
  "compiler": {
    "name": "solc",
    "version": "0.8.13+commit.abaa5c0e.Emscripten.clang"
  },
  "schemaVersion": "3.4.7",
  "updatedAt": "2022-05-29T19:29:02.435Z",
  "devdoc": {
    "kind": "dev",
    "methods": {},
    "version": 1
  },
  "userdoc": {
    "kind": "user",
    "methods": {},
    "version": 1
  }
}