{
  "contractName": "ExposedDbay",
  "abi": [
    {
      "anonymous": false,
      "inputs": [
        {
          "indexed": false,
          "internalType": "string",
          "name": "username",
          "type": "string"
        },
        {
          "indexed": false,
          "internalType": "string",
          "name": "shippingAddr",
          "type": "string"
        },
        {
          "indexed": false,
          "internalType": "address",
          "name": "wallet",
          "type": "address"
        }
      ],
      "name": "NewUser",
      "type": "event"
    },
    {
      "anonymous": false,
      "inputs": [
        {
          "indexed": false,
          "internalType": "uint256",
          "name": "count",
          "type": "uint256"
        }
      ],
      "name": "PurchaseCount",
      "type": "event"
    },
    {
      "anonymous": false,
      "inputs": [
        {
          "indexed": false,
          "internalType": "uint256",
          "name": "count",
          "type": "uint256"
        }
      ],
      "name": "SoldCount",
      "type": "event"
    },
    {
      "anonymous": false,
      "inputs": [
        {
          "indexed": true,
          "internalType": "address",
          "name": "_from",
          "type": "address"
        },
        {
          "indexed": false,
          "internalType": "string",
          "name": "itemName",
          "type": "string"
        },
        {
          "indexed": false,
          "internalType": "uint32",
          "name": "itemPrice",
          "type": "uint32"
        },
        {
          "indexed": false,
          "internalType": "uint32",
          "name": "itemQuantity",
          "type": "uint32"
        },
        {
          "indexed": false,
          "internalType": "string",
          "name": "sellerName",
          "type": "string"
        },
        {
          "indexed": false,
          "internalType": "uint256",
          "name": "sellerRep",
          "type": "uint256"
        }
      ],
      "name": "UpdateListings",
      "type": "event"
    },
    {
      "inputs": [],
      "name": "GoodState",
      "outputs": [
        {
          "internalType": "enum Dbay.State",
          "name": "",
          "type": "uint8"
        }
      ],
      "stateMutability": "view",
      "type": "function"
    },
    {
      "inputs": [],
      "name": "accept",
      "outputs": [],
      "stateMutability": "payable",
      "type": "function"
    },
    {
      "inputs": [
        {
          "internalType": "uint32",
          "name": "_goodId",
          "type": "uint32"
        }
      ],
      "name": "buyItem",
      "outputs": [],
      "stateMutability": "payable",
      "type": "function"
    },
    {
      "inputs": [
        {
          "internalType": "string",
          "name": "username",
          "type": "string"
        },
        {
          "internalType": "string",
          "name": "shippingAddr",
          "type": "string"
        }
      ],
      "name": "createProfile",
      "outputs": [],
      "stateMutability": "nonpayable",
      "type": "function"
    },
    {
      "inputs": [
        {
          "internalType": "uint32",
          "name": "_goodId",
          "type": "uint32"
        }
      ],
      "name": "findGoodById",
      "outputs": [
        {
          "components": [
            {
              "internalType": "uint32",
              "name": "price",
              "type": "uint32"
            },
            {
              "internalType": "string",
              "name": "name",
              "type": "string"
            },
            {
              "internalType": "uint256",
              "name": "quantity",
              "type": "uint256"
            },
            {
              "internalType": "uint32",
              "name": "id",
              "type": "uint32"
            },
            {
              "internalType": "address",
              "name": "owner",
              "type": "address"
            },
            {
              "internalType": "enum Dbay.State",
              "name": "state",
              "type": "uint8"
            }
          ],
          "internalType": "struct Dbay.Good",
          "name": "",
          "type": "tuple"
        }
      ],
      "stateMutability": "view",
      "type": "function"
    },
    {
      "inputs": [],
      "name": "getAccount",
      "outputs": [
        {
          "components": [
            {
              "internalType": "string",
              "name": "username",
              "type": "string"
            },
            {
              "internalType": "uint256",
              "name": "buyerRep",
              "type": "uint256"
            },
            {
              "internalType": "uint256",
              "name": "sellerRep",
              "type": "uint256"
            },
            {
              "internalType": "address",
              "name": "wallet",
              "type": "address"
            },
            {
              "internalType": "string",
              "name": "shippingAddr",
              "type": "string"
            }
          ],
          "internalType": "struct Dbay.User",
          "name": "user",
          "type": "tuple"
        }
      ],
      "stateMutability": "view",
      "type": "function"
    },
    {
      "inputs": [
        {
          "internalType": "uint256",
          "name": "id",
          "type": "uint256"
        }
      ],
      "name": "getItemById",
      "outputs": [
        {
          "components": [
            {
              "internalType": "uint32",
              "name": "price",
              "type": "uint32"
            },
            {
              "internalType": "string",
              "name": "name",
              "type": "string"
            },
            {
              "internalType": "uint256",
              "name": "quantity",
              "type": "uint256"
            },
            {
              "internalType": "uint32",
              "name": "id",
              "type": "uint32"
            },
            {
              "internalType": "address",
              "name": "owner",
              "type": "address"
            },
            {
              "internalType": "enum Dbay.State",
              "name": "state",
              "type": "uint8"
            }
          ],
          "internalType": "struct Dbay.Good",
          "name": "good",
          "type": "tuple"
        }
      ],
      "stateMutability": "view",
      "type": "function"
    },
    {
      "inputs": [],
      "name": "getListedItems",
      "outputs": [
        {
          "components": [
            {
              "internalType": "uint32",
              "name": "price",
              "type": "uint32"
            },
            {
              "internalType": "string",
              "name": "name",
              "type": "string"
            },
            {
              "internalType": "uint256",
              "name": "quantity",
              "type": "uint256"
            },
            {
              "internalType": "uint32",
              "name": "id",
              "type": "uint32"
            },
            {
              "internalType": "address",
              "name": "owner",
              "type": "address"
            },
            {
              "internalType": "enum Dbay.State",
              "name": "state",
              "type": "uint8"
            }
          ],
          "internalType": "struct Dbay.Good[]",
          "name": "",
          "type": "tuple[]"
        }
      ],
      "stateMutability": "view",
      "type": "function"
    },
    {
      "inputs": [],
      "name": "getOwnItems",
      "outputs": [
        {
          "components": [
            {
              "internalType": "uint32",
              "name": "price",
              "type": "uint32"
            },
            {
              "internalType": "string",
              "name": "name",
              "type": "string"
            },
            {
              "internalType": "uint256",
              "name": "quantity",
              "type": "uint256"
            },
            {
              "internalType": "uint32",
              "name": "id",
              "type": "uint32"
            },
            {
              "internalType": "address",
              "name": "owner",
              "type": "address"
            },
            {
              "internalType": "enum Dbay.State",
              "name": "state",
              "type": "uint8"
            }
          ],
          "internalType": "struct Dbay.Good[]",
          "name": "",
          "type": "tuple[]"
        }
      ],
      "stateMutability": "view",
      "type": "function"
    },
    {
      "inputs": [],
      "name": "getPurchasesLength",
      "outputs": [
        {
          "internalType": "uint256",
          "name": "",
          "type": "uint256"
        }
      ],
      "stateMutability": "view",
      "type": "function"
    },
    {
      "inputs": [],
      "name": "getSoldArr",
      "outputs": [
        {
          "internalType": "contract Transaction[]",
          "name": "",
          "type": "address[]"
        }
      ],
      "stateMutability": "view",
      "type": "function"
    },
    {
      "inputs": [],
      "name": "getSoldItems",
      "outputs": [
        {
          "components": [
            {
              "internalType": "uint32",
              "name": "price",
              "type": "uint32"
            },
            {
              "internalType": "string",
              "name": "name",
              "type": "string"
            },
            {
              "internalType": "uint256",
              "name": "quantity",
              "type": "uint256"
            },
            {
              "internalType": "uint32",
              "name": "id",
              "type": "uint32"
            },
            {
              "internalType": "address",
              "name": "owner",
              "type": "address"
            },
            {
              "internalType": "enum Dbay.State",
              "name": "state",
              "type": "uint8"
            }
          ],
          "internalType": "struct Dbay.Good[]",
          "name": "",
          "type": "tuple[]"
        }
      ],
      "stateMutability": "view",
      "type": "function"
    },
    {
      "inputs": [],
      "name": "getSoldLength",
      "outputs": [
        {
          "internalType": "uint256",
          "name": "",
          "type": "uint256"
        }
      ],
      "stateMutability": "view",
      "type": "function"
    },
    {
      "inputs": [
        {
          "internalType": "address",
          "name": "addr",
          "type": "address"
        }
      ],
      "name": "getUser",
      "outputs": [
        {
          "components": [
            {
              "internalType": "string",
              "name": "username",
              "type": "string"
            },
            {
              "internalType": "uint256",
              "name": "buyerRep",
              "type": "uint256"
            },
            {
              "internalType": "uint256",
              "name": "sellerRep",
              "type": "uint256"
            },
            {
              "internalType": "address",
              "name": "wallet",
              "type": "address"
            },
            {
              "internalType": "string",
              "name": "shippingAddr",
              "type": "string"
            }
          ],
          "internalType": "struct Dbay.User",
          "name": "",
          "type": "tuple"
        }
      ],
      "stateMutability": "view",
      "type": "function"
    },
    {
      "inputs": [
        {
          "internalType": "uint32",
          "name": "price",
          "type": "uint32"
        },
        {
          "internalType": "string",
          "name": "name",
          "type": "string"
        },
        {
          "internalType": "uint32",
          "name": "quantity",
          "type": "uint32"
        }
      ],
      "name": "listItem",
      "outputs": [],
      "stateMutability": "nonpayable",
      "type": "function"
    },
    {
      "inputs": [
        {
          "internalType": "uint32",
          "name": "goodId",
          "type": "uint32"
        }
      ],
      "name": "_findGoodById",
      "outputs": [
        {
          "components": [
            {
              "internalType": "uint32",
              "name": "price",
              "type": "uint32"
            },
            {
              "internalType": "string",
              "name": "name",
              "type": "string"
            },
            {
              "internalType": "uint256",
              "name": "quantity",
              "type": "uint256"
            },
            {
              "internalType": "uint32",
              "name": "id",
              "type": "uint32"
            },
            {
              "internalType": "address",
              "name": "owner",
              "type": "address"
            },
            {
              "internalType": "enum Dbay.State",
              "name": "state",
              "type": "uint8"
            }
          ],
          "internalType": "struct Dbay.Good",
          "name": "",
          "type": "tuple"
        }
      ],
      "stateMutability": "view",
      "type": "function"
    }
  ],
  "bytecode": "0x608060405260008060006101000a81548163ffffffff021916908363ffffffff16021790555034801561003157600080fd5b50615045806100416000396000f3fe6080604052600436106200010a5760003560e01c8063920157821162000097578063caf506901162000061578063caf506901462000353578063cd2f07101462000383578063db613e8114620003c7578063ff3c0c9814620003f7576200010a565b806392015782146200026d5780639747ea2b146200029d578063ba1feb8a14620002e1578063c2b65f7a146200030f576200010a565b80635fa435d811620000d95780635fa435d8146200019b5780636f77926b14620001cb57806379986063146200020f57806384b41be1146200023f576200010a565b806318ad151b146200010f578063212acf9b146200013f5780632852b71c146200015f57806343f9024a146200016b575b600080fd5b3480156200011c57600080fd5b506200012762000427565b604051620001369190620035f6565b60405180910390f35b6200015d60048036038101906200015791906200365f565b6200043a565b005b62000169620007b6565b005b3480156200017857600080fd5b5062000183620007b8565b604051620001929190620035f6565b60405180910390f35b348015620001a857600080fd5b50620001b362000b34565b604051620001c29190620036a2565b60405180910390f35b348015620001d857600080fd5b50620001f76004803603810190620001f19190620036f0565b62000b47565b604051620002069190620037a9565b60405180910390f35b3480156200021c57600080fd5b506200022762000d40565b604051620002369190620038f5565b60405180910390f35b3480156200024c57600080fd5b506200026b600480360381019062000265919062003a6a565b62000eae565b005b3480156200027a57600080fd5b5062000285620015ca565b60405162000294919062003af6565b60405180910390f35b348015620002aa57600080fd5b50620002c96004803603810190620002c391906200365f565b62001738565b604051620002d8919062003ba8565b60405180910390f35b348015620002ee57600080fd5b506200030d600480360381019062000307919062003bcc565b620018e6565b005b3480156200031c57600080fd5b506200033b60048036038101906200033591906200365f565b62001c83565b6040516200034a919062003ba8565b60405180910390f35b3480156200036057600080fd5b506200036b62001dfc565b6040516200037a9190620035f6565b60405180910390f35b3480156200039057600080fd5b50620003af6004803603810190620003a9919062003c82565b62001e0f565b604051620003be919062003ba8565b60405180910390f35b348015620003d457600080fd5b50620003df62001f75565b604051620003ee9190620037a9565b60405180910390f35b3480156200040457600080fd5b506200040f62002172565b6040516200041e919062003af6565b60405180910390f35b6060620004356002620022e0565b905090565b6000600260003373ffffffffffffffffffffffffffffffffffffffff1673ffffffffffffffffffffffffffffffffffffffff16815260200190815260200160002060000180546200048b9062003ce3565b90501180156200052a5750600073ffffffffffffffffffffffffffffffffffffffff16600260003373ffffffffffffffffffffffffffffffffffffffff1673ffffffffffffffffffffffffffffffffffffffff16815260200190815260200160002060030160009054906101000a900473ffffffffffffffffffffffffffffffffffffffff1673ffffffffffffffffffffffffffffffffffffffff1614155b80156200058757506000600260003373ffffffffffffffffffffffffffffffffffffffff1673ffffffffffffffffffffffffffffffffffffffff1681526020019081526020016000206004018054620005839062003ce3565b9050115b6200059157600080fd5b60006200059e82620027b4565b905060028160030160186101000a81548160ff02191690836002811115620005cb57620005ca6200343d565b5b0217905550600082348360000160009054906101000a900463ffffffff168460030160049054906101000a900473ffffffffffffffffffffffffffffffffffffffff16336040516200061d906200317c565b6200062d95949392919062003d73565b604051809103906000f0801580156200064a573d6000803e3d6000fd5b509050600360008360030160049054906101000a900473ffffffffffffffffffffffffffffffffffffffff1673ffffffffffffffffffffffffffffffffffffffff1673ffffffffffffffffffffffffffffffffffffffff168152602001908152602001600020819080600181540180825580915050600190039060005260206000200160009091909190916101000a81548173ffffffffffffffffffffffffffffffffffffffff021916908373ffffffffffffffffffffffffffffffffffffffff160217905550600360003373ffffffffffffffffffffffffffffffffffffffff1673ffffffffffffffffffffffffffffffffffffffff168152602001908152602001600020819080600181540180825580915050600190039060005260206000200160009091909190916101000a81548173ffffffffffffffffffffffffffffffffffffffff021916908373ffffffffffffffffffffffffffffffffffffffff160217905550505050565b565b60606000600260003373ffffffffffffffffffffffffffffffffffffffff1673ffffffffffffffffffffffffffffffffffffffff16815260200190815260200160002060000180546200080b9062003ce3565b9050118015620008aa5750600073ffffffffffffffffffffffffffffffffffffffff16600260003373ffffffffffffffffffffffffffffffffffffffff1673ffffffffffffffffffffffffffffffffffffffff16815260200190815260200160002060030160009054906101000a900473ffffffffffffffffffffffffffffffffffffffff1673ffffffffffffffffffffffffffffffffffffffff1614155b80156200090757506000600260003373ffffffffffffffffffffffffffffffffffffffff1673ffffffffffffffffffffffffffffffffffffffff1681526020019081526020016000206004018054620009039062003ce3565b9050115b6200091157600080fd5b600460003373ffffffffffffffffffffffffffffffffffffffff1673ffffffffffffffffffffffffffffffffffffffff168152602001908152602001600020805480602002602001604051908101604052809291908181526020016000905b8282101562000b2b57838290600052602060002090600402016040518060c00160405290816000820160009054906101000a900463ffffffff1663ffffffff1663ffffffff168152602001600182018054620009cc9062003ce3565b80601f0160208091040260200160405190810160405280929190818152602001828054620009fa9062003ce3565b801562000a4b5780601f1062000a1f5761010080835404028352916020019162000a4b565b820191906000526020600020905b81548152906001019060200180831162000a2d57829003601f168201915b50505050508152602001600282015481526020016003820160009054906101000a900463ffffffff1663ffffffff1663ffffffff1681526020016003820160049054906101000a900473ffffffffffffffffffffffffffffffffffffffff1673ffffffffffffffffffffffffffffffffffffffff1673ffffffffffffffffffffffffffffffffffffffff1681526020016003820160189054906101000a900460ff16600281111562000b025762000b016200343d565b5b600281111562000b175762000b166200343d565b5b815250508152602001906001019062000970565b50505050905090565b600060049054906101000a900460ff1681565b62000b516200318a565b600260008373ffffffffffffffffffffffffffffffffffffffff1673ffffffffffffffffffffffffffffffffffffffff1681526020019081526020016000206040518060a001604052908160008201805462000bad9062003ce3565b80601f016020809104026020016040519081016040528092919081815260200182805462000bdb9062003ce3565b801562000c2c5780601f1062000c005761010080835404028352916020019162000c2c565b820191906000526020600020905b81548152906001019060200180831162000c0e57829003601f168201915b5050505050815260200160018201548152602001600282015481526020016003820160009054906101000a900473ffffffffffffffffffffffffffffffffffffffff1673ffffffffffffffffffffffffffffffffffffffff1673ffffffffffffffffffffffffffffffffffffffff16815260200160048201805462000cb19062003ce3565b80601f016020809104026020016040519081016040528092919081815260200182805462000cdf9062003ce3565b801562000d305780601f1062000d045761010080835404028352916020019162000d30565b820191906000526020600020905b81548152906001019060200180831162000d1257829003601f168201915b5050505050815250509050919050565b60606000600260003373ffffffffffffffffffffffffffffffffffffffff1673ffffffffffffffffffffffffffffffffffffffff168152602001908152602001600020600001805462000d939062003ce3565b905011801562000e325750600073ffffffffffffffffffffffffffffffffffffffff16600260003373ffffffffffffffffffffffffffffffffffffffff1673ffffffffffffffffffffffffffffffffffffffff16815260200190815260200160002060030160009054906101000a900473ffffffffffffffffffffffffffffffffffffffff1673ffffffffffffffffffffffffffffffffffffffff1614155b801562000e8f57506000600260003373ffffffffffffffffffffffffffffffffffffffff1673ffffffffffffffffffffffffffffffffffffffff168152602001908152602001600020600401805462000e8b9062003ce3565b9050115b62000e9957600080fd5b600062000ea562002880565b90508091505090565b6000600260003373ffffffffffffffffffffffffffffffffffffffff1673ffffffffffffffffffffffffffffffffffffffff168152602001908152602001600020600001805462000eff9062003ce3565b905011801562000f9e5750600073ffffffffffffffffffffffffffffffffffffffff16600260003373ffffffffffffffffffffffffffffffffffffffff1673ffffffffffffffffffffffffffffffffffffffff16815260200190815260200160002060030160009054906101000a900473ffffffffffffffffffffffffffffffffffffffff1673ffffffffffffffffffffffffffffffffffffffff1614155b801562000ffb57506000600260003373ffffffffffffffffffffffffffffffffffffffff1673ffffffffffffffffffffffffffffffffffffffff168152602001908152602001600020600401805462000ff79062003ce3565b9050115b6200100557600080fd5b60008363ffffffff16116200101957600080fd5b60008163ffffffff16116200102d57600080fd5b60008251116200103c57600080fd5b6000600260003373ffffffffffffffffffffffffffffffffffffffff1673ffffffffffffffffffffffffffffffffffffffff1681526020019081526020016000206040518060a00160405290816000820180546200109a9062003ce3565b80601f0160208091040260200160405190810160405280929190818152602001828054620010c89062003ce3565b8015620011195780601f10620010ed5761010080835404028352916020019162001119565b820191906000526020600020905b815481529060010190602001808311620010fb57829003601f168201915b5050505050815260200160018201548152602001600282015481526020016003820160009054906101000a900473ffffffffffffffffffffffffffffffffffffffff1673ffffffffffffffffffffffffffffffffffffffff1673ffffffffffffffffffffffffffffffffffffffff1681526020016004820180546200119e9062003ce3565b80601f0160208091040260200160405190810160405280929190818152602001828054620011cc9062003ce3565b80156200121d5780601f10620011f1576101008083540402835291602001916200121d565b820191906000526020600020905b815481529060010190602001808311620011ff57829003601f168201915b505050505081525050905060006040518060c001604052808663ffffffff1681526020018581526020018463ffffffff16815260200160008054906101000a900463ffffffff1663ffffffff1681526020013373ffffffffffffffffffffffffffffffffffffffff16815260200160016002811115620012a257620012a16200343d565b5b8152509050600460003373ffffffffffffffffffffffffffffffffffffffff1673ffffffffffffffffffffffffffffffffffffffff16815260200190815260200160002081908060018154018082558091505060019003906000526020600020906004020160009091909190915060008201518160000160006101000a81548163ffffffff021916908363ffffffff160217905550602082015181600101908051906020019062001355929190620031cf565b506040820151816002015560608201518160030160006101000a81548163ffffffff021916908363ffffffff16021790555060808201518160030160046101000a81548173ffffffffffffffffffffffffffffffffffffffff021916908373ffffffffffffffffffffffffffffffffffffffff16021790555060a08201518160030160186101000a81548160ff02191690836002811115620013fc57620013fb6200343d565b5b02179055505050600181908060018154018082558091505060019003906000526020600020906004020160009091909190915060008201518160000160006101000a81548163ffffffff021916908363ffffffff160217905550602082015181600101908051906020019062001474929190620031cf565b506040820151816002015560608201518160030160006101000a81548163ffffffff021916908363ffffffff16021790555060808201518160030160046101000a81548173ffffffffffffffffffffffffffffffffffffffff021916908373ffffffffffffffffffffffffffffffffffffffff16021790555060a08201518160030160186101000a81548160ff021916908360028111156200151b576200151a6200343d565b5b0217905550505060016000808282829054906101000a900463ffffffff1662001545919062003dff565b92506101000a81548163ffffffff021916908363ffffffff1602179055503373ffffffffffffffffffffffffffffffffffffffff167f556f6cffac859de508c06264c63b805c9340e54957842d26137289e40c7983b585878686600001518760400151604051620015bb95949392919062003e92565b60405180910390a25050505050565b600080600260003373ffffffffffffffffffffffffffffffffffffffff1673ffffffffffffffffffffffffffffffffffffffff16815260200190815260200160002060000180546200161c9062003ce3565b9050118015620016bb5750600073ffffffffffffffffffffffffffffffffffffffff16600260003373ffffffffffffffffffffffffffffffffffffffff1673ffffffffffffffffffffffffffffffffffffffff16815260200190815260200160002060030160009054906101000a900473ffffffffffffffffffffffffffffffffffffffff1673ffffffffffffffffffffffffffffffffffffffff1614155b80156200171857506000600260003373ffffffffffffffffffffffffffffffffffffffff1673ffffffffffffffffffffffffffffffffffffffff1681526020019081526020016000206004018054620017149062003ce3565b9050115b6200172257600080fd5b60006200172e62002880565b9050805191505090565b6200174262003260565b6200174d82620027b4565b6040518060c00160405290816000820160009054906101000a900463ffffffff1663ffffffff1663ffffffff168152602001600182018054620017909062003ce3565b80601f0160208091040260200160405190810160405280929190818152602001828054620017be9062003ce3565b80156200180f5780601f10620017e3576101008083540402835291602001916200180f565b820191906000526020600020905b815481529060010190602001808311620017f157829003601f168201915b50505050508152602001600282015481526020016003820160009054906101000a900463ffffffff1663ffffffff1663ffffffff1681526020016003820160049054906101000a900473ffffffffffffffffffffffffffffffffffffffff1673ffffffffffffffffffffffffffffffffffffffff1673ffffffffffffffffffffffffffffffffffffffff1681526020016003820160189054906101000a900460ff166002811115620018c657620018c56200343d565b5b6002811115620018db57620018da6200343d565b5b815250509050919050565b6000600260003373ffffffffffffffffffffffffffffffffffffffff1673ffffffffffffffffffffffffffffffffffffffff1681526020019081526020016000206000018054620019379062003ce3565b9050146200194457600080fd5b6000600260003373ffffffffffffffffffffffffffffffffffffffff1673ffffffffffffffffffffffffffffffffffffffff1681526020019081526020016000206004018054620019959062003ce3565b905014620019a257600080fd5b600073ffffffffffffffffffffffffffffffffffffffff16600260003373ffffffffffffffffffffffffffffffffffffffff1673ffffffffffffffffffffffffffffffffffffffff16815260200190815260200160002060030160009054906101000a900473ffffffffffffffffffffffffffffffffffffffff1673ffffffffffffffffffffffffffffffffffffffff161462001a3e57600080fd5b60006040518060a0016040528084815260200160008152602001600081526020013373ffffffffffffffffffffffffffffffffffffffff16815260200183815250905080600260003373ffffffffffffffffffffffffffffffffffffffff1673ffffffffffffffffffffffffffffffffffffffff168152602001908152602001600020600082015181600001908051906020019062001adf929190620031cf565b50602082015181600101556040820151816002015560608201518160030160006101000a81548173ffffffffffffffffffffffffffffffffffffffff021916908373ffffffffffffffffffffffffffffffffffffffff160217905550608082015181600401908051906020019062001b59929190620031cf565b509050507ff1a7d83728a3b9e98b78339e6bb93974d080b9c65813f14b34e2fbf3c14823fd600260003373ffffffffffffffffffffffffffffffffffffffff1673ffffffffffffffffffffffffffffffffffffffff168152602001908152602001600020600001600260003373ffffffffffffffffffffffffffffffffffffffff1673ffffffffffffffffffffffffffffffffffffffff168152602001908152602001600020600401600260003373ffffffffffffffffffffffffffffffffffffffff1673ffffffffffffffffffffffffffffffffffffffff16815260200190815260200160002060030160009054906101000a900473ffffffffffffffffffffffffffffffffffffffff1660405162001c769392919062003f9e565b60405180910390a1505050565b62001c8d62003260565b6000600260003373ffffffffffffffffffffffffffffffffffffffff1673ffffffffffffffffffffffffffffffffffffffff168152602001908152602001600020600001805462001cde9062003ce3565b905011801562001d7d5750600073ffffffffffffffffffffffffffffffffffffffff16600260003373ffffffffffffffffffffffffffffffffffffffff1673ffffffffffffffffffffffffffffffffffffffff16815260200190815260200160002060030160009054906101000a900473ffffffffffffffffffffffffffffffffffffffff1673ffffffffffffffffffffffffffffffffffffffff1614155b801562001dda57506000600260003373ffffffffffffffffffffffffffffffffffffffff1673ffffffffffffffffffffffffffffffffffffffff168152602001908152602001600020600401805462001dd69062003ce3565b9050115b62001de457600080fd5b600062001df18362001738565b905080915050919050565b606062001e0a6001620022e0565b905090565b62001e1962003260565b6000600260003373ffffffffffffffffffffffffffffffffffffffff1673ffffffffffffffffffffffffffffffffffffffff168152602001908152602001600020600001805462001e6a9062003ce3565b905011801562001f095750600073ffffffffffffffffffffffffffffffffffffffff16600260003373ffffffffffffffffffffffffffffffffffffffff1673ffffffffffffffffffffffffffffffffffffffff16815260200190815260200160002060030160009054906101000a900473ffffffffffffffffffffffffffffffffffffffff1673ffffffffffffffffffffffffffffffffffffffff1614155b801562001f6657506000600260003373ffffffffffffffffffffffffffffffffffffffff1673ffffffffffffffffffffffffffffffffffffffff168152602001908152602001600020600401805462001f629062003ce3565b9050115b62001f7057600080fd5b919050565b62001f7f6200318a565b6000600260003373ffffffffffffffffffffffffffffffffffffffff1673ffffffffffffffffffffffffffffffffffffffff1681526020019081526020016000206040518060a001604052908160008201805462001fdd9062003ce3565b80601f01602080910402602001604051908101604052809291908181526020018280546200200b9062003ce3565b80156200205c5780601f1062002030576101008083540402835291602001916200205c565b820191906000526020600020905b8154815290600101906020018083116200203e57829003601f168201915b5050505050815260200160018201548152602001600282015481526020016003820160009054906101000a900473ffffffffffffffffffffffffffffffffffffffff1673ffffffffffffffffffffffffffffffffffffffff1673ffffffffffffffffffffffffffffffffffffffff168152602001600482018054620020e19062003ce3565b80601f01602080910402602001604051908101604052809291908181526020018280546200210f9062003ce3565b8015620021605780601f10620021345761010080835404028352916020019162002160565b820191906000526020600020905b8154815290600101906020018083116200214257829003601f168201915b50505050508152505090508091505090565b600080600260003373ffffffffffffffffffffffffffffffffffffffff1673ffffffffffffffffffffffffffffffffffffffff1681526020019081526020016000206000018054620021c49062003ce3565b9050118015620022635750600073ffffffffffffffffffffffffffffffffffffffff16600260003373ffffffffffffffffffffffffffffffffffffffff1673ffffffffffffffffffffffffffffffffffffffff16815260200190815260200160002060030160009054906101000a900473ffffffffffffffffffffffffffffffffffffffff1673ffffffffffffffffffffffffffffffffffffffff1614155b8015620022c057506000600260003373ffffffffffffffffffffffffffffffffffffffff1673ffffffffffffffffffffffffffffffffffffffff1681526020019081526020016000206004018054620022bc9062003ce3565b9050115b620022ca57600080fd5b6000620022d662002cfe565b9050805191505090565b60606000805b6001805490508110156200250d576000600182815481106200230d576200230c62003fe9565b5b90600052602060002090600402016040518060c00160405290816000820160009054906101000a900463ffffffff1663ffffffff1663ffffffff1681526020016001820180546200235e9062003ce3565b80601f01602080910402602001604051908101604052809291908181526020018280546200238c9062003ce3565b8015620023dd5780601f10620023b157610100808354040283529160200191620023dd565b820191906000526020600020905b815481529060010190602001808311620023bf57829003601f168201915b50505050508152602001600282015481526020016003820160009054906101000a900463ffffffff1663ffffffff1663ffffffff1681526020016003820160049054906101000a900473ffffffffffffffffffffffffffffffffffffffff1673ffffffffffffffffffffffffffffffffffffffff1673ffffffffffffffffffffffffffffffffffffffff1681526020016003820160189054906101000a900460ff1660028111156200249457620024936200343d565b5b6002811115620024a957620024a86200343d565b5b815250509050846002811115620024c557620024c46200343d565b5b8160a001516002811115620024df57620024de6200343d565b5b03620024f6578280620024f29062004018565b9350505b508080620025049062004018565b915050620022e6565b5060008167ffffffffffffffff8111156200252d576200252c62003923565b5b6040519080825280602002602001820160405280156200256a57816020015b6200255662003260565b8152602001906001900390816200254c5790505b50905060005b600180549050811015620027a95760006001828154811062002597576200259662003fe9565b5b90600052602060002090600402016040518060c00160405290816000820160009054906101000a900463ffffffff1663ffffffff1663ffffffff168152602001600182018054620025e89062003ce3565b80601f0160208091040260200160405190810160405280929190818152602001828054620026169062003ce3565b8015620026675780601f106200263b5761010080835404028352916020019162002667565b820191906000526020600020905b8154815290600101906020018083116200264957829003601f168201915b50505050508152602001600282015481526020016003820160009054906101000a900463ffffffff1663ffffffff1663ffffffff1681526020016003820160049054906101000a900473ffffffffffffffffffffffffffffffffffffffff1673ffffffffffffffffffffffffffffffffffffffff1673ffffffffffffffffffffffffffffffffffffffff1681526020016003820160189054906101000a900460ff1660028111156200271e576200271d6200343d565b5b60028111156200273357620027326200343d565b5b8152505090508560028111156200274f576200274e6200343d565b5b8160a0015160028111156200276957620027686200343d565b5b0362002792578083838151811062002786576200278562003fe9565b5b60200260200101819052505b508080620027a09062004018565b91505062002570565b508092505050919050565b600080600090505b6001805490508110156200283d57600060018281548110620027e357620027e262003fe9565b5b906000526020600020906004020190508363ffffffff168160030160009054906101000a900463ffffffff1663ffffffff1603620028265780925050506200287b565b508080620028349062004018565b915050620027bc565b506040517f08c379a00000000000000000000000000000000000000000000000000000000081526004016200287290620040b5565b60405180910390fd5b919050565b60606000600260003373ffffffffffffffffffffffffffffffffffffffff1673ffffffffffffffffffffffffffffffffffffffff1681526020019081526020016000206000018054620028d39062003ce3565b9050118015620029725750600073ffffffffffffffffffffffffffffffffffffffff16600260003373ffffffffffffffffffffffffffffffffffffffff1673ffffffffffffffffffffffffffffffffffffffff16815260200190815260200160002060030160009054906101000a900473ffffffffffffffffffffffffffffffffffffffff1673ffffffffffffffffffffffffffffffffffffffff1614155b8015620029cf57506000600260003373ffffffffffffffffffffffffffffffffffffffff1673ffffffffffffffffffffffffffffffffffffffff1681526020019081526020016000206004018054620029cb9062003ce3565b9050115b620029d957600080fd5b6000600360003373ffffffffffffffffffffffffffffffffffffffff1673ffffffffffffffffffffffffffffffffffffffff16815260200190815260200160002090506000805b828054905081101562002b3f57600083828154811062002a455762002a4462003fe9565b5b9060005260206000200160009054906101000a900473ffffffffffffffffffffffffffffffffffffffff1690508073ffffffffffffffffffffffffffffffffffffffff166308551a536040518163ffffffff1660e01b8152600401602060405180830381865afa15801562002abe573d6000803e3d6000fd5b505050506040513d601f19601f8201168201806040525081019062002ae491906200411c565b73ffffffffffffffffffffffffffffffffffffffff163373ffffffffffffffffffffffffffffffffffffffff160362002b2857828062002b249062004018565b9350505b50808062002b369062004018565b91505062002a20565b5060008167ffffffffffffffff81111562002b5f5762002b5e62003923565b5b60405190808252806020026020018201604052801562002b8e5781602001602082028036833780820191505090505b50905060005b838054905081101562002cf457600084828154811062002bb95762002bb862003fe9565b5b9060005260206000200160009054906101000a900473ffffffffffffffffffffffffffffffffffffffff1690508073ffffffffffffffffffffffffffffffffffffffff166308551a536040518163ffffffff1660e01b8152600401602060405180830381865afa15801562002c32573d6000803e3d6000fd5b505050506040513d601f19601f8201168201806040525081019062002c5891906200411c565b73ffffffffffffffffffffffffffffffffffffffff163373ffffffffffffffffffffffffffffffffffffffff160362002cdd578083838151811062002ca25762002ca162003fe9565b5b602002602001019073ffffffffffffffffffffffffffffffffffffffff16908173ffffffffffffffffffffffffffffffffffffffff16815250505b50808062002ceb9062004018565b91505062002b94565b5080935050505090565b60606000600260003373ffffffffffffffffffffffffffffffffffffffff1673ffffffffffffffffffffffffffffffffffffffff168152602001908152602001600020600001805462002d519062003ce3565b905011801562002df05750600073ffffffffffffffffffffffffffffffffffffffff16600260003373ffffffffffffffffffffffffffffffffffffffff1673ffffffffffffffffffffffffffffffffffffffff16815260200190815260200160002060030160009054906101000a900473ffffffffffffffffffffffffffffffffffffffff1673ffffffffffffffffffffffffffffffffffffffff1614155b801562002e4d57506000600260003373ffffffffffffffffffffffffffffffffffffffff1673ffffffffffffffffffffffffffffffffffffffff168152602001908152602001600020600401805462002e499062003ce3565b9050115b62002e5757600080fd5b6000600360003373ffffffffffffffffffffffffffffffffffffffff1673ffffffffffffffffffffffffffffffffffffffff16815260200190815260200160002090506000805b828054905081101562002fbd57600083828154811062002ec35762002ec262003fe9565b5b9060005260206000200160009054906101000a900473ffffffffffffffffffffffffffffffffffffffff1690508073ffffffffffffffffffffffffffffffffffffffff16637150d8ae6040518163ffffffff1660e01b8152600401602060405180830381865afa15801562002f3c573d6000803e3d6000fd5b505050506040513d601f19601f8201168201806040525081019062002f6291906200411c565b73ffffffffffffffffffffffffffffffffffffffff163373ffffffffffffffffffffffffffffffffffffffff160362002fa657828062002fa29062004018565b9350505b50808062002fb49062004018565b91505062002e9e565b5060008167ffffffffffffffff81111562002fdd5762002fdc62003923565b5b6040519080825280602002602001820160405280156200300c5781602001602082028036833780820191505090505b50905060005b83805490508110156200317257600084828154811062003037576200303662003fe9565b5b9060005260206000200160009054906101000a900473ffffffffffffffffffffffffffffffffffffffff1690508073ffffffffffffffffffffffffffffffffffffffff16637150d8ae6040518163ffffffff1660e01b8152600401602060405180830381865afa158015620030b0573d6000803e3d6000fd5b505050506040513d601f19601f82011682018060405250810190620030d691906200411c565b73ffffffffffffffffffffffffffffffffffffffff163373ffffffffffffffffffffffffffffffffffffffff16036200315b578083838151811062003120576200311f62003fe9565b5b602002602001019073ffffffffffffffffffffffffffffffffffffffff16908173ffffffffffffffffffffffffffffffffffffffff16815250505b508080620031699062004018565b91505062003012565b5080935050505090565b610ec1806200414f83390190565b6040518060a00160405280606081526020016000815260200160008152602001600073ffffffffffffffffffffffffffffffffffffffff168152602001606081525090565b828054620031dd9062003ce3565b90600052602060002090601f0160209004810192826200320157600085556200324d565b82601f106200321c57805160ff19168380011785556200324d565b828001600101855582156200324d579182015b828111156200324c5782518255916020019190600101906200322f565b5b5090506200325c9190620032cd565b5090565b6040518060c00160405280600063ffffffff1681526020016060815260200160008152602001600063ffffffff168152602001600073ffffffffffffffffffffffffffffffffffffffff16815260200160006002811115620032c757620032c66200343d565b5b81525090565b5b80821115620032e8576000816000905550600101620032ce565b5090565b600081519050919050565b600082825260208201905092915050565b6000819050602082019050919050565b600063ffffffff82169050919050565b620033338162003318565b82525050565b600081519050919050565b600082825260208201905092915050565b60005b838110156200337557808201518184015260208101905062003358565b8381111562003385576000848401525b50505050565b6000601f19601f8301169050919050565b6000620033a98262003339565b620033b5818562003344565b9350620033c781856020860162003355565b620033d2816200338b565b840191505092915050565b6000819050919050565b620033f281620033dd565b82525050565b600073ffffffffffffffffffffffffffffffffffffffff82169050919050565b60006200342582620033f8565b9050919050565b620034378162003418565b82525050565b7f4e487b7100000000000000000000000000000000000000000000000000000000600052602160045260246000fd5b6003811062003480576200347f6200343d565b5b50565b600081905062003493826200346c565b919050565b6000620034a58262003483565b9050919050565b620034b78162003498565b82525050565b600060c083016000830151620034d7600086018262003328565b5060208301518482036020860152620034f182826200339c565b9150506040830151620035086040860182620033e7565b5060608301516200351d606086018262003328565b5060808301516200353260808601826200342c565b5060a08301516200354760a0860182620034ac565b508091505092915050565b6000620035608383620034bd565b905092915050565b6000602082019050919050565b60006200358282620032ec565b6200358e8185620032f7565b935083602082028501620035a28562003308565b8060005b85811015620035e45784840389528151620035c2858262003552565b9450620035cf8362003568565b925060208a01995050600181019050620035a6565b50829750879550505050505092915050565b6000602082019050818103600083015262003612818462003575565b905092915050565b6000604051905090565b600080fd5b600080fd5b620036398162003318565b81146200364557600080fd5b50565b60008135905062003659816200362e565b92915050565b60006020828403121562003678576200367762003624565b5b6000620036888482850162003648565b91505092915050565b6200369c8162003498565b82525050565b6000602082019050620036b9600083018462003691565b92915050565b620036ca8162003418565b8114620036d657600080fd5b50565b600081359050620036ea81620036bf565b92915050565b60006020828403121562003709576200370862003624565b5b60006200371984828501620036d9565b91505092915050565b600060a08301600083015184820360008601526200374182826200339c565b9150506020830151620037586020860182620033e7565b5060408301516200376d6040860182620033e7565b5060608301516200378260608601826200342c565b50608083015184820360808601526200379c82826200339c565b9150508091505092915050565b60006020820190508181036000830152620037c5818462003722565b905092915050565b600081519050919050565b600082825260208201905092915050565b6000819050602082019050919050565b6000819050919050565b6000620038246200381e6200381884620033f8565b620037f9565b620033f8565b9050919050565b6000620038388262003803565b9050919050565b60006200384c826200382b565b9050919050565b6200385e816200383f565b82525050565b600062003872838362003853565b60208301905092915050565b6000602082019050919050565b60006200389882620037cd565b620038a48185620037d8565b9350620038b183620037e9565b8060005b83811015620038e8578151620038cc888262003864565b9750620038d9836200387e565b925050600181019050620038b5565b5085935050505092915050565b600060208201905081810360008301526200391181846200388b565b905092915050565b600080fd5b600080fd5b7f4e487b7100000000000000000000000000000000000000000000000000000000600052604160045260246000fd5b6200395d826200338b565b810181811067ffffffffffffffff821117156200397f576200397e62003923565b5b80604052505050565b6000620039946200361a565b9050620039a2828262003952565b919050565b600067ffffffffffffffff821115620039c557620039c462003923565b5b620039d0826200338b565b9050602081019050919050565b82818337600083830152505050565b600062003a03620039fd84620039a7565b62003988565b90508281526020810184848401111562003a225762003a216200391e565b5b62003a2f848285620039dd565b509392505050565b600082601f83011262003a4f5762003a4e62003919565b5b813562003a61848260208601620039ec565b91505092915050565b60008060006060848603121562003a865762003a8562003624565b5b600062003a968682870162003648565b935050602084013567ffffffffffffffff81111562003aba5762003ab962003629565b5b62003ac88682870162003a37565b925050604062003adb8682870162003648565b9150509250925092565b62003af081620033dd565b82525050565b600060208201905062003b0d600083018462003ae5565b92915050565b600060c08301600083015162003b2d600086018262003328565b506020830151848203602086015262003b4782826200339c565b915050604083015162003b5e6040860182620033e7565b50606083015162003b73606086018262003328565b50608083015162003b8860808601826200342c565b5060a083015162003b9d60a0860182620034ac565b508091505092915050565b6000602082019050818103600083015262003bc4818462003b13565b905092915050565b6000806040838503121562003be65762003be562003624565b5b600083013567ffffffffffffffff81111562003c075762003c0662003629565b5b62003c158582860162003a37565b925050602083013567ffffffffffffffff81111562003c395762003c3862003629565b5b62003c478582860162003a37565b9150509250929050565b62003c5c81620033dd565b811462003c6857600080fd5b50565b60008135905062003c7c8162003c51565b92915050565b60006020828403121562003c9b5762003c9a62003624565b5b600062003cab8482850162003c6b565b91505092915050565b7f4e487b7100000000000000000000000000000000000000000000000000000000600052602260045260246000fd5b6000600282049050600182168062003cfc57607f821691505b60208210810362003d125762003d1162003cb4565b5b50919050565b62003d238162003318565b82525050565b600062003d4a62003d4462003d3e8462003318565b620037f9565b620033dd565b9050919050565b62003d5c8162003d29565b82525050565b62003d6d8162003418565b82525050565b600060a08201905062003d8a600083018862003d18565b62003d99602083018762003ae5565b62003da8604083018662003d51565b62003db7606083018562003d62565b62003dc6608083018462003d62565b9695505050505050565b7f4e487b7100000000000000000000000000000000000000000000000000000000600052601160045260246000fd5b600062003e0c8262003318565b915062003e198362003318565b92508263ffffffff0382111562003e355762003e3462003dd0565b5b828201905092915050565b600082825260208201905092915050565b600062003e5e8262003339565b62003e6a818562003e40565b935062003e7c81856020860162003355565b62003e87816200338b565b840191505092915050565b600060a082019050818103600083015262003eae818862003e51565b905062003ebf602083018762003d18565b62003ece604083018662003d18565b818103606083015262003ee2818562003e51565b905062003ef3608083018462003ae5565b9695505050505050565b60008190508160005260206000209050919050565b6000815462003f218162003ce3565b62003f2d818662003e40565b9450600182166000811462003f4b576001811462003f5e5762003f95565b60ff198316865260208601935062003f95565b62003f698562003efd565b60005b8381101562003f8d5781548189015260018201915060208101905062003f6c565b808801955050505b50505092915050565b6000606082019050818103600083015262003fba818662003f12565b9050818103602083015262003fd0818562003f12565b905062003fe1604083018462003d62565b949350505050565b7f4e487b7100000000000000000000000000000000000000000000000000000000600052603260045260246000fd5b60006200402582620033dd565b91507fffffffffffffffffffffffffffffffffffffffffffffffffffffffffffffffff82036200405a576200405962003dd0565b5b600182019050919050565b7f4974656d206e6f7420666f756e64000000000000000000000000000000000000600082015250565b60006200409d600e8362003e40565b9150620040aa8262004065565b602082019050919050565b60006020820190508181036000830152620040d0816200408e565b9050919050565b6000620040e482620033f8565b9050919050565b620040f681620040d7565b81146200410257600080fd5b50565b6000815190506200411681620040eb565b92915050565b60006020828403121562004135576200413462003624565b5b6000620041458482850162004105565b9150509291505056fe60806040523480156200001157600080fd5b5060405162000ec138038062000ec1833981810160405281019062000037919062000213565b84600160006101000a81548163ffffffff021916908363ffffffff16021790555080600260006101000a81548173ffffffffffffffffffffffffffffffffffffffff021916908373ffffffffffffffffffffffffffffffffffffffff16021790555081600160046101000a81548173ffffffffffffffffffffffffffffffffffffffff021916908373ffffffffffffffffffffffffffffffffffffffff160217905550826002620000e99190620002ca565b841462000122576040517f53d1399200000000000000000000000000000000000000000000000000000000815260040160405180910390fd5b50505050506200032b565b600080fd5b600063ffffffff82169050919050565b6200014d8162000132565b81146200015957600080fd5b50565b6000815190506200016d8162000142565b92915050565b6000819050919050565b620001888162000173565b81146200019457600080fd5b50565b600081519050620001a8816200017d565b92915050565b600073ffffffffffffffffffffffffffffffffffffffff82169050919050565b6000620001db82620001ae565b9050919050565b620001ed81620001ce565b8114620001f957600080fd5b50565b6000815190506200020d81620001e2565b92915050565b600080600080600060a086880312156200023257620002316200012d565b5b600062000242888289016200015c565b9550506020620002558882890162000197565b9450506040620002688882890162000197565b93505060606200027b88828901620001fc565b92505060806200028e88828901620001fc565b9150509295509295909350565b7f4e487b7100000000000000000000000000000000000000000000000000000000600052601160045260246000fd5b6000620002d78262000173565b9150620002e48362000173565b9250817fffffffffffffffffffffffffffffffffffffffffffffffffffffffffffffffff048311821515161562000320576200031f6200029b565b5b828202905092915050565b610b86806200033b6000396000f3fe60806040526004361061009c5760003560e01c80635a43c66e116100645780635a43c66e146101435780637150d8ae1461016e57806373fac6f0146101995780637e2f42e7146101b0578063c19d93fb146101db578063c7981b1b146102065761009c565b806308551a53146100a15780631f7b8884146100cc57806332d414dc146100d657806335a063b4146101015780633fa4f24514610118575b600080fd5b3480156100ad57600080fd5b506100b661021d565b6040516100c391906109ac565b60405180910390f35b6100d4610243565b005b3480156100e257600080fd5b506100eb6103ae565b6040516100f891906109e6565b60405180910390f35b34801561010d57600080fd5b506101166103c8565b005b34801561012457600080fd5b5061012d610580565b60405161013a9190610a1a565b60405180910390f35b34801561014f57600080fd5b50610158610586565b6040516101659190610aac565b60405180910390f35b34801561017a57600080fd5b5061018361059d565b60405161019091906109ac565b60405180910390f35b3480156101a557600080fd5b506101ae6105c3565b005b3480156101bc57600080fd5b506101c561077c565b6040516101d291906109e6565b60405180910390f35b3480156101e757600080fd5b506101f0610792565b6040516101fd9190610aac565b60405180910390f35b34801561021257600080fd5b5061021b6107a5565b005b600160049054906101000a900473ffffffffffffffffffffffffffffffffffffffff1681565b600080600381111561025857610257610a35565b5b600260149054906101000a900460ff16600381111561027a57610279610a35565b5b146102b1576040517fbaf3f0f700000000000000000000000000000000000000000000000000000000815260040160405180910390fd5b600160049054906101000a900473ffffffffffffffffffffffffffffffffffffffff1673ffffffffffffffffffffffffffffffffffffffff163373ffffffffffffffffffffffffffffffffffffffff1614610338576040517f85d1f72600000000000000000000000000000000000000000000000000000000815260040160405180910390fd5b60005460026103479190610af6565b34148061035357600080fd5b7fd38d6799315b613e5721313e07e327b0e8a305fcc442174a6c3bb26fb6463fb660405160405180910390a16001600260146101000a81548160ff021916908360038111156103a5576103a4610a35565b5b02179055505050565b6000600160009054906101000a900463ffffffff16905090565b600260009054906101000a900473ffffffffffffffffffffffffffffffffffffffff1673ffffffffffffffffffffffffffffffffffffffff163373ffffffffffffffffffffffffffffffffffffffff161461044f576040517f86efbb5500000000000000000000000000000000000000000000000000000000815260040160405180910390fd5b600080600381111561046457610463610a35565b5b600260149054906101000a900460ff16600381111561048657610485610a35565b5b146104bd576040517fbaf3f0f700000000000000000000000000000000000000000000000000000000815260040160405180910390fd5b7f72c874aeff0b183a56e2b79c71b46e1aed4dee5e09862134b8821ba2fddbf8bf60405160405180910390a16003600260146101000a81548160ff0219169083600381111561050f5761050e610a35565b5b0217905550600260009054906101000a900473ffffffffffffffffffffffffffffffffffffffff1673ffffffffffffffffffffffffffffffffffffffff166108fc479081150290604051600060405180830381858888f1935050505015801561057c573d6000803e3d6000fd5b5050565b60005481565b6000600260149054906101000a900460ff16905090565b600260009054906101000a900473ffffffffffffffffffffffffffffffffffffffff1681565b600260009054906101000a900473ffffffffffffffffffffffffffffffffffffffff1673ffffffffffffffffffffffffffffffffffffffff163373ffffffffffffffffffffffffffffffffffffffff161461064a576040517f86efbb5500000000000000000000000000000000000000000000000000000000815260040160405180910390fd5b600180600381111561065f5761065e610a35565b5b600260149054906101000a900460ff16600381111561068157610680610a35565b5b146106b8576040517fbaf3f0f700000000000000000000000000000000000000000000000000000000815260040160405180910390fd5b7fe89152acd703c9d8c7d28829d443260b411454d45394e7995815140c8cbcbcf760405160405180910390a160028060146101000a81548160ff0219169083600381111561070957610708610a35565b5b0217905550600260009054906101000a900473ffffffffffffffffffffffffffffffffffffffff1673ffffffffffffffffffffffffffffffffffffffff166108fc6000549081150290604051600060405180830381858888f19350505050158015610778573d6000803e3d6000fd5b5050565b600160009054906101000a900463ffffffff1681565b600260149054906101000a900460ff1681565b600160049054906101000a900473ffffffffffffffffffffffffffffffffffffffff1673ffffffffffffffffffffffffffffffffffffffff163373ffffffffffffffffffffffffffffffffffffffff161461082c576040517f85d1f72600000000000000000000000000000000000000000000000000000000815260040160405180910390fd5b600280600381111561084157610840610a35565b5b600260149054906101000a900460ff16600381111561086357610862610a35565b5b1461089a576040517fbaf3f0f700000000000000000000000000000000000000000000000000000000815260040160405180910390fd5b7ffda69c32bcfdba840a167777906b173b607eb8b4d8853b97a80d26e613d858db60405160405180910390a16003600260146101000a81548160ff021916908360038111156108ec576108eb610a35565b5b0217905550600160049054906101000a900473ffffffffffffffffffffffffffffffffffffffff1673ffffffffffffffffffffffffffffffffffffffff166108fc600054600361093c9190610af6565b9081150290604051600060405180830381858888f19350505050158015610967573d6000803e3d6000fd5b5050565b600073ffffffffffffffffffffffffffffffffffffffff82169050919050565b60006109968261096b565b9050919050565b6109a68161098b565b82525050565b60006020820190506109c1600083018461099d565b92915050565b600063ffffffff82169050919050565b6109e0816109c7565b82525050565b60006020820190506109fb60008301846109d7565b92915050565b6000819050919050565b610a1481610a01565b82525050565b6000602082019050610a2f6000830184610a0b565b92915050565b7f4e487b7100000000000000000000000000000000000000000000000000000000600052602160045260246000fd5b60048110610a7557610a74610a35565b5b50565b6000819050610a8682610a64565b919050565b6000610a9682610a78565b9050919050565b610aa681610a8b565b82525050565b6000602082019050610ac16000830184610a9d565b92915050565b7f4e487b7100000000000000000000000000000000000000000000000000000000600052601160045260246000fd5b6000610b0182610a01565b9150610b0c83610a01565b9250817fffffffffffffffffffffffffffffffffffffffffffffffffffffffffffffffff0483118215151615610b4557610b44610ac7565b5b82820290509291505056fea2646970667358221220cd57eb56e71dabe3f799154ec20f3a76c7b32dff3b7fd7e751e77a5621f3eff264736f6c634300080d0033a2646970667358221220fce6516c27b3889d9915dc26cf49dfd678044a7c8e0bde0dba0c32ed0e0265f864736f6c634300080d0033",
  "immutableReferences": {},
  "source": "// SPDX-License-Identifier: GPL-3.0\npragma solidity >=0.7.0 <0.9.0;\n\nimport {Dbay} from './Dbay.sol';\n\ncontract ExposedDbay is Dbay{\n    function _findGoodById(uint32 goodId) public view isUser returns(Good memory){\n        Good memory good = findGoodById(goodId);\n        return good;\n    }\n}",
  "sourcePath": "/Users/edwardcox/crypto/dbay/contracts/ExposedDbay.sol",
  "compiler": {
    "name": "solc",
    "version": "0.8.13+commit.abaa5c0e.Emscripten.clang"
  },
  "schemaVersion": "3.4.7",
  "updatedAt": "2022-06-13T00:21:07.769Z",
  "devdoc": {
    "kind": "dev",
    "methods": {},
    "version": 1
  },
  "userdoc": {
    "kind": "user",
    "methods": {},
    "version": 1
  }
}