{
  "contractName": "Transaction",
  "abi": [
    {
      "inputs": [
        {
          "internalType": "uint32",
          "name": "goodId",
          "type": "uint32"
        },
        {
          "internalType": "uint256",
          "name": "payment",
          "type": "uint256"
        },
        {
          "internalType": "uint256",
          "name": "price",
          "type": "uint256"
        },
        {
          "internalType": "address",
          "name": "sellerAddr",
          "type": "address"
        },
        {
          "internalType": "address",
          "name": "buyerAddr",
          "type": "address"
        }
      ],
      "stateMutability": "nonpayable",
      "type": "constructor"
    },
    {
      "inputs": [],
      "name": "InvalidPurchase",
      "type": "error"
    },
    {
      "inputs": [],
      "name": "InvalidState",
      "type": "error"
    },
    {
      "inputs": [],
      "name": "OnlyBuyer",
      "type": "error"
    },
    {
      "inputs": [],
      "name": "OnlySeller",
      "type": "error"
    },
    {
      "anonymous": false,
      "inputs": [],
      "name": "Aborted",
      "type": "event"
    },
    {
      "anonymous": false,
      "inputs": [],
      "name": "ItemReceived",
      "type": "event"
    },
    {
      "anonymous": false,
      "inputs": [],
      "name": "SaleConfirmed",
      "type": "event"
    },
    {
      "anonymous": false,
      "inputs": [],
      "name": "SellerRefunded",
      "type": "event"
    },
    {
      "inputs": [],
      "name": "buyer",
      "outputs": [
        {
          "internalType": "address payable",
          "name": "",
          "type": "address"
        }
      ],
      "stateMutability": "view",
      "type": "function"
    },
    {
      "inputs": [],
      "name": "seller",
      "outputs": [
        {
          "internalType": "address payable",
          "name": "",
          "type": "address"
        }
      ],
      "stateMutability": "view",
      "type": "function"
    },
    {
      "inputs": [],
      "name": "state",
      "outputs": [
        {
          "internalType": "enum Transaction.State",
          "name": "",
          "type": "uint8"
        }
      ],
      "stateMutability": "view",
      "type": "function"
    },
    {
      "inputs": [],
      "name": "transactionId",
      "outputs": [
        {
          "internalType": "uint32",
          "name": "",
          "type": "uint32"
        }
      ],
      "stateMutability": "view",
      "type": "function"
    },
    {
      "inputs": [],
      "name": "value",
      "outputs": [
        {
          "internalType": "uint256",
          "name": "",
          "type": "uint256"
        }
      ],
      "stateMutability": "view",
      "type": "function"
    },
    {
      "inputs": [],
      "name": "getTransactionState",
      "outputs": [
        {
          "internalType": "enum Transaction.State",
          "name": "",
          "type": "uint8"
        }
      ],
      "stateMutability": "view",
      "type": "function"
    },
    {
      "inputs": [],
      "name": "getTransactionId",
      "outputs": [
        {
          "internalType": "uint32",
          "name": "",
          "type": "uint32"
        }
      ],
      "stateMutability": "view",
      "type": "function"
    },
    {
      "inputs": [],
      "name": "abort",
      "outputs": [],
      "stateMutability": "nonpayable",
      "type": "function"
    },
    {
      "inputs": [],
      "name": "confirmSale",
      "outputs": [],
      "stateMutability": "payable",
      "type": "function"
    },
    {
      "inputs": [],
      "name": "confirmReceived",
      "outputs": [],
      "stateMutability": "nonpayable",
      "type": "function"
    },
    {
      "inputs": [],
      "name": "refundSeller",
      "outputs": [],
      "stateMutability": "nonpayable",
      "type": "function"
    }
  ],
  "bytecode": "0x60806040523480156200001157600080fd5b5060405162000ec138038062000ec1833981810160405281019062000037919062000213565b84600160006101000a81548163ffffffff021916908363ffffffff16021790555080600260006101000a81548173ffffffffffffffffffffffffffffffffffffffff021916908373ffffffffffffffffffffffffffffffffffffffff16021790555081600160046101000a81548173ffffffffffffffffffffffffffffffffffffffff021916908373ffffffffffffffffffffffffffffffffffffffff160217905550826002620000e99190620002ca565b841462000122576040517f53d1399200000000000000000000000000000000000000000000000000000000815260040160405180910390fd5b50505050506200032b565b600080fd5b600063ffffffff82169050919050565b6200014d8162000132565b81146200015957600080fd5b50565b6000815190506200016d8162000142565b92915050565b6000819050919050565b620001888162000173565b81146200019457600080fd5b50565b600081519050620001a8816200017d565b92915050565b600073ffffffffffffffffffffffffffffffffffffffff82169050919050565b6000620001db82620001ae565b9050919050565b620001ed81620001ce565b8114620001f957600080fd5b50565b6000815190506200020d81620001e2565b92915050565b600080600080600060a086880312156200023257620002316200012d565b5b600062000242888289016200015c565b9550506020620002558882890162000197565b9450506040620002688882890162000197565b93505060606200027b88828901620001fc565b92505060806200028e88828901620001fc565b9150509295509295909350565b7f4e487b7100000000000000000000000000000000000000000000000000000000600052601160045260246000fd5b6000620002d78262000173565b9150620002e48362000173565b9250817fffffffffffffffffffffffffffffffffffffffffffffffffffffffffffffffff048311821515161562000320576200031f6200029b565b5b828202905092915050565b610b86806200033b6000396000f3fe60806040526004361061009c5760003560e01c80635a43c66e116100645780635a43c66e146101435780637150d8ae1461016e57806373fac6f0146101995780637e2f42e7146101b0578063c19d93fb146101db578063c7981b1b146102065761009c565b806308551a53146100a15780631f7b8884146100cc57806332d414dc146100d657806335a063b4146101015780633fa4f24514610118575b600080fd5b3480156100ad57600080fd5b506100b661021d565b6040516100c391906109ac565b60405180910390f35b6100d4610243565b005b3480156100e257600080fd5b506100eb6103ae565b6040516100f891906109e6565b60405180910390f35b34801561010d57600080fd5b506101166103c8565b005b34801561012457600080fd5b5061012d610580565b60405161013a9190610a1a565b60405180910390f35b34801561014f57600080fd5b50610158610586565b6040516101659190610aac565b60405180910390f35b34801561017a57600080fd5b5061018361059d565b60405161019091906109ac565b60405180910390f35b3480156101a557600080fd5b506101ae6105c3565b005b3480156101bc57600080fd5b506101c561077c565b6040516101d291906109e6565b60405180910390f35b3480156101e757600080fd5b506101f0610792565b6040516101fd9190610aac565b60405180910390f35b34801561021257600080fd5b5061021b6107a5565b005b600160049054906101000a900473ffffffffffffffffffffffffffffffffffffffff1681565b600080600381111561025857610257610a35565b5b600260149054906101000a900460ff16600381111561027a57610279610a35565b5b146102b1576040517fbaf3f0f700000000000000000000000000000000000000000000000000000000815260040160405180910390fd5b600160049054906101000a900473ffffffffffffffffffffffffffffffffffffffff1673ffffffffffffffffffffffffffffffffffffffff163373ffffffffffffffffffffffffffffffffffffffff1614610338576040517f85d1f72600000000000000000000000000000000000000000000000000000000815260040160405180910390fd5b60005460026103479190610af6565b34148061035357600080fd5b7fd38d6799315b613e5721313e07e327b0e8a305fcc442174a6c3bb26fb6463fb660405160405180910390a16001600260146101000a81548160ff021916908360038111156103a5576103a4610a35565b5b02179055505050565b6000600160009054906101000a900463ffffffff16905090565b600260009054906101000a900473ffffffffffffffffffffffffffffffffffffffff1673ffffffffffffffffffffffffffffffffffffffff163373ffffffffffffffffffffffffffffffffffffffff161461044f576040517f86efbb5500000000000000000000000000000000000000000000000000000000815260040160405180910390fd5b600080600381111561046457610463610a35565b5b600260149054906101000a900460ff16600381111561048657610485610a35565b5b146104bd576040517fbaf3f0f700000000000000000000000000000000000000000000000000000000815260040160405180910390fd5b7f72c874aeff0b183a56e2b79c71b46e1aed4dee5e09862134b8821ba2fddbf8bf60405160405180910390a16003600260146101000a81548160ff0219169083600381111561050f5761050e610a35565b5b0217905550600260009054906101000a900473ffffffffffffffffffffffffffffffffffffffff1673ffffffffffffffffffffffffffffffffffffffff166108fc479081150290604051600060405180830381858888f1935050505015801561057c573d6000803e3d6000fd5b5050565b60005481565b6000600260149054906101000a900460ff16905090565b600260009054906101000a900473ffffffffffffffffffffffffffffffffffffffff1681565b600260009054906101000a900473ffffffffffffffffffffffffffffffffffffffff1673ffffffffffffffffffffffffffffffffffffffff163373ffffffffffffffffffffffffffffffffffffffff161461064a576040517f86efbb5500000000000000000000000000000000000000000000000000000000815260040160405180910390fd5b600180600381111561065f5761065e610a35565b5b600260149054906101000a900460ff16600381111561068157610680610a35565b5b146106b8576040517fbaf3f0f700000000000000000000000000000000000000000000000000000000815260040160405180910390fd5b7fe89152acd703c9d8c7d28829d443260b411454d45394e7995815140c8cbcbcf760405160405180910390a160028060146101000a81548160ff0219169083600381111561070957610708610a35565b5b0217905550600260009054906101000a900473ffffffffffffffffffffffffffffffffffffffff1673ffffffffffffffffffffffffffffffffffffffff166108fc6000549081150290604051600060405180830381858888f19350505050158015610778573d6000803e3d6000fd5b5050565b600160009054906101000a900463ffffffff1681565b600260149054906101000a900460ff1681565b600160049054906101000a900473ffffffffffffffffffffffffffffffffffffffff1673ffffffffffffffffffffffffffffffffffffffff163373ffffffffffffffffffffffffffffffffffffffff161461082c576040517f85d1f72600000000000000000000000000000000000000000000000000000000815260040160405180910390fd5b600280600381111561084157610840610a35565b5b600260149054906101000a900460ff16600381111561086357610862610a35565b5b1461089a576040517fbaf3f0f700000000000000000000000000000000000000000000000000000000815260040160405180910390fd5b7ffda69c32bcfdba840a167777906b173b607eb8b4d8853b97a80d26e613d858db60405160405180910390a16003600260146101000a81548160ff021916908360038111156108ec576108eb610a35565b5b0217905550600160049054906101000a900473ffffffffffffffffffffffffffffffffffffffff1673ffffffffffffffffffffffffffffffffffffffff166108fc600054600361093c9190610af6565b9081150290604051600060405180830381858888f19350505050158015610967573d6000803e3d6000fd5b5050565b600073ffffffffffffffffffffffffffffffffffffffff82169050919050565b60006109968261096b565b9050919050565b6109a68161098b565b82525050565b60006020820190506109c1600083018461099d565b92915050565b600063ffffffff82169050919050565b6109e0816109c7565b82525050565b60006020820190506109fb60008301846109d7565b92915050565b6000819050919050565b610a1481610a01565b82525050565b6000602082019050610a2f6000830184610a0b565b92915050565b7f4e487b7100000000000000000000000000000000000000000000000000000000600052602160045260246000fd5b60048110610a7557610a74610a35565b5b50565b6000819050610a8682610a64565b919050565b6000610a9682610a78565b9050919050565b610aa681610a8b565b82525050565b6000602082019050610ac16000830184610a9d565b92915050565b7f4e487b7100000000000000000000000000000000000000000000000000000000600052601160045260246000fd5b6000610b0182610a01565b9150610b0c83610a01565b9250817fffffffffffffffffffffffffffffffffffffffffffffffffffffffffffffffff0483118215151615610b4557610b44610ac7565b5b82820290509291505056fea2646970667358221220cd57eb56e71dabe3f799154ec20f3a76c7b32dff3b7fd7e751e77a5621f3eff264736f6c634300080d0033",
  "immutableReferences": {},
  "source": "// SPDX-License-Identifier: GPL-3.0\npragma solidity >=0.7.0 <0.9.0;\n\ncontract Transaction {\n    uint public value;\n    uint32 public transactionId;\n    address payable public seller;\n    address payable public buyer;\n\n    \n\n    enum State { Created, Locked, Release, Inactive }\n    // The state variable has a default value of the first member, `State.created`\n    State public state;\n\n    modifier condition(bool condition_) {\n        require(condition_);\n        _;\n    }\n\n    /// Only the buyer can call this function.\n    error OnlyBuyer();\n    /// Only the seller can call this function.\n    error OnlySeller();\n    /// The function cannot be called at the current state.\n    error InvalidState();\n    /// The provided value must be twice the good price\n    error InvalidPurchase();\n\n    modifier onlyBuyer() {\n        if (msg.sender != buyer)\n            revert OnlyBuyer();\n        _;\n    }\n\n    modifier onlySeller() {\n        if (msg.sender != seller)\n            revert OnlySeller();\n        _;\n    }\n\n    modifier inState(State state_) {\n        if (state != state_)\n            revert InvalidState();\n        _;\n    }\n\n    event Aborted();\n    event SaleConfirmed();\n    event ItemReceived();\n    event SellerRefunded();\n\n    // Ensure that `msg.value` is an even number.\n    // Division will truncate if it is an odd number.\n    // Check via multiplication that it wasn't an odd number.\n    constructor(uint32 goodId, uint payment, uint price, address sellerAddr, address buyerAddr) {        \n        transactionId = goodId;\n        buyer = payable(buyerAddr);\n        seller = payable(sellerAddr);\n        if (payment != (2*price))\n            revert InvalidPurchase();\n    }\n\n    function getTransactionState() external view returns(State) {\n        return state;\n    }\n\n    function getTransactionId() external view returns (uint32){\n        return transactionId;\n    }\n\n    /// Abort the purchase and reclaim the ether.\n    /// Can only be called by the buyer before\n    /// the contract is locked.\n    function abort()\n        external\n        onlyBuyer\n        inState(State.Created)\n    {\n        emit Aborted();\n        state = State.Inactive;\n        // We use transfer here directly. It is\n        // reentrancy-safe, because it is the\n        // last call in this function and we\n        // already changed the state.\n        buyer.transfer(address(this).balance);\n    }\n\n    /// Confirm the purchase as seller.\n    /// Transaction has to include `2 * value` ether.\n    /// The ether will be locked until confirmReceived\n    /// is called.\n    function confirmSale()\n        external\n        inState(State.Created)\n        onlySeller\n        condition(msg.value == (2 * value))\n        payable\n    {\n        emit SaleConfirmed();\n        state = State.Locked;\n    }\n\n    /// Confirm that you (the buyer) received the item.\n    /// This will release the locked ether.\n    function confirmReceived()\n        external\n        onlyBuyer\n        inState(State.Locked)\n    {\n        emit ItemReceived();\n        // It is important to change the state first because\n        // otherwise, the contracts called using `send` below\n        // can call in again here.\n        state = State.Release;\n\n        buyer.transfer(value);\n    }\n\n    /// This function refunds the seller, i.e.\n    /// pays back the locked funds of the seller.\n    function refundSeller()\n        external\n        onlySeller\n        inState(State.Release)\n    {\n        emit SellerRefunded();\n        // It is important to change the state first because\n        // otherwise, the contracts called using `send` below\n        // can call in again here.\n        state = State.Inactive;\n\n        seller.transfer(3 * value);\n    }\n}",
  "sourcePath": "/Users/edwardcox/crypto/dbay/contracts/Transaction.sol",
  "compiler": {
    "name": "solc",
    "version": "0.8.13+commit.abaa5c0e.Emscripten.clang"
  },
  "schemaVersion": "3.4.7",
  "updatedAt": "2022-05-29T19:29:02.440Z",
  "devdoc": {
    "kind": "dev",
    "methods": {},
    "version": 1
  },
  "userdoc": {
    "errors": {
      "InvalidPurchase()": [
        {
          "notice": "The provided value must be twice the good price"
        }
      ],
      "InvalidState()": [
        {
          "notice": "The function cannot be called at the current state."
        }
      ],
      "OnlyBuyer()": [
        {
          "notice": "Only the buyer can call this function."
        }
      ],
      "OnlySeller()": [
        {
          "notice": "Only the seller can call this function."
        }
      ]
    },
    "kind": "user",
    "methods": {
      "abort()": {
        "notice": "Abort the purchase and reclaim the ether. Can only be called by the buyer before the contract is locked."
      },
      "confirmReceived()": {
        "notice": "Confirm that you (the buyer) received the item. This will release the locked ether."
      },
      "confirmSale()": {
        "notice": "Confirm the purchase as seller. Transaction has to include `2 * value` ether. The ether will be locked until confirmReceived is called."
      },
      "refundSeller()": {
        "notice": "This function refunds the seller, i.e. pays back the locked funds of the seller."
      }
    },
    "version": 1
  }
}